:020000040800F2
:10000000A80C0020290200080B100008A108000815
:100010000710000851040008F31E0008000000004B
:10002000000000000000000000000000C9130008EC
:100030005504000800000000991000089114000801
:10004000430200084302000843020008430200087C
:10005000430200084302000843020008430200086C
:10006000430200084302000843020008430200085C
:10007000430200084302000843020008430200084C
:10008000430200084302000843020008430200083C
:10009000430200084302000843020008430200082C
:1000A000430200084302000843020008430200081C
:1000B000FD1900084302000843020008430200083B
:1000C00043020008430200084302000843020008FC
:1000D00043020008ED1C0008430200084302000828
:1000E00043020008430200084302000843020008DC
:1000F00043020008430200084302000843020008CC
:1001000043020008430200084302000843020008BB
:1001100043020008430200084302000843020008AB
:10012000430200084302000843020008430200089B
:10013000430200084302000843020008430200088B
:10014000430200084302000843020008430200087B
:10015000430200084302000843020008430200086B
:10016000430200084302000843020008430200085B
:10017000430200084302000843020008430200084B
:10018000430200084302000800F002F800F03CF8C7
:100190000AA090E8000C82448344AAF10107DA45E2
:1001A00001D100F031F8AFF2090EBAE80F0013F0F8
:1001B000010F18BFFB1A43F001031847183602005D
:1001C00038360200103A24BF78C878C1FAD85207EE
:1001D00024BF30C830C144BF04680C6070470000C1
:1001E0000023002400250026103A28BF78C1FBD840
:1001F000520728BF30C148BF0B6070471FB502F0DF
:1002000009FC1FBD10B510BD00F0DCF81146FFF76A
:10021000F5FF02F091F900F00EF903B4FFF7F2FFD9
:1002200003BC02F0F2F80000094880470948004783
:10023000FEE7FEE7FEE7FEE7FEE7FEE7FEE7FEE796
:10024000FEE7FEE704480549054A064B70470000F3
:100250009514000889010008A8060020A80C0020B9
:10026000A8080020A8080020704700000FB4044927
:1002700010B503AA029800F04FF810BC5DF814FB0B
:100280001000002040EA0103024630B59B0710D160
:100290004FF0013400E008C208C91D1B9D4315EA58
:1002A000C41FF8D013F0FF0102F8011B0DD01B0A88
:1002B000F8E711F8013B002B02F8013B05D011F8DB
:1002C000013B002B02F8013BF3D130BD4FF000029F
:1002D0000429C0F0128010F0030C00F03180CCF142
:1002E000040CBCF1020F18BF00F8012BA8BF20F8C6
:1002F000022BA1EB0C0100F023B85FEAC17C24BF04
:1003000000F8012B00F8012B48BF00F8012B7047C3
:100310007047704770477047074B70B50D467B4478
:1003200000F039F80446284600F048F810B14FF0C4
:10033000FF3070BD204670BDFB2100004FF0000271
:1003400000B5134694469646203922BFA0E80C50CB
:10035000A0E80C50B1F12001BFF4F7AF090728BFA6
:10036000A0E80C5048BF0CC05DF804EB890028BF22
:1003700040F8042B08BF704748BF20F8022B11F04B
:10038000804F18BF00F8012B7047000001694A1C1C
:1003900002610878704700B58FB0CDE901310021C6
:1003A000059105497944CDE903101146684600F0EE
:1003B0002EF80FB000BD0000E5FFFFFF007B00F04E
:1003C00080007047754600F03FF8AE46050069466C
:1003D000534620F00700854618B020B5FFF732FFDE
:1003E000BDE820404FF000064FF000074FF0000836
:1003F0004FF0000B21F00701AC46ACE8C009ACE8B7
:10040000C009ACE8C009ACE8C0098D4670472DE9C9
:10041000F04106460024D6E90170F5688046304672
:1004200003E04146B847641C3046A8470028F8D18D
:100430002046BDE8F08110B50446AFF300802046A9
:10044000BDE81040FFF7E9BE0048704748060020AD
:1004500000BFFEE77047000038B504460D4604486B
:10046000F0231A4600210090084600F077FD38BDC1
:10047000D27500081CB50121042000F00FFE0121F7
:10048000022000F00BFE02208DF8050001208DF8FF
:10049000040000208DF8060002208DF807000320DC
:1004A00000906946084800F063F801200090694612
:1004B000064800F05DF80020054908600549C1F8CC
:1004C0008402054908601CBD000802400004024087
:1004D00080024142000041428082404240B90021F6
:1004E000204A1160204AC2F88412204A116038E084
:1004F000012809D101211B4A116000211A4AC2F8C2
:1005000084121A4A11602CE002280AD10021154AEF
:1005100011600121144AC2F884120021134A1160AB
:100520001FE0032809D101210E4A11600E4AC2F8CA
:10053000841200210D4A116013E0042809D1002122
:10054000084A1160084AC2F884120121074A116062
:1005500007E00121034A1160034AC2F88412034AEA
:100560001160704780024142000041428082404257
:10057000F0B50A4600210023002400BF3DE001251C
:1005800005FA01F3156805EA03049C4234D10568B5
:100590004F000326BE40B543056015794E00B540B7
:1005A0000668354305601579012D02D01579022DB5
:1005B00016D185684F000326BE40B5438560557946
:1005C0004E00B540866835438560456801268E40FB
:1005D000B5434560456896798E40B6B2354345606F
:1005E000C5684F000326BE40B543C560D5794E00AF
:1005F000B540C6683543C560491C1029BFD3F0BD5E
:10060000F0B5002300244D07ED0E02FA05F3CE10DD
:1006100000F1200555F826504E07F70E0F26BE4074
:10062000B543CF1000F1200646F82750CE1000F158
:10063000200555F8265045EA0304CE1000F12005A8
:1006400045F82640F0BD0246002013690B400BB16F
:10065000012000E00020704741837047018370470C
:100660001CB50121084600F019FD02200090002071
:100670008DF8040069460648FFF77AFF10200090C5
:1006800001208DF8040069460148FFF771FF1CBD89
:100690000000024070B52DED048B002400250121DF
:1006A000880701F0EFF910212348FFF7D7FF1E203C
:1006B00001F0E8FE10212048FFF7CEFF00BF022125
:1006C0001D48FFF7C0FF18B91C4800880028F6D065
:1006D00000204FF08041486200BF02211648FFF71A
:1006E000B2FF18B1154800880028F6D000214FF05D
:1006F000804001F0C7F911480088012802D100208C
:100700000E4908804FF0804001F090FA85B22846EB
:1007100002F06FF841EC190B9FED090B53EC102B15
:1007200002F07AF841EC180B02F034F80446A0B25B
:10073000BDEC048B70BD0000000002401A000020D8
:10074000333333333333EB3F10B500F057F80D49F3
:100750000860084600680C490860084600680B49B4
:100760000968401A00EE100AB8EEC00ADFED080A68
:1007700080EE201ABDEEC10A034880ED000A006831
:1007800010BD00001C0000202000002024000020DC
:100790000000D7431FB50121042000F07FFC4FF477
:1007A0000070029001208DF80C0000208DF80E00E2
:1007B00002208DF80D008DF80F0002A90D48FFF7FB
:1007C000D7FE4FF48070009000208DF804000220C6
:1007D0008DF8050000208DF8070069460548FFF7F1
:1007E000C7FE0A2001F032FE00F008F80249086056
:1007F0001FBD0000000802402400002070B5002446
:10080000002500BF4FF480712448FFF71CFF00282B
:10081000F8D1012001F036FE4FF400711F48FFF7B8
:100820001BFF00BF4FF480711C48FFF70CFF00282E
:10083000F8D000251CE0C82001F024FE4FF4007120
:100840001648FFF70BFF6400012001F01BFE4FF478
:1008500000711248FFF700FF4FF480710F48FFF757
:10086000F2FE00B1641C012001F00CFE681CC5B250
:10087000182DE0DB4FF400710848FFF7EFFE84F419
:100880000004012001F0FEFD4FF400710348FFF762
:10089000E3FE012001F0F6FD204670BD0008024095
:1008A00000BFFEE72DE9F04104460D4616461F46FF
:1008B0002A2000F07BFB201200F084FBE0B200F065
:1008C00081FB301200F07EFBF0B200F07BFB2B20AE
:1008D00000F06CFB281200F075FBE8B200F072FB30
:1008E000381200F06FFBF8B200F06CFB2C2000F027
:1008F0005DFBBDE8F0810000F8B5054600200090E2
:1009000028128DF80000E8B28DF80100EF231A4696
:1009100000210846FFF7C6FF00240DE09DF8000007
:100920000E4901F814009DF80100012101EB44017A
:100930000A4A5054601C84B2B4F5107FEEDB0120EB
:1009400007490860002606E04FF49061034800F074
:1009500062F9701C86B2642EF6DBF8BDC801002077
:10096000BC8240422DE9F05F0746884691469A4690
:10097000DDF828B0002400250026A9EB0700401C64
:10098000AAEB0801491C48434500B5F5906F03D90F
:10099000A5F590664FF4906553464A464146384661
:1009A000FFF780FF20E000240AE04FEA2B20104AE6
:1009B00002F814006000401C02F800B0601C84B211
:1009C000B4EB550FF1D301200A49086029460848C5
:1009D00000F021F906B908E0B6F5906F02D9A6F546
:1009E000906601E035460026DDE700BFBDE8F09FD8
:1009F000C8010020BC8240421CB50121022000F049
:100A00004DFB4EF20200009001208DF80400002002
:100A10008DF8060003208DF8050001208DF80700F1
:100A200069460D48FFF7A4FD4EF202010A48FFF7A0
:100A300013FE0020094908600949C1F8B4020749BA
:100A400034310860782001F001FD01200449C1F82B
:100A5000B80200F0E7FB1CBD000402408482404263
:100A60000080404210B5FFF7C7FF782001F0EEFC90
:100A7000112000F09BFA782001F0E8FC362000F00D
:100A800095FA002000F09EFA3A2000F08FFA6520D7
:100A900000F098FAB22000F089FA0C2000F092FAE7
:100AA0000C2000F08FFA002000F08CFA332000F0C8
:100AB00089FA332000F086FAB72000F077FA722026
:100AC00000F080FABB2000F071FA3D2000F07AFAC5
:100AD000C02000F06BFA2C2000F074FAC22000F065
:100AE00065FA012000F06EFAC32000F05FFA1920C9
:100AF00000F068FAC42000F059FA202000F062FAF1
:100B0000C62000F053FA0F2000F05CFAD02000F06D
:100B10004DFAA42000F056FAA12000F053FAE0208C
:100B200000F044FAD02000F04DFA042000F04AFA18
:100B30000D2000F047FA112000F044FA132000F0D5
:100B400041FA2B2000F03EFA3F2000F03BFA5420FF
:100B500000F038FA4C2000F035FA182000F032FA94
:100B60000D2000F02FFA0B2000F02CFA1F2000F0CF
:100B700029FA232000F026FAE12000F017FAD0200D
:100B800000F020FA042000F01DFA0C2000F01AFA00
:100B9000112000F017FA132000F014FA2C2000F0B6
:100BA00011FA3F2000F00EFA442000F00BFA512019
:100BB00000F008FA2F2000F005FA1F2000F002FADA
:100BC0001F2000F0FFF9202000F0FCF9232000F0A6
:100BD000F9F9212000F0EAF9292000F0E7F9EF23E4
:100BE0001A4600210846FFF75DFE4FF6FF70FFF73B
:100BF00083FE01200149086010BD0000B48240421C
:100C000010B50246012000E050430B1EA1F1010483
:100C1000E1B2F9D110BD2DE9F04105460E464FF67F
:100C2000FF70B6FBF0F7002416E0BC420CD14FF683
:100C3000FF70B6FBF0F100FB1168C4EB04414819EA
:100C4000414600F067FB06E0C4EB044148194FF64B
:100C5000FF7100F05FFB641CBC42E6D9BDE8F08187
:100C60002DE9FE4F82468B4616461C46A6F1200013
:100C7000C6B204EBD4714910C1F1F001514503DB58
:100C8000C4F1F001594501DABDE8FE8F04EBD470E0
:100C90000AEB6000401E82B20BEB0400401E83B2E0
:100CA000594650460094FFF7FDFD102C01D0202C32
:100CB0004ED12046E31704EB5373DB1021464FEA75
:100CC000E47C04EB5C7C4FEAEC0CA4EBCC0CBCF1B8
:100CD000000F02D04FF0010C01E04FF0000C634414
:100CE000224604EBD27C4FEA6C0C03FB0CF303F0BE
:100CF000FF09002529E0102C04D1574800EB06100D
:100D0000475D07E0202C04D1544800EBC610475D36
:100D100000E0B9E74FF0000812E007F0800018B1DA
:100D20004F480088029002E04E48008802900298E6
:100D300000F054F97806070E08F1010000F0FF08F2
:100D4000B8F1080FE9DB681CC5B24D45D3DB80E084
:100D50000C2C45D12046E31704EB5373DB102146DE
:100D60004FEAE47C04EB5C7C4FEAEC0CA4EBCC0C8B
:100D7000BCF1000F02D04FF0010C01E04FF0000C6D
:100D80006344224604EBD27C4FEA6C0C03FB0CF369
:100D900003F0FF09002520E006EB4600324901EB95
:100DA0008000475D4FF0000812E007F0800018B1A6
:100DB0002B480088029002E02A480088029002989E
:100DC00000F00CF97806070E08F1010000F0FF08AA
:100DD000B8F1060FE9DB681CC5B24D45DCDB38E035
:100DE000182C36D12001C11700EB5171C1F3C7098E
:100DF00000252CE006EB46001C4901EB0010475D86
:100E0000284605EBD0714910A5EB410111B9082026
:100E1000019001E0042001904FF0000812E007F07B
:100E2000800018B10E480088029002E00D4800884A
:100E30000290029800F0D2F87806070E08F101003F
:100E400000F0FF0801988045E9DB681CC5B24D45FC
:100E5000D0DB00BF18E70000922E000852460008C1
:100E600016000020180000201E2A00088234000806
:100E70002DE9FF5F074691461E460E9D4FF0000A82
:100E8000002435E0301B401EC1B20A20FFF7B8FE37
:100E9000B9FBF0F00A21B0FBF1F201FB1208BAF144
:100EA000000F14D1701EA04211DDB8F1000F0CD15B
:100EB000AB4605EBDB71491001FB047188B22B4690
:100EC00020220199FFF7CCFE10E04FF0010AAB465B
:100ED00005EBDB71491001FB047188B208F13001A8
:100EE000CAB22B460199FFF7BBFE00BF601CC4B21B
:100EF000B442C7DBBDE8FF9F2DE9F04704460D462D
:100F000090469946DDE9086704F0FF0A08EB040003
:100F10001FFA80F809EB05001FFA80F914E0444538
:100F200002DB5446A81985B24D4500DB12E03A7841
:100F3000334629462046FFF793FE304606EBD07134
:100F400004EB61018CB27F1C38787E2802DC387893
:100F50002028E4DA00BFBDE8F08700002DE9F04169
:100F600006460F4614461D46DDF818803019F02855
:100F700002DC7819F02801DDBDE8F0817819401E07
:100F800083B23019401E82B239463046FFF78AFCE0
:100F900001200549086004FB05F041004046FFF7C9
:100FA0003AFE00BFE8E70000BC82404201B50020E5
:100FB0000349086001216846FFF72DFE08BD0000C7
:100FC000BC82404201B50120034908600121684606
:100FD000FFF721FE08BD0000BC82404238B5044640
:100FE0000020009020128DF80000E0B28DF8010082
:100FF00001200349086002216846FFF70CFE38BD56
:10100000BC824042704700BFFEE7704770B50021C8
:1010100000230F22C4781CB3174C246804F4E06446
:10102000C4F5E064C4F30721C1F10404E3B20A414A
:1010300044789C40E1B28478144021430C07210E8F
:101040000E4C05786155047804F01F050124AC406E
:1010500005786D11AD0005F1E025C5F8004109E006
:10106000047804F01F050124AC40054D0678761184
:1010700045F8264070BD00000CED00E000E400E003
:1010800080E100E002490143024A1160704700001C
:101090000000FA050CED00E07047000029B1064A97
:1010A00012680243044B1A6004E0034A1268824348
:1010B000014B1A60704700003038024029B1064ADF
:1010C00012680243044B1A6004E0034A1268824328
:1010D000014B1A60704700004038024029B1064AAF
:1010E00012680243044B1A6004E0034A1268824308
:1010F000014B1A60704700002038024029B1064AAF
:1011000012680243044B1A6004E0034A12688243E7
:10111000014B1A60704700004438024029B1064A6A
:1011200012680243044B1A6004E0034A12688243C7
:10113000014B1A607047000024380240F0B50021CE
:1011400000220024022500260223324F3F6807F0C8
:101150000C0121B1042905D0082937D105E02E4F13
:10116000076036E02D4F076033E02A4F3F1F3F688E
:10117000C7F38056274F3F1F3F6807F03F036EB10C
:10118000264FB7FBF3F7DFF88CC0ACF1040CDCF8AA
:1011900000C0CCF3881C07FB0CF40CE01E4FB7FB1F
:1011A000F3F7DFF870C0ACF1040CDCF800C0CCF34E
:1011B000881C07FB0CF4174F3F1F3F68C7F301471C
:1011C0007F1C7D00B4FBF5F7076002E0124F07605B
:1011D00000BF00BF0F4F3F6807F0F0010909104F33
:1011E0007A5C0768D74047600A4F3F6807F4E051D0
:1011F000890A0B4F7A5C4768D7408760054F3F6884
:1012000007F46041490B064F7A5C4768D740C760D6
:10121000F0BD0000083802400024F40000127A00FB
:101220002800002000B587B001210220FFF736FF1B
:1012300001210803FFF762FF2820059002208DF8A6
:10124000180000208DF81A0003208DF819000120E5
:101250008DF81B0005A91F48FFF78AF90522032115
:101260001C48FFF7CDF9052211461A48FFF7C8F9C7
:1012700001210803FFF752FF00214FF48050FFF7D0
:101280004DFF0020ADF800004FF48270ADF8020071
:101290000020ADF804000220ADF806000120ADF8F2
:1012A00008004002ADF80A000020ADF80C00ADF8CF
:1012B0000E000720ADF810006946074800F066F8F8
:1012C0000121054800F048F8FF2000F007F807B0BA
:1012D00000BD0000000402400030014010B504468B
:1012E00000BF02210A4800F043F80028F9D0214647
:1012F000074800F049F800BF0121054800F038F820
:101300000028F9D0024800F03CF8C0B210BD00003F
:10131000003001402DE9F04105460E46002700242B
:1013200014E006E0781CC7B2C82F02DD0020BDE83B
:10133000F0810221074800F01BF80028F2D0295D57
:10134000044800F021F80027601C84B2B442E8DBB6
:101350000120ECE70030014021B1028842F0400258
:10136000028004E002884FF6BF731A400280704783
:101370000246002013890B400BB1012000E0002041
:1013800070470146888970478181704710B50022F7
:10139000028802F441520B884C8823438C882343F3
:1013A000CC8823430C8923434C8923438C892343D2
:1013B000CC8923431A430280838B4FF2FF7423406E
:1013C00083830B8A038210BD7047000022480068A7
:1013D00040F08050204908602048006840F44040B8
:1013E0001E4908601C48383800681B4938390860B5
:1013F0000846006808600846006840F480500860AD
:101400001748091F0860081F006840F08070091F16
:10141000086000BF10484038006800F000700028E5
:10142000F8D040F202700F4908600B483838006865
:1014300020F003000849383908600846006840F089
:101440000200086000BF04483838006800F00C0053
:101450000828F8D170470000403802400070004072
:1014600010640107003C0240042808D14FF0E0213D
:10147000096941F004014FF0E022116107E04FF0EB
:10148000E021096921F004014FF0E0221161704769
:101490007047000010B51548006840F4700013490B
:1014A00008601348006840F00100114908600020FE
:1014B0000F49083108600E4800680E4908400C4981
:1014C00008600D48091D0860081F006820F480208E
:1014D000091F0860002006490C310860FFF776FFFD
:1014E0004FF0006001498039086010BD88ED00E0D0
:1014F00000380240FFFFF6FE1030002408B501203E
:10150000009001226946002000F058FA0320009064
:1015100001226946002000F051FA032000F096FFF6
:1015200008BD38B5044600200090022269462046D6
:1015300000F01DFA9DF800009DF8011040EA012519
:10154000284638BD38B50446002501200090012208
:101550006946132000F00BFA9DF8000000F001002E
:10156000D8B11420FFF7DDFF20801620FFF7D9FF48
:1015700060801820FFF7D5FFA0801A20FFF7D1FF69
:10158000E0806088C012C002A188891240EA411040
:10159000E18840EAE125284638BD0020FCE738B55F
:1015A00004460120009001226946132000F0DFF973
:1015B0009DF8000000F0010078B11420FFF7B1FFA2
:1015C00020801620FFF7ADFF60801820FFF7A9FFED
:1015D000A0801A20FFF7A5FFE080002038BD0000A2
:1015E00010B502211048FFF737F80F48006820F0C7
:1015F00003000D4908600846006840F001000860DB
:1016000001210948FFF728F8022000F03BFF0221E2
:101610000548FFF723F8022000F034FF02210248BA
:10162000FFF71AF810BD0000000002401CB50121B0
:101630000846FFF733FD02208DF8050001208DF8E4
:1016400007008DF8040000208DF8060001200090AE
:1016500069460948FEF78CFF02200090694606485B
:10166000FEF786FF01210448FEF7F8FF0221024839
:10167000FEF7F4FF1CBD00000000024010B502217F
:101680001048FEF7E9FF0F48006820F003000D49FD
:1016900008600846006840F0010008600121094820
:1016A000FEF7DCFF022000F0EDFE02210548FEF708
:1016B000D5FF022000F0E6FE02210248FEF7CCFF33
:1016C00010BD0000000002402DE9F04107460D4624
:1016D00016469846002400F091F8012101EB4701DD
:1016E000C8B200F04FF800F0D5F800BF0DE0701E52
:1016F000A04204D1002000F011F8285503E0012099
:1017000000F00CF82855601CC4B2B442EFDBB8F10D
:10171000010F01D100F098F8BDE8F08170B50546E1
:1017200000241748006820F00300154908600846A7
:1017300000680860002618E002211148FEF78CFFBF
:10174000022000F09FFE02210D48FEF787FF600691
:10175000040E01210A48FEF776FF08B1601CC4B2EE
:10176000012000F08FFE701CC6B2082EE4DB15B914
:10177000FFF784FF01E0FFF733FF204670BD000054
:101780000000024070B5044600251B48006820F0A8
:101790000300194908600846006840F0010008602D
:1017A00002211548FEF758FF00BF21E00120B0EBF1
:1017B000D41F04D101211048FEF750FF03E001219E
:1017C0000D48FEF749FF6006040E022000F05AFEA5
:1017D00002210948FEF742FF022000F053FE0221D9
:1017E0000548FEF739FF022000F04CFE681CC5B228
:1017F000082DDBDB70BD00000000024010B5114871
:10180000006820F003000F4908600846006840F0B7
:101810000100086001210B48FEF720FF0221094862
:10182000FEF71CFF042000F02DFE01210548FEF705
:1018300013FF042000F026FE02210248FEF70CFFF1
:1018400010BD00000000024010B51148006820F0F3
:1018500003000F4908600846006840F00100086076
:1018600002210B48FEF7F8FE01210948FEF7F4FEBD
:10187000042000F007FE02210548FEF7EFFE0121DB
:101880000348FEF7EBFE042000F0FCFD10BD000055
:101890000000024010B500241548006820F0030045
:1018A0001349086008460068086001211048FEF7E7
:1018B000D5FE012000F0E6FD02210D48FEF7CEFE28
:1018C000012000F0DFFD07E0601CC4B2FA2C03DD4C
:1018D000FFF7BAFF012010BD01210548FEF7B3FE56
:1018E0000028F1D102210248FEF7B6FE0020F2E7FF
:1018F000000002402DE9F04105460E461746984685
:101900000024FFF77BFF002141EA4501C8B2FFF741
:1019100039FFFFF7BFFF00BF06E0305DFFF732FF82
:10192000FFF7B8FF601CC4B2BC42F6DBB8F1010F90
:1019300001D1FFF789FFBDE8F08108B500200090D4
:10194000FFF774FE01226946122000F010F89DF89E
:101950000000442809D19C2000F027F8032000F063
:101960001BF8FFF7CBFD012008BD0020FCE737B5D1
:101970000C4615469DF8000040F0800000900023C2
:10198000012269462920FFF7B5FF01232A46214697
:101990002920FFF799FE3EBD38B504460094012288
:1019A00069460F2000F00AF838BD38B504460094A7
:1019B00001226946104600F001F838BDFEB5064622
:1019C0000F4615460020009001900290002446F03A
:1019D00080008DF80000012405E0601E385C0DF8E1
:1019E0000400601CC4B2AC42F7DD681CC2B2012323
:1019F00069462920FFF77EFFFEBD000010B50121DA
:101A0000880700F016F930B10121880700F037F897
:101A100001200149088010BD1A0000207FB505464D
:101A20000C4601210846FFF749FB4FF0804000F0CB
:101A300035F80295ADF804400020ADF80C00ADF883
:101A4000060001A94FF0804000F00EF90122114676
:101A5000900700F0FFF81C208DF8000000208DF8A2
:101A6000010001208DF802008DF803006846FFF7A1
:101A7000CDFA00214FF0804000F004F87FBDCA434A
:101A80000282704721B1028842F00102028004E024
:101A900002884FF6FE731A400280704710B5044664
:101AA0005548844208D101210846FFF737FB002141
:101AB0000120FFF733FB9DE0B4F1804F08D10121F5
:101AC0000846FFF70BFB00210120FFF707FB91E021
:101AD0004A48844208D101210220FFF7FFFA002181
:101AE0000220FFF7FBFA85E04548844208D1012136
:101AF0000420FFF7F3FA00210420FFF7EFFA79E062
:101B00004048844208D101210820FFF7E7FA00216C
:101B10000820FFF7E3FA6DE03B48844208D1012139
:101B20001020FFF7DBFA00211020FFF7D7FA61E061
:101B30003648844208D101212020FFF7CFFA002146
:101B40002020FFF7CBFA55E03148844208D101212B
:101B50000220FFF7E3FA00210220FFF7DFFA49E055
:101B60002C48844209D101210804FFF7D7FA00214B
:101B70004FF48030FFF7D2FA3CE02748844209D185
:101B800001214804FFF7CAFA00214FF40030FFF7A3
:101B9000C5FA2FE02148844209D101218804FFF7CA
:101BA000BDFA00214FF48020FFF7B8FA22E01C486C
:101BB000844208D101214020FFF790FA0021402003
:101BC000FFF78CFA16E01748844208D101218020E3
:101BD000FFF784FA00218020FFF780FA0AE012481C
:101BE000844207D101218015FFF778FA0021A01562
:101BF000FFF774FA10BD000000000140000400402F
:101C000000080040000C004000100040001400409C
:101C100000040140004001400044014000480140F0
:101C200000180040001C0040002000400146486AA7
:101C3000704730B50246002000230024158A05EACB
:101C40000103958905EA010413B10CB1012000E0FC
:101C5000002030BD1AB183890B43838102E0838960
:101C60008B4383817047000000220288184B984202
:101C70000ED0184B98420BD0B0F1804F08D0164BC5
:101C8000984205D0154B984202D0154B984204D18A
:101C90004FF68F731A404B881A43124B984207D065
:101CA000114B984204D04FF6FF431A400B891A4358
:101CB00002804B68C3620B880385054B984202D0B3
:101CC000044B984201D18B7A0386012383827047AB
:101CD00000000140000401400004004000080040F2
:101CE000000C0040001000400014004010B540F20D
:101CF0002551164800F03EF810B3144800F0F4F8EF
:101D0000C4B22F2C0BD112491248FEF7BBFA0020A7
:101D100011490880C8210E48FEF7D8FA14E00A2CB1
:101D200012D00D2C10D00C480088C82809DA0848B9
:101D300009490988445408480088401C064908801D
:101D400002E000200449088010BD0000001001409E
:101D500038000020000100201400002021B18289F9
:101D600042F40052828104E082894DF6FF731A40EA
:101D70008281704770B502460024002300250020B0
:101D800040F66A16B14200D100BFC1F3421501F01E
:101D90001F03012606FA03F3012D02D19689334071
:101DA00006E0022D02D1168A334001E0968A3340C4
:101DB0000C12012606FA04F41688344013B10CB153
:101DC000012000E0002070BDF0B50346002400268D
:101DD0000025002040F66A17B94200D100BF18461E
:101DE000C1F3421401F01F06012707FA06F5012C82
:101DF00001D10C3004E0022C01D1103000E014308D
:101E00001AB107682F43076002E00768AF43076015
:101E1000F0BD00002DE9FF4705460E460024A1460F
:101E200000BFA046B08900B100BF2C8A24F4405402
:101E3000F08804432C82AC8941F20C608443B08862
:101E400031890843718908430443AC81AC8A24F486
:101E50004074B0890443AC826846FFF76FF92048AC
:101E6000854202D01F48854202D1DDF80C9001E086
:101E7000DDF80890A88900F4004040B109EBC900E2
:101E800000EB091031684900B0FBF1F707E009EBFE
:101E9000C90000EB091031688900B0FBF1F764203C
:101EA000B7FBF0F004012009642101FB1078A88938
:101EB00000F4004040B1322000EBC800B0FBF1F06C
:101EC00000F00700044308E0322000EB0810642112
:101ED000B0FBF1F000F00F0004432C81BDE8FF8758
:101EE000001001400014014001468888C0F308003A
:101EF000704700BFFEE7000010B500200F490860E2
:101F00000F48006820F440500D49086008460068FA
:101F100040F48050086000200A49C1F8980202206D
:101F200000F0B0FA012005490860022000F0AAFA8A
:101F300000200449C1F8A00210BD0000A0024142E7
:101F400000080240000041421CB501210220FFF7B9
:101F5000A5F84FF4A070009001208DF80400002037
:101F60008DF8060003208DF8050001208DF807008C
:101F700069460548FEF7FCFA012004490860044957
:101F8000C1F898021CBD000000080240A0024142B6
:101F90000000414210B500200F4908600F4800685A
:101FA00020F440500D4908600846006840F4805015
:101FB000086001200A49C1F89802022000F062FA84
:101FC000012005490860022000F05CFA0020044965
:101FD000C1F8A00210BD0000A0024142000802406A
:101FE0000000414270B5054600241648006820F400
:101FF000405014490860084600680860002616E052
:10200000002011490860022000F03CFA01200F492D
:10201000C1F8A0026006040E0B488838006808B1B9
:10202000601CC4B2012000F02DFA701CC6B2082E4C
:10203000E6DB15B9FFF7AEFF01E0FFF75DFF2046D5
:1020400070BD000000080240A00241420000414271
:1020500070B504461548006820F4405013490860E4
:102060000846006840F4805008600020104908606D
:10207000002517E0E0090E49083908606006040EE3
:10208000022000F0FFF901200A49C1F8A002022055
:1020900000F0F8F9002006490860022000F0F2F98B
:1020A000681CC5B2082DE5DB70BD000000080240C9
:1020B000A00241420000414210B50F48006820F4E0
:1020C00040500D4908600846006840F480500860A0
:1020D00001200A4908600A49C1F8A002042000F062
:1020E000D1F9002005490860042000F0CBF9002058
:1020F0000349C1F8A00210BD000802409802414205
:102100000000414210B50F48006820F440500D49CE
:1021100008600846006840F48050086000200A49C2
:1021200008600A49C1F89802042000F0ABF90120C8
:10213000054908600549C1F89802042000F0A2F999
:1021400010BD000000080240A002414200004142D0
:1021500010B500241348006820F44050114908606D
:1021600008460068086001200F49086000F08AF9FD
:1021700001200E49C1F8A00200F084F907E0601CBC
:10218000C4B2FA2C03DDFFF7BDFF012010BD0648E5
:10219000803800680028F2D103490831086000BF88
:1021A000F4E700000008024098024142000041426A
:1021B00010B5FFF7C9FE012000F064F900F0D5F872
:1021C000B4287CD1012140F2072000F0F3F801216E
:1021D0004FF4027000F0EEF80021962000F0EAF8CB
:1021E000FD21972000F0E6F80021E32000F0E2F85E
:1021F0000421E42000F0DEF80221E52000F0DAF806
:102200000121E62000F0D6F80321E72000F0D2F803
:102210000221F52000F0CEF80521D92000F0CAF8FF
:10222000CE21DB2000F0C6F80321DC2000F0C2F84C
:10223000F821DD2000F0BEF800219F2000F0BAF860
:102240003C21A32000F0B6F80021B72000F0B2F83E
:102250003C21BB2000F0AEF80921B22000F0AAF822
:102260000921CA2000F0A6F801214FF4CC7000F03B
:10227000A1F817214FF4D87000F09CF8002140F22B
:10228000AD1000F097F80521FF2000F093F805212C
:102290004FF4807000F08EF8052140F2991000F0A4
:1022A00089F81B214FF4D37000F084F83E214FF4DD
:1022B000D67000F07FF81F2140F2A71000E02CE05C
:1022C00000F078F80021302000F074F8102111207F
:1022D00000F070F830214FF4857000F06BF8462163
:1022E0003F2000F067F8FF21312000F063F8632100
:1022F000402000F05FF801212E2000F05BF809215A
:102300001B2000F057F831213E2000F053F8242123
:10231000142000F04FF8002010BD0120FCE72DE94B
:10232000F04104462612E7B2FFF7C6FE5220FFF73F
:102330008FFEFFF70DFF3046FFF78AFEFFF708FF1D
:102340003846FFF785FEFFF703FFFFF7B5FE532082
:10235000FFF77EFEFFF7FCFE0020FFF743FE054679
:10236000FFF7D0FE2846BDE8F08110B50020FFF74A
:10237000D6FF10BD10B5002400BF4D20FFF7CFFFE2
:1023800000F001000028F8D00121182000F012F818
:1023900000BF4F20FFF7C3FF00F004000028F8D073
:1023A0006220FFF7BCFF04460721152000F002F869
:1023B000204610BD2DE9F04104460D462612E7B235
:1023C000FFF77AFE5220FFF743FEFFF7C1FE20B170
:1023D000FFF798FE0120BDE8F0813046FFF738FE98
:1023E000FFF7B6FE3846FFF733FEFFF7B1FE28468B
:1023F000FFF72EFEFFF7ACFE18B1FFF783FE0120BA
:10240000E9E7FFF77FFE0020E5E700BF7047000027
:1024100010B504466FF00400FFF726F8E11704EB4F
:102420005171C1F3C701074A11701046007800EBE3
:102430004001C1EBC0104FF6FF7101EAC000024934
:10244000088010BD0C0000200E00002070B504466E
:102450004FF4077094FBF0F0C6B24FF4077094FB92
:10246000F0F100FB114085B205E04FF4077000F079
:102470002FF8701EC6B2002EF7D115B1284600F015
:1024800027F870BD0146114A12784A434FF0E02305
:102490005A6100229A611A46126942F001021A61D9
:1024A00000BF4FF0E022106900F001021AB100F401
:1024B0008032002AF5D04FF0E022126922F00102AA
:1024C0004FF0E0231A6100229A6170470C0000204F
:1024D0000146114A12884A434FF0E0235A61002214
:1024E0009A611A46126942F001021A6100BF4FF068
:1024F000E022106900F001021AB100F48032002AD3
:10250000F5D04FF0E022126922F001024FF0E023F3
:102510001A6100229A6170470E00002000BF054A30
:10252000128802F04002002AF9D0C2B2014B9A8010
:1025300070470000001001401CB500BF00250024BA
:10254000002600274FF4A060FEF79CFDA820FFF7AF
:102550005FFF4FF4E13000F0C7F840F2A31141F201
:102560008830FFF75BFAFEF74DFDFEF77BFAFFF7C9
:10257000E4F9FFF71DFEFDF77DFFFEF771F8FEF7AA
:1025800009F91F20FEF7B8F900210846FDF764FF9E
:102590006420FFF75BFF8AE0FFF7ECFE4448FEF79C
:1025A000FEFF4348FEF7CEFF0546FEF773F80646EA
:1025B000FEF7CAF807463FA0FDF758FE052C0FDAD4
:1025C0000020FDF78BFF4FF4FA60FFF73FFF02207A
:1025D000FDF784FF4FF4FA60FFF738FF601CC4B2C8
:1025E0001020009032484288052300210846FEF75B
:1025F0003FFC102000902E488288052300213220C5
:10260000FEF736FC102000902948C28805230021DF
:102610006420FEF72DFC29A010210B467822CDE97D
:10262000001032210020FEF767FC102005233246FF
:10263000322100907820FEF71BFC23A010210B46CE
:102640007822CDE9001046210020FEF755FC10202D
:1026500005233A46462100907820FEF709FC1DA08C
:1026600010210B467822CDE9001011460020FEF71C
:1026700043FC96231A46782108460095FEF772F926
:102680004FF6FF70D823F022C82100900020FEF7FB
:1026900069F9144810210B46C822CDE900101146F3
:1026A0000020FEF729FC4FF47A70FFF7CFFE73E7A6
:1026B0000000002053746172740000004469737458
:1026C000616E63653A2000005765696768743A2057
:1026D0000000000043757272656E7420436F6C6F6A
:1026E000723A20000001002010B588B00446012194
:1026F0000846FEF7D3FC01211020FEF7FFFC07225D
:1027000009212248FDF77CFF07220A211F48FDF717
:1027100077FF4FF4C060069002208DF81C008DF802
:102720001D0000208DF81E0001208DF81F0006A955
:102730001648FDF71DFF02940020ADF80C00ADF81F
:102740000E00ADF81000ADF814000C20ADF812002A
:1027500002A90F48FFF75EFB01210D48FFF7FEFAC3
:10276000012240F225510A48FFF72EFB25208DF863
:10277000040003208DF805008DF8060001208DF877
:10278000070001A8FEF742FC08B010BD000002409F
:10279000001001404FEA41034FEA5353A3F5806311
:1027A000D3F11E03C8BFD3F1210C0CDD4FF0004262
:1027B00042EAC12242EA505232FA03FC8CEAE17C3E
:1027C000ACEBE1707047102BC4BF0020704703F5DD
:1027D000787CBCF1FF3F04D06FF0004282EA210018
:1027E000704770B500F0C2F849922480002070470D
:1027F000F2E7B0FA80F310FA03F10AD0C3F11D0337
:1028000003F580634FEA41504FEA035202EBD121B6
:1028100070474FF000007047DFF848C170B51CEA00
:10282000111E1EBF1CEA13159EEA0C0F95EA0C0F31
:1028300000F06F8081EA030423EA4C134EEAD47E51
:1028400021EA4C1141F4801143F48013AE44A1FB02
:10285000024CA0FB0365AEF17F7E361955EB0C05EB
:10286000A1FB034C4CF10003A0FB021C16EB0C0671
:10287000654153F10003094218BF46F0010613F405
:10288000007F0BD14FEA03314FEA0530340341EAB0
:10289000155140EA16506FF003020AE04FEAC321D7
:1028A0004FEAC520F40241EA555140EA56506FF014
:1028B000020202EB2E4201EB025585EACE710AD0EC
:1028C0005FEA440C18BF24F0004450F1000041F1CD
:1028D000000120EAD47040F2FE7C624500D270BD57
:1028E000A84214BF4FF080444FF04044002E08BF70
:1028F0000024BEF1806FA8BFA1F1C041BDE87040C7
:1029000080F282804FF0000001F1C04101F00041EF
:1029100070479EEA0C0F0CEA131518BF95EA0C0FCE
:1029200006D04FF0000081EA030E0EF0004170BDAA
:1029300000F01CF88900013E00F007B800F009B86B
:102940004FEA430C5FEA5C5C08D081EA030100F0C7
:102950005BB84FEA410C5FEA5C5CF6D14FF00000D7
:10296000014970470000FF070000F87F0EF1020EDA
:102970002EF0030E5EF8046B364205D4012A43EBB9
:10298000030515F5001F12D8012841EB010C1CF5B9
:10299000001F0CD80ED14FEAD17C15F5001F0CEBAF
:1029A0004C0C0CF1020C08BF4CEBD37C04E04FF054
:1029B000080C01E04FEAD37C0CEB4C0526FA05F637
:1029C00006F00706B6F1040C06D20EEB860CBDE845
:1029D00070404CF0010C6047DFE80CF0090B02027C
:1029E0004FF000414FF00000A1F5002170BD1946E5
:1029F0001046012851EB010418BFD4F5001484BF20
:102A0000002001F0004170BD0808A0F500114FEA58
:102A1000310170474FF04070E1EE100A704700003E
:102A20000000000000000000000000002020202026
:102A300020000020000028285000000000000000B6
:102A4000000000005050F85050F850500000002096
:102A500070A8A0603028A8702000000048A8B0A886
:102A600074345448000000002050506CA8A89468AA
:102A7000000040408000000000000000000008103E
:102A800010202020202010100800402020101010BE
:102A900010102020400000000020A87070A8200026
:102AA000000000000010107C10100000000000006A
:102AB000000000000000404080000000000000FC1A
:102AC00000000000000000000000000000000040C6
:102AD0000000000408081010202040408000000082
:102AE0007088888888888870000000002060202016
:102AF000202020700000000070888810204080F89E
:102B0000000000007088083008088870000000008D
:102B10001030305090F8103800000000F88080F03D
:102B20008808887000000000304880B0C88888702D
:102B30000000000078081010202020200000000075
:102B40007088887088888870000000007088889875
:102B500068089060000000000000200000000020D5
:102B60000000000000000020000000202000000005
:102B70000810204040201008000000000000FC0069
:102B8000FC00000000000000402010080810204059
:102B90000000000070888810202000200000000045
:102BA000384494B4B4B844380000000020203050B9
:102BB000507848CC00000000F0484870484848F081
:102BC000000000007888808080808870000000000D
:102BD000F0484848484848F000000000F848507065
:102BE000504048F800000000F8485070504040E065
:102BF00000000000384880809C88483000000000B9
:102C0000CC484878484848CC00000000F8202020F4
:102C1000202020F8000000007C1010101010101070
:102C200090E00000EC485060504848EC0000000084
:102C3000E0404040404044FC00000000DCD8D8D8D0
:102C4000A8A8A8AC00000000DC486868585848E80C
:102C50000000000070888888888888700000000064
:102C6000F0484870404040E00000000070888888CC
:102C700088E8987018000000F0484870504848EC08
:102C80000000000078888060100888F000000000D4
:102C9000F8A820202020207000000000CC484848E0
:102CA0004848483000000000CC48485050302020B0
:102CB00000000000A8A8A8A8705050500000000014
:102CC000D8505020205050D800000000D85050500C
:102CD0002020207000000000F8901020204048F8CC
:102CE0000000382020202020202020203800004014
:102CF0004020202010101008080070101010101034
:102D000010101010700020500000000000000000A3
:102D100000000000000000000000000000FC402057
:102D20000000000000000000000000000000003073
:102D30004838483C000000C0404040704848487057
:102D40000000000000000038484048300000001833
:102D5000080808384848483C0000000000000030DF
:102D6000487840380000001824202078202020785F
:102D7000000000000000003C48304038443800C0EB
:102D800040404070484848EC0000002020000060AF
:102D900020202070000000101000003010101010D3
:102DA00010E000C040404058506050C8000000E0B3
:102DB00020202020202020F800000000000000F04B
:102DC000A8A8A8A800000000000000F0484848ECAF
:102DD00000000000000000304848483000000000BB
:102DE000000000F04848487040E000000000003853
:102DF00048484838081C0000000000D8604040E007
:102E0000000000000000007840300878000000005A
:102E1000002020782020203800000000000000D88A
:102E20004848483C00000000000000D850502020D6
:102E300000000000000000A8A87050500000000032
:102E4000000000D8502050D800000000000000CC46
:102E50004848301020C00000000000781020207882
:102E60000000181010101030101010101800101062
:102E700010101010101010101010602020202010C2
:102E8000202020206000689000000000000000006A
:102E90000000000000000000000000000000000032
:102EA0000000000000101010101010100000101092
:102EB0000000001224244800000000000000000070
:102EC00000000000001212127E2424247E242424F8
:102ED00000000000083C4A4A48380C0A0A4A4A3CAA
:102EE000080800000044A4A8A8B0541A2A2A4A449A
:102EF000000000000030484848506EA4949889763D
:102F000000000060202040000000000000000000E1
:102F10000000000204080810101010101008080427
:102F200002000040201010080808080808101020AF
:102F30004000000000001010D63838D610100000F5
:102F4000000000000000000808087F0808080000D2
:102F500000000000000000000000000000006020F1
:102F6000204000000000000000007E000000000083
:102F70000000000000000000000000000000606091
:102F80000000000002040404080810101020204073
:102F900040000000001824424242424242422418AB
:102FA0000000000000083808080808080808083E63
:102FB00000000000003C4242420204081020427E11
:102FC00000000000003C4242020418040242423C5D
:102FD0000000000000040C0C142424447F04041F8F
:102FE00000000000007E4040407844020242443825
:102FF0000000000000182440405C62424242221C53
:1030000000000000007E4204040808101010101098
:1030100000000000003C4242422418244242423C4C
:1030200000000000003844424242463A020224189E
:103030000000000000000000181800000000181830
:103040000000000000000000001000000000001060
:103050001010000000020408102040201008040294
:1030600000000000000000007E00007E0000000064
:103070000000000000402010080402040810204056
:1030800000000000003C42426204080808001818D2
:10309000000000000038445AAAAAAAAAAA5C423C2E
:1030A00000000000001010182828243C444242E789
:1030B0000000000000F8444444784442424244F88E
:1030C00000000000003E4242808080808042443800
:1030D0000000000000F8444242424242424244F8AA
:1030E0000000000000FC424848784848404242FC4A
:1030F0000000000000FC424848784848404040E05A
:1031000000000000003C44448080808E84444438A9
:103110000000000000E7424242427E42424242E753
:1031200000000000007C1010101010101010107C17
:1031300000000000003E0808080808080808080801
:1031400088F0000000EE444850705048484444EE77
:103150000000000000E0404040404040404042FE4F
:103160000000000000EE6C6C6C6C6C54545454D62F
:103170000000000000C7626252524A4A4A4646E2D4
:1031800000000000003844828282828282824438B9
:103190000000000000FC424242427C40404040E0CF
:1031A00000000000003844828282828282B24C3861
:1031B0000600000000FC4242427C4848444442E38E
:1031C00000000000003E4242402018040242427CBF
:1031D0000000000000FE92101010101010101038A7
:1031E0000000000000E74242424242424242423C6A
:1031F0000000000000E74242442424282818101050
:103200000000000000D654545454546C2828282838
:103210000000000000E7422424181818242442E784
:103220000000000000EE4444282810101010103850
:1032300000000000007E840408081020204242FCA8
:103240000000001E101010101010101010101010A0
:103250001E00000040202020101010080804040464
:103260000202007808080808080808080808080882
:10327000780000182400000000000000000000009A
:10328000000000000000000000000000000000003E
:1032900000FF0060100000000000000000000000BF
:1032A00000000000000000000038440C34444C369C
:1032B000000000000000C040405864424242645890
:1032C0000000000000000000001C22404040221CC2
:1032D0000000000000000602023E42424242463B1D
:1032E0000000000000000000003C42427E40423CE2
:1032F0000000000000000C12107C10101010107C58
:103300000000000000000000003E444438403C4201
:10331000423C00000000C040405C6242424242E742
:103320000000000000303000007010101010107C01
:1033300000000000000C0C00001C04040404040441
:10334000447800000000C040404E4850704844EEB1
:103350000000000000107010101010101010107CF1
:10336000000000000000000000FE4949494949ED05
:10337000000000000000000000DC6242424242E720
:103380000000000000000000003C42424242423C7B
:10339000000000000000000000D86442424264586F
:1033A00040E0000000000000001A26424242261AB7
:1033B000020700000000000000EE3220202020F86C
:1033C0000000000000000000003E42403C02427C41
:1033D0000000000000000010107C10101010120CF3
:1033E000000000000000000000C642424242463B8E
:1033F000000000000000000000EE444428281010E7
:10340000000000000000000000DB894A5A54242418
:103410000000000000000000007624181818246E38
:10342000000000000000000000E7422424181810EB
:103430001060000000000000007E44081010227E92
:103440000000000304040404040408040404040445
:1034500003000808080808080808080808080808F9
:10346000080800C02020202020201020202020201C
:10347000C000205A0400000000000000000000000E
:10348000000000000000000000000000000000003C
:10349000000000000000000000000000000000002C
:1034A000000000000000000000000000000000001C
:1034B00000000000000000000000060006000600FA
:1034C00006000600060006000200040004000400D6
:1034D00000000000000006000600060000000000DA
:1034E000000000000000066006600CC0198011009A
:1034F00022000000000000000000000000000000AA
:1035000000000000000000000000000000000000BB
:1035100000000000000000000000084008400840D3
:1035200008407FE07FE01040108010801080108005
:103530007FE07FE02080208020802080000000004D
:103540000000000000000000020002000F801AC00E
:1035500032C033C032001A000E000700038003801F
:1035600002C032C03AC032C012800F000200020016
:103570000000000000000000000070805080890002
:10358000890089008A008A005C0075C005400A2015
:103590000A20122012201220214021C00000000029
:1035A000000000000000000000001C003600360093
:1035B000360036003600340019E038805880CC8060
:1035C000CC80C680C700C31063903CE000000000C0
:1035D0000000000000003000380008000800100063
:1035E00020000000000000000000000000000000BB
:1035F00000000000000000000000000000000000CB
:1036000000000000000000200040008001000100D8
:10361000020002000400040004000400040004008E
:1036200004000200020001000100008000400020B0
:10363000000000000000400020001000080008000A
:103640000400040002000200020002000200020066
:1036500002000400040008000800100020004000E0
:103660000000000000000000000000000000020058
:1036700003000200623072F00B800F807AF062303B
:103680000200020002000000000000000000000034
:10369000000000000000000000000000000000002A
:1036A000020002000200020002007FF0020002009D
:1036B0000200020002000000000000000000000004
:1036C00000000000000000000000000000000000FA
:1036D00000000000000000000000000000000000EA
:1036E0000000000000003000380008000800100052
:1036F00020000000000000000000000000000000AA
:10370000000000000000000000007FE0000000005A
:1037100000000000000000000000000000000000A9
:103720000000000000000000000000000000000099
:103730000000000000000000000000000000000089
:1037400000000000000038003800380000000000D1
:1037500000000000000000200060004000C0008069
:1037600000800100010002000200060004000400C5
:103770000800080010001000300020006000400029
:103780000000000000000000000000000F00198091
:1037900030C030C0606060606060606060606060C9
:1037A0006060606030C030C019800F000000000011
:1037B00000000000000000000000000002003E00C9
:1037C00006000600060006000600060006000600C9
:1037D000060006000600060006003FC000000000CC
:1037E0000000000000000000000000001F00218019
:1037F00040C060C060C000C00080018003000600BF
:10380000040008001040204060407FC0000000001D
:103810000000000000000000000000001E00630027
:10382000618061800180018003000E0001800080C2
:1038300000C000C060C060C061801F0000000000C8
:103840000000000000000000000000000180018076
:1038500003800580058009801180118021804180CE
:103860007FF0018001800180018007E000000000FE
:103870000000000000000000000000003FC0200029
:1038800020002000200020002F00318020C000C038
:1038900000C060C060C0418021801F0000000000A7
:1038A000000000000000000000000000078018C0B9
:1038B00030C0300020006000678068C070606060C9
:1038C000606060602060304018C00F0000000000A1
:1038D0000000000000000000000000001FE0306059
:1038E00020402080008000800100010002000200D2
:1038F00002000600060006000600060000000000A8
:103900000000000000000000000000001F8030C028
:10391000606060606060304038C00F00138030C06D
:10392000606060606060606030C00F800000000018
:103930000000000000000000000000000F003080C8
:1039400030C0604060606060606060E031601E6058
:10395000006000C000C0308031801E000000000008
:103960000000000000000000000000000000000057
:103970000000000000000700070007000000000032
:103980000000000000000700070007000000000022
:103990000000000000000000000000000000000027
:1039A000000000000000060006000000000000000B
:1039B00000000000000000000600060002000400F5
:1039C0000400000000000000000000200040008013
:1039D0000100020004000800100020001000080090
:1039E00004000200010000800040002000000000F0
:1039F00000000000000000000000000000000000C7
:103A00000000000000007FE00000000000007FE0F8
:103A100000000000000000000000000000000000A6
:103A2000000000000000000000002000100008005E
:103A300004000200010000800040002000400080DF
:103A40000100020004000800100020000000000037
:103A500000000000000000000000000007C0186027
:103A6000203020303030303000E001800200020091
:103A7000020000000000070007000700000000002F
:103A800000000000000000000000070018C03040E7
:103A900033A026A066A065A06D206D206D206D204E
:103AA0006D4027803020304018C00F00000000001B
:103AB00000000000000000000000000006000600FA
:103AC0000A000B00090009001100118010801F80FE
:103AD00020C020C0204040404060F0F000000000C6
:103AE0000000000000000000000000007F0031C066
:103AF00030C030C030C030C031803F0030C03040B6
:103B0000306030603060306030C07F800000000086
:103B100000000000000000000000000007C018C006
:103B20003060302020206000600060006000600095
:103B3000600060203020304018C00F0000000000FE
:103B4000000000000000000000000000FE003180C6
:103B500030C030C030603060306030603060306025
:103B60003060306030C030C03180FE0000000000A6
:103B7000000000000000000000000000FFC060C066
:103B8000602060206000610061007F0061006100D2
:103B900061006000602060206040FFC00000000005
:103BA000000000000000000000000000FFC060C036
:103BB000602060206000610061007F0061006100A2
:103BC00061006000600060006000F800000000001C
:103BD0000000000000000000000000000F0018803E
:103BE000304030402040600060006000600063F0C2
:103BF00060C060C030C030C018C00F0000000000BE
:103C0000000000000000000000000000F0F0606014
:103C1000606060606060606060607FE06060606005
:103C200060606060606060606060F0F000000000F4
:103C30000000000000000000000000003FC006007F
:103C40000600060006000600060006000600060044
:103C5000060006000600060006003FC00000000047
:103C60000000000000000000000000001FE0030052
:103C7000030003000300030003000300030003002C
:103C80000300030003000300030003006300660059
:103C90003C0000000000000000000000F3C0618054
:103CA00063006200640068006C00740076006200CB
:103CB000630061006180608060C0F1E0000000008E
:103CC000000000000000000000000000F80060009C
:103CD00060006000600060006000600060006000E4
:103CE00060006000602060206040FFC000000000B5
:103CF000000000000000000000000000E0E061C0E3
:103D000061C071C071C072C072C052C05AC05AC086
:103D10005CC04CC04CC04CC048C0E1E0000000009A
:103D200000000000000000000000000071F03040C2
:103D3000384038402C402C4026402640224023402A
:103D4000214021C021C020C020C0F8400000000058
:103D50000000000000000000000000000F001980BB
:103D600030C0304060606060606060606060606073
:103D700060606060304030C019800F0000000000BB
:103D8000000000000000000000000000FF0060C014
:103D90006060606060606060606061C07F00600063
:103DA00060006000600060006000F800000000003B
:103DB0000000000000000000000000000F0019805B
:103DC00030C0304060606060606060606060606013
:103DD00060606E60324033C019800F0001E000C0A7
:103DE000000000000000000000000000FF8060C034
:103DF000606060606060606060C07F00620063005F
:103E00006100618060C060C06060F0700000000010
:103E10000000000000000000000000001F4030C053
:103E200060406040600070003C001F0007C001C09F
:103E300000E040604060606030C00F800000000023
:103E40000000000000000000000000007FE04620AD
:103E50008610861006000600060006000600060012
:103E6000060006000600060006001F800000000095
:103E700000000000000000000000000078E030407A
:103E800030403040304030403040304030403040B2
:103E9000304030403040304018800F0000000000BB
:103EA000000000000000000000000000F0E06040A2
:103EB000208020803080308011001100190019000E
:103EC0000A000A000E000C000400040000000000BC
:103ED000000000000000000000000000EF7046201D
:103EE0004220622062202640264027402740394059
:103EF0003980198019801180110011000000000024
:103F000000000000000000000000000079E03080A8
:103F10001080188009000D0006000400060006004D
:103F20000B0009001180108020C071E0000000002B
:103F3000000000000000000000000000F0F0602021
:103F400020403040108018801D000D000E0006003B
:103F5000060006000600060006001F8000000000A4
:103F60000000000000000000000000003FE03040C2
:103F700060C04080018001000200020004000400D3
:103F8000080018001020302020407FC000000000F2
:103F900000000000000007C004000400040004004A
:103FA00004000400040004000400040004000400F1
:103FB000040004000400040004000400040007C01E
:103FC00000000000000000000000200020001000A1
:103FD00010000800080008000400040002000200AD
:103FE000030001000100008000800040004000400C
:103FF0000020000000003E0002000200020002005B
:1040000002000200020002000200020002000200A0
:1040100002000200020002000200020002003E0054
:1040200000000000060009001080000000000000F1
:104030000000000000000000000000000000000080
:104040000000000000000000000000000000000070
:104050000000000000000000000000000000000060
:104060000000000000000000000000000000000050
:104070000000000000000000000000000000000040
:10408000FFF0000000001800060000000000000023
:104090000000000000000000000000000000000020
:1040A0000000000000000000000000000000000010
:1040B0000000000000000000000000000000000000
:1040C0000000000000000F8030C030C000C007C0FA
:1040D00038C070C060C060C071D03E700000000089
:1040E0000000000000000000000010007000300020
:1040F00030003000300033803CC0386030603060C9
:10410000306030603060304038C0278000000000F0
:10411000000000000000000000000000000000009F
:104120000000000000000F003180318061806000DD
:10413000600060006040304030800F0000000000F0
:1041400000000000000000000000004003C000C0AC
:1041500000C000C000C01EC031C030C060C060C020
:1041600060C060C060C020C031E01E800000000060
:10417000000000000000000000000000000000003F
:10418000000000000000078018C010403060306060
:104190003FE0300030001820184007800000000089
:1041A00000000000000000000000000003C00660E6
:1041B0000C600C000C007F800C000C000C000C004C
:1041C0000C000C000C000C000C003F8000000000F4
:1041D00000000000000000000000000000000000DF
:1041E0000000000000000FE01B6031803180318052
:1041F00019801F0030003F0033C060C060C071C034
:104200001F000000000000000000100070003000DF
:10421000300030003000378038C030C030C030C08F
:1042200030C030C030C030C030C079E00000000085
:104230000000000000000000000000000600060072
:104240000000000002003E00060006000600060016
:10425000060006000600060006003FC00000000041
:104260000000000000000000000000000380038048
:104270000000000000800F8001800180018001802B
:104280000180018001800180018001800180330074
:104290003E00000000000000000010007000300030
:1042A00030003000300031C03100310032003600C3
:1042B0003A0031003180308030C079E000000000E9
:1042C0000000000000000000000002003E000600A8
:1042D00006000600060006000600060006000600AE
:1042E000060006000600060006003FC000000000B1
:1042F00000000000000000000000000000000000BE
:10430000000000000000ECE07760666066606660B8
:1043100066606660666066606660FFF000000000D0
:10432000000000000000000000000000000000008D
:10433000000000000000778038C030C030C030C0BE
:1043400030C030C030C030C030C079E00000000064
:10435000000000000000000000000000000000005D
:104360000000000000000F00198030C06060606035
:1043700060606060606030C030C00F00000000000E
:10438000000000000000000000000000000000002D
:10439000000000000000778038C03060306030607E
:1043A00030603060306030C038C03780300030005E
:1043B0007C00000000000000000000000000000081
:1043C0000000000000001E4031C030C060C060C06E
:1043D00060C060C060C020C031C01EC000C000C04E
:1043E00003E00000000000000000000000000000EA
:1043F000000000000000F9C01A601C6018001800DE
:1044000018001800180018001800FF000000000035
:10441000000000000000000000000000000000009C
:104420000000000000000FC038C0304030401C00C9
:104430000F0003C020C020C031C03F80000000003A
:104440000000000000000000000000000000040068
:1044500004000C000C007F800C000C000C000C0011
:104460000C000C000C000C400C4007800000000009
:10447000000000000000000000000000000000003C
:1044800000000000104071C030C030C030C030C0EB
:1044900030C030C030C030C039E01E8000000000A5
:1044A000000000000000000000000000000000000C
:1044B00000000000000078E030401080108018807C
:1044C00009000D000D0006000600040000000000B9
:1044D00000000000000000000000000000000000DC
:1044E000000000000000EF704620622026402640B9
:1044F00037403980198019801980100000000000B1
:1045000000000000000000000000000000000000AB
:104510000000000000003DE0188008800D0006004B
:10452000060007000900108010C079E000000000BC
:10453000000000000000000000000000000000007B
:1045400000000000000079E0108010801080090059
:1045500009000D0006000600060004000400240007
:104560003800000000000000000000000000000013
:104570000000000000003F80218023002200060090
:1045800004000C001840104030C03F8000000000C4
:1045900000000000000000C0010001000100010057
:1045A00001000100010001000200040002000100FE
:1045B000010001000100010001000100010000C034
:1045C00000000200020002000200020002000200DD
:1045D00002000200020002000200020002000200CB
:1045E00002000200020002000200020002000200BB
:1045F0000200000000003000080008000800080069
:104600000800080008000800040002000400080078
:104610000800080008000800080008000800300032
:104620000000000038004420432001C000000000CA
:10463000000000000000000000000000000000007A
:10464000000000000000000000000000000000006A
:10465000000000000000000000000000000000005A
:10466000000000000000000000000000000000004A
:10467000000000000000000000000000000000003A
:10468000000000000000000000000000000000002A
:10469000000000000000000000000000000000001A
:1046A000000000000000000000000000000000000A
:1046B00000000000000000000000000000000000FA
:1046C00000000000000000000000000000000000EA
:1046D000000000000000000000000000000003C017
:1046E00003C003C003C003C003C001C00180018038
:1046F00001800180018001800180018000000000B4
:104700000000018003C003C0018000000000000021
:104710000000000000000000000000000000000099
:104720000000000000000000000000000000000089
:104730000000000000000000000000000000000079
:104740000000000000000000000000000000000069
:104750000000000000000318073807380E700C60D6
:1047600018C031802100000000000000000000009F
:104770000000000000000000000000000000000039
:104780000000000000000000000000000000000029
:104790000000000000000000000000000000000019
:1047A0000000000000000000000000000000000009
:1047B00000000000000000000000000000000000F9
:1047C00000000000000000000000000000000000E9
:1047D00000000000000000000000000000000408CD
:1047E00004080408040804087FFE7FFE7FFE08100A
:1047F000081008100810081008107FFE7FFE7FFECA
:1048000018301020102010201020000000000000A0
:104810000000000000000000000000000000000098
:104820000000000000000000000000000000000088
:104830000000000000000000000000000000000078
:104840000000000000000000000000000000000068
:10485000000000000000000000000100010003C093
:104860000D3009181918193819381D000D000F00DE
:10487000070003C001E001F00130013801183918C8
:10488000391831183130196007C0010001000100EA
:104890000000000000000000000000000000000018
:1048A0000000000000000000000000000000000008
:1048B00000000000000000000000000000000000F8
:1048C00000000000000000000000000000000000E8
:1048D0000000000000000000000000000000381090
:1048E0006C104420C620C640C640C640C680C68064
:1048F00044806D38396C024402C602C604C604C640
:1049000008C608C60844106C1038000000000000FB
:104910000000000000000000000000000000000097
:104920000000000000000000000000000000000087
:104930000000000000000000000000000000000077
:104940000000000000000000000000000000000067
:1049500000000000000000000000000000000F0048
:1049600019003180318031803180310033003A00CC
:104970001C00387C3C104C10CE10C620C720C32031
:10498000C1C0C1C260E6317C1E38000000000000DA
:104990000000000000000000000000000000000017
:1049A0000000000000000000000000000000000007
:1049B00000000000000000000000000000000000F7
:1049C00000000000000000000000000000000000E7
:1049D00000000000000038003C003C000C000C000F
:1049E000080030006000000000000000000000002F
:1049F00000000000000000000000000000000000B7
:104A000000000000000000000000000000000000A6
:104A10000000000000000000000000000000000096
:104A20000000000000000000000000000000000086
:104A30000000000000000000000000000000000076
:104A40000000000000000000000000000000000066
:104A50000000000000000002000400080018003000
:104A600000200060004000C000C001800180018083
:104A700001800180018001800180018000C000C0B0
:104A80000040006000200030001800080004000210
:104A90000000000000000000000000000000000016
:104AA0000000000000000000000000000000000006
:104AB00000000000000000000000000000000000F6
:104AC00000000000000000000000000000000000E6
:104AD00000000000000040002000100018000C0042
:104AE0000400060002000300030001800180018031
:104AF00001800180018001800180018003000300AA
:104B00000300060004000C00180010002000400004
:104B10000000000000000000000000000000000095
:104B20000000000000000000000000000000000085
:104B30000000000000000000000000000000000075
:104B40000000000000000000000000000000000065
:104B50000000000000000000000000000000000055
:104B6000000000C001C001C030C6388E1C9C06B0D9
:104B700001C001C006B01C9C388E318601C001C046
:104B800001C0000000000000000000000000000064
:104B90000000000000000000000000000000000015
:104BA0000000000000000000000000000000000005
:104BB00000000000000000000000000000000000F5
:104BC00000000000000000000000000000000000E5
:104BD00000000000000000000000000000000000D5
:104BE00000000000008000800080008000800080C5
:104BF00000803FFE008000800080008000800080F8
:104C00000080000000000000000000000000000024
:104C10000000000000000000000000000000000094
:104C20000000000000000000000000000000000084
:104C30000000000000000000000000000000000074
:104C40000000000000000000000000000000000064
:104C50000000000000000000000000000000000054
:104C60000000000000000000000000000000000044
:104C70000000000000000000000000000000000034
:104C8000000038003C003C000C000C000800300024
:104C900060000000000000000000000000000000B4
:104CA0000000000000000000000000000000000004
:104CB00000000000000000000000000000000000F4
:104CC00000000000000000000000000000000000E4
:104CD00000000000000000000000000000000000D4
:104CE00000000000000000000000000000000000C4
:104CF00000007FFE00000000000000000000000037
:104D000000000000000000000000000000000000A3
:104D10000000000000000000000000000000000093
:104D20000000000000000000000000000000000083
:104D30000000000000000000000000000000000073
:104D40000000000000000000000000000000000063
:104D50000000000000000000000000000000000053
:104D60000000000000000000000000000000000043
:104D70000000000000000000000000000000000033
:104D8000000018003C003C0018000000000000007B
:104D90000000000000000000000000000000000013
:104DA0000000000000000000000000000000000003
:104DB00000000000000000000000000000000000F3
:104DC00000000000000000000000000000000000E3
:104DD0000000000000000000000200060004000CBB
:104DE000000800180010003000200060004000C0E3
:104DF00000800180010003000200060004000C0096
:104E00000800180010003000200060004000000082
:104E10000000000000000000000000000000000092
:104E20000000000000000000000000000000000082
:104E30000000000000000000000000000000000072
:104E40000000000000000000000000000000000062
:104E5000000000000000000000000000000003C08F
:104E600006200C30181818181808300C300C300CAC
:104E7000300C300C300C300C300C300C300C18086E
:104E8000181818180C30062003C00000000000009D
:104E90000000000000000000000000000000000012
:104EA0000000000000000000000000000000000002
:104EB00000000000000000000000000000000000F2
:104EC00000000000000000000000000000000000E2
:104ED0000000000000000000000000000000008052
:104EE00001801F800180018001800180018001809C
:104EF00001800180018001800180018001800180AA
:104F000001800180018003C01FF800000000000044
:104F10000000000000000000000000000000000091
:104F20000000000000000000000000000000000081
:104F30000000000000000000000000000000000071
:104F40000000000000000000000000000000000061
:104F5000000000000000000000000000000007E06A
:104F600008381018200C200C300C300C000C0018E5
:104F700000180030006000C001800300020004043B
:104F800008041004200C3FF83FF800000000000067
:104F90000000000000000000000000000000000011
:104FA0000000000000000000000000000000000001
:104FB00000000000000000000000000000000000F1
:104FC00000000000000000000000000000000000E1
:104FD000000000000000000000000000000007C00A
:104FE00018603030301830183018001800180030B1
:104FF000006003C0007000180008000C000C300CAA
:10500000300C30083018183007C0000000000000D5
:105010000000000000000000000000000000000090
:105020000000000000000000000000000000000080
:105030000000000000000000000000000000000070
:105040000000000000000000000000000000000060
:1050500000000000000000000000000000000060F0
:10506000006000E000E00160016002600460046034
:105070000860086010603060206040607FFC006065
:10508000006000600060006003FC000000000000A1
:105090000000000000000000000000000000000010
:1050A0000000000000000000000000000000000000
:1050B00000000000000000000000000000000000F0
:1050C00000000000000000000000000000000000E0
:1050D00000000000000000000000000000000FFCC5
:1050E0000FFC10001000100010001000100013E062
:1050F000143018181008000C000C000C000C300CB8
:10510000300C20182018183007C0000000000000E4
:10511000000000000000000000000000000000008F
:10512000000000000000000000000000000000007F
:10513000000000000000000000000000000000006F
:10514000000000000000000000000000000000005F
:10515000000000000000000000000000000001E06E
:1051600006180C180818180010001000300033E062
:10517000363038183808300C300C300C300C300C0D
:10518000180C18080C180E3003E000000000000096
:10519000000000000000000000000000000000000F
:1051A00000000000000000000000000000000000FF
:1051B00000000000000000000000000000000000EF
:1051C00000000000000000000000000000000000DF
:1051D00000000000000000000000000000001FFCB4
:1051E0001FFC10083010201020200020004000403C
:1051F0000040008000800100010001000100030068
:10520000030003000300030003000000000000008F
:10521000000000000000000000000000000000008E
:10522000000000000000000000000000000000007E
:10523000000000000000000000000000000000006E
:10524000000000000000000000000000000000005E
:10525000000000000000000000000000000007E067
:105260000C301818300C300C300C380C38081E1864
:105270000F2007C018F030783038601C600C600CCC
:10528000600C600C3018183007C0000000000000EF
:10529000000000000000000000000000000000000E
:1052A00000000000000000000000000000000000FE
:1052B00000000000000000000000000000000000EE
:1052C00000000000000000000000000000000000DE
:1052D000000000000000000000000000000007C007
:1052E0001820301030186008600C600C600C600CE6
:1052F000600C701C302C186C0F8C000C00180018FF
:1053000000103030306030C00F800000000000001E
:10531000000000000000000000000000000000008D
:10532000000000000000000000000000000000007D
:10533000000000000000000000000000000000006D
:10534000000000000000000000000000000000005D
:10535000000000000000000000000000000000004D
:10536000000000000000000000000000018003C0F9
:1053700003C00180000000000000000000000000E9
:105380000000018003C003C0018000000000000095
:10539000000000000000000000000000000000000D
:1053A00000000000000000000000000000000000FD
:1053B00000000000000000000000000000000000ED
:1053C00000000000000000000000000000000000DD
:1053D00000000000000000000000000000000000CD
:1053E000000000000000000000000000000003803A
:1053F00003800380000000000000000000000000A7
:10540000000000000380038003800180030003008C
:10541000000000000000000000000000000000008C
:10542000000000000000000000000000000000007C
:10543000000000000000000000000000000000006C
:10544000000000000000000000000000000000005C
:105450000000000000000000000000000000000448
:10546000000800100020004000800100020004003D
:105470000800100010000800040002000100008075
:1054800000400020001000080004000000000000A0
:10549000000000000000000000000000000000000C
:1054A00000000000000000000000000000000000FC
:1054B00000000000000000000000000000000000EC
:1054C00000000000000000000000000000000000DC
:1054D00000000000000000000000000000000000CC
:1054E0000000000000000000000000007FFE00003F
:1054F00000000000000000007FFE0000000000002F
:10550000000000000000000000000000000000009B
:10551000000000000000000000000000000000008B
:10552000000000000000000000000000000000007B
:10553000000000000000000000000000000000006B
:10554000000000000000000000000000000000005B
:10555000000000000000000000000000000020002B
:10556000100008000400020001000080004000203C
:10557000001000080008001000200040008001001A
:1055800002000400080010002000000000000000DD
:10559000000000000000000000000000000000000B
:1055A00000000000000000000000000000000000FB
:1055B00000000000000000000000000000000000EB
:1055C00000000000000000000000000000000000DB
:1055D000000000000000000000000000000003E0E8
:1055E0000C18180C10063006380638063806000C61
:1055F0000018007000C00080008000800080000063
:105600000000018003C003C0018000000000000012
:10561000000000000000000000000000000000008A
:10562000000000000000000000000000000000007A
:10563000000000000000000000000000000000006A
:10564000000000000000000000000000000000005A
:10565000000000000000000000000000000003E067
:1056600006100C08180430D431B2213263326322A0
:1056700066226622662266626664666426E83330C5
:1056800030021004180C0C1803E0000000000000A9
:10569000000000000000000000000000000000000A
:1056A00000000000000000000000000000000000FA
:1056B00000000000000000000000000000000000EA
:1056C00000000000000000000000000000000000DA
:1056D0000000000000000000000000000000038047
:1056E00003800380038004C004C004C004C00C40D5
:1056F00008600860086008201FF01030103010307B
:10570000201820182018601CF83E0000000000003F
:105710000000000000000000000000000000000089
:105720000000000000000000000000000000000079
:105730000000000000000000000000000000000069
:105740000000000000000000000000000000000059
:1057500000000000000000000000000000007FE0EA
:1057600018381818180C180C180C180C180C1818D5
:1057700018301FE01818180C180418061806180618
:1057800018061806180C18187FF00000000000001A
:105790000000000000000000000000000000000009
:1057A00000000000000000000000000000000000F9
:1057B00000000000000000000000000000000000E9
:1057C00000000000000000000000000000000000D9
:1057D000000000000000000000000000000003E0E6
:1057E000061C080C18063002300230006000600011
:1057F00060006000600060006000600060003002D7
:105800003002100418080C1003E000000000000033
:105810000000000000000000000000000000000088
:105820000000000000000000000000000000000078
:105830000000000000000000000000000000000068
:105840000000000000000000000000000000000058
:1058500000000000000000000000000000007FC009
:10586000187018181808180C180C180618061806BE
:105870001806180618061806180618061804180C34
:10588000180C1818181818607FC0000000000000DD
:105890000000000000000000000000000000000008
:1058A00000000000000000000000000000000000F8
:1058B00000000000000000000000000000000000E8
:1058C00000000000000000000000000000000000D8
:1058D00000000000000000000000000000007FFC4D
:1058E000180C1804180218021800180018101810C4
:1058F00018301FF018301810181018001800180071
:10590000180218021804180C7FFC000000000000A8
:105910000000000000000000000000000000000087
:105920000000000000000000000000000000000077
:105930000000000000000000000000000000000067
:105940000000000000000000000000000000000057
:1059500000000000000000000000000000007FFCCC
:10596000181C180418021802180018001810181033
:1059700018301FF0183018101810181018001800E0
:1059800018001800180018007E0000000000000039
:105990000000000000000000000000000000000007
:1059A00000000000000000000000000000000000F7
:1059B00000000000000000000000000000000000E7
:1059C00000000000000000000000000000000000D7
:1059D000000000000000000000000000000003C004
:1059E0000C300810181830083008200060006000E3
:1059F000600060006000607E601860182018301839
:105A00003018101818180C2007C000000000000003
:105A10000000000000000000000000000000000086
:105A20000000000000000000000000000000000076
:105A30000000000000000000000000000000000066
:105A40000000000000000000000000000000000056
:105A50000000000000000000000000000000FC3F0B
:105A6000300C300C300C300C300C300C300C300C56
:105A7000300C3FFC300C300C300C300C300C300C47
:105A8000300C300C300C300CFC3F000000000000EB
:105A90000000000000000000000000000000000006
:105AA00000000000000000000000000000000000F6
:105AB00000000000000000000000000000000000E6
:105AC00000000000000000000000000000000000D6
:105AD00000000000000000000000000000001FF8AF
