:020000040800F2
:10000000900D00203D02000839170008D50E0008A9
:100010003517000839070008932600080000000083
:10002000000000000000000000000000F91A0008B5
:100030003D07000800000000C9170008C11B0008A8
:10004000570200085702000857020008570200082C
:10005000570200085702000857020008570200081C
:10006000570200085702000857020008570200080C
:1000700057020008570200085702000857020008FC
:1000800057020008570200085702000857020008EC
:1000900057020008570200085702000857020008DC
:1000A00057020008570200085702000857020008CC
:1000B000ED20000857020008570200085702000808
:1000C00057020008570200085702000857020008AC
:1000D00057020008D5230008312400085702000801
:1000E000570200085702000857020008570200088C
:1000F000570200085702000857020008570200087C
:10010000570200085702000857020008570200086B
:10011000570200085702000857020008570200085B
:10012000570200085702000857020008570200084B
:10013000570200085702000857020008570200083B
:10014000570200085702000857020008570200082B
:10015000570200085702000857020008570200081B
:10016000570200085702000857020008570200080B
:1001700057020008570200085702000857020008FB
:10018000570200085702000800F002F800F047F894
:100190000AA090E8000C82448344AAF10107DA45E2
:1001A00001D100F03CF8AFF2090EBAE80F0013F0ED
:1001B000010F18BFFB1A43F001031847F043020078
:1001C00010440200103A24BF78C878C1FAD8520708
:1001D00024BF30C830C144BF04680C6070470000C1
:1001E0000023002400250026103A28BF78C1FBD840
:1001F000520728BF30C148BF0B607047642900F028
:10020000BD80752900F0BA80632900F0408200208B
:1002100070471FB503F046FA1FBD10B510BD00F0C2
:1002200059FA1146FFF7F5FF02F054FD00F077FA96
:1002300003B4FFF7F2FF03BC02F0B5FC09488047A6
:1002400009480047FEE7FEE7FEE7FEE7FEE7FEE7B8
:10025000FEE7FEE7FEE7FEE704480549054A064BD0
:1002600070470000C51B00088901000890070020A6
:10027000900D002090090020900900207047000098
:100280000FB4044910B503AA029800F00DFA10BC8F
:100290005DF814FB140000200FB41CB5074B06AA30
:1002A0007B4469460090059800F0CFF9002069462C
:1002B00000F0DEF91CBC5DF814FB0000CD0300006B
:1002C0002DE9F0410E460446002020622046E168F8
:1002D000884730B3252805D0D4E901219047206A0A
:1002E000401CF2E7E168204600278847050018D047
:1002F000A5F14100192802D820354FF40067324695
:10030000294620462760FFF779FF40B1012804D035
:10031000F61D26F007060836D8E7361DD6E728462C
:10032000DAE7206ABDE8F08170B50C460546012A7F
:1003300005D02878800600D5EA69002302E0012371
:1003400005E05B1C934202D2E05C0028F9D1A86969
:10035000E618C01AA861286A184428622846AFF334
:10036000008004E0D5E9012114F8010B9047B44264
:10037000F8D32846AFF3008070BD00002DE9F041AE
:100380000646002410687529314616A510D0AFF333
:100390000080002802DA404213A507E031688A078E
:1003A00001D512A502E0490704D511A5012401E0F9
:1003B000AFF3008000210A2206F1240709E0B0FB18
:1003C000F2FCB0FBF2F302FB1C003030785418460C
:1003D000491C0028F3D123462A463046BDE8F041A7
:1003E00000F0D5B8000000002D0000002B00000038
:1003F0002000000030B505460B462A4613F8014B95
:1004000012F8010B08B1A042F8D01CB1002802D0AC
:100410006D1CF1E7284630BD40EA0103024630B5C5
:100420009B0710D14FF0013400E008C208C91D1B22
:100430009D4315EAC41FF8D013F0FF0102F8011B19
:100440000DD01B0AF8E711F8013B002B02F8013B25
:1004500005D011F8013B002B02F8013BF3D130BD70
:1004600010B5431C02E010F8011B71B18107FAD1ED
:100470004FF0013202C88C1A8C4314EAC211F9D031
:10048000C01A0A0603D0C01E10BDC01A10BD0A044F
:1004900001D0801E10BD0902FCD0401E10BD4FF0DF
:1004A00000020429C0F0128010F0030C00F01B8041
:1004B000CCF1040CBCF1020F18BF00F8012BA8BF4F
:1004C00020F8022BA1EB0C0100F00DB85FEAC17C13
:1004D00024BF00F8012B00F8012B48BF00F8012BC6
:1004E00070474FF0000200B51346944696462039F7
:1004F00022BFA0E80C50A0E80C50B1F12001BFF4DD
:10050000F7AF090728BFA0E80C5048BF0CC05DF842
:1005100004EB890028BF40F8042B08BF704748BF90
:1005200020F8022B11F0804F18BF00F8012B704704
:1005300010B5044610F0030F08BF11F0030F40F090
:1005400015804FF0013E121FC0F20E8051F8043B9F
:10055000A3EB0E0C2CEA030C1CEACE1C08BF40F8DF
:10056000043BF0D0A1F1040102F10402521E08DBA9
:1005700011F8013B002B00F8013BF7D11146FFF7C2
:100580008EFF204610BD70477047704770472DE9B9
:10059000F0470D4699469246044600F1240801684A
:1005A000880604D5E06921F01001216000E00120F7
:1005B000A84201DD471B00E00027A1697A1902EB80
:1005C0000900081AA0612078C00602D42046AFF3C3
:1005D0000080002608E0D4E901211AF806009047BF
:1005E000206A401C761C20624E45F4DB2078C00651
:1005F0000AD52046AFF3008006E0D4E9012130207F
:100600009047206A401C2062381EA7F10107F4DCE5
:1006100007E0D4E9012118F805009047206A401C42
:100620002062281EA5F10105F3DC2046AFF300800F
:100630002078000602D50220BDE8F0870120FBE704
:1006400001694A1C02610878704700B58FB0CDE996
:1006500001310021059105497944CDE90310114686
:100660006846FFF72DFE0FB000BD0000E5FFFFFF5D
:100670000A6802F8010B0A60704710B5436913B1AC
:10068000AFF3008001E0FFF74FFE012010BD1278AC
:1006900000F124010A7000224A700122EDE711687E
:1006A0004FF0FF32E9E70000074B70B50D467B4481
:1006B000FFF7CBFF0446284600F008F810B14FF0D2
:1006C000FF3070BD204670BD07260000007B00F0A3
:1006D00080007047754600F02BF8AE46050069466D
:1006E000534620F00700854618B020B5FFF7B4FD4B
:1006F000BDE820404FF000064FF000074FF0000823
:100700004FF0000B21F00701AC46ACE8C009ACE8A3
:10071000C009ACE8C009ACE8C0098D46704710B507
:100720000446AFF300802046BDE81040FFF780BDCF
:10073000004870473007002000BFFEE77047000008
:1007400038B504460D460448F0231A4600210090AF
:10075000084600F09BFF38BD628200080020044973
:1007600008600449C1F8840203490860704700002A
:1007700080024142000041428082404201200449FF
:10078000086000200349C1F88402034908607047EB
:1007900080024142000041428082404200200549DF
:1007A000086001200449C1F8840200200349086060
:1007B0007047000080024142000041428082404276
:1007C0000020044908600449C1F88402012003495B
:1007D00008607047800241420000414280824042EE
:1007E0000020014908607047B08240420120014961
:1007F00008607047B08240421CB50121042000F01F
:10080000E5FF0121022000F0E1FF0121084600F090
:10081000DDFF02208DF8050001208DF80400002086
:100820008DF8060002208DF807000320009069462D
:10083000104800F053F841F20100009069460E485C
:1008400000F04CF84FF4C050009069460B4800F09F
:1008500045F800200A4908600A49C1F8AC020A4973
:1008600008600A490860091D08600949C1F880024A
:100870001CBD0000000802400004024000000240CD
:10088000B082404200004042B002404280024142F9
:100890000080404200200349086001200249C1F85D
:1008A000B0027047AC0240420000404200200349C1
:1008B00008600349C1F8B00270470000AC02404232
:1008C0000000404201200349086000200249C1F8AD
:1008D000B0027047AC02404200004042F0B50A4608
:1008E00000210023002400BF3DE0012505FA01F3AB
:1008F000156805EA03049C4234D105684F000326BD
:10090000BE40B543056015794E00B54006683543D5
:1009100005601579012D02D01579022D16D1856853
:100920004F000326BE40B543856055794E00B54063
:10093000866835438560456801268E40B54345602D
:10094000456896798E40B6B235434560C5684F001C
:100950000326BE40B543C560D5794E00B540C66894
:100960003543C560491C1029BFD3F0BDF0B5002345
:1009700000244D07ED0E02FA05F3CE1000F120051C
:1009800055F826504E07F70E0F26BE40B543CF1040
:1009900000F1200646F82750CE1000F1200555F84A
:1009A000265045EA0304CE1000F1200545F8264004
:1009B000F0BD0246002013690B400BB1012000E09E
:1009C0000020704741837047018370471FB50121A4
:1009D000084600F0FBFE0121022000F0F7FE012195
:1009E000042000F0F3FE4FF40070029001208DF817
:1009F0000C0000208DF80E0002208DF80D008DF8FF
:100A00000F0002A94448FFF769FF4FF4807000907F
:100A100000208DF8040002208DF8050000208DF8DC
:100A2000070069463C48FFF759FF802002900120EB
:100A30008DF80C0000208DF80E0002208DF80D00BE
:100A40008DF80F0002A93548FFF748FF40200090BD
:100A500000208DF8040002208DF8050000208DF89C
:100A6000070069462D48FFF739FF802002900120DA
:100A70008DF80C0000208DF80E0002208DF80D007E
:100A80008DF80F0002A92648FFF728FF40200090AC
:100A900000208DF8040002208DF8050000208DF85C
:100AA000070069461E48FFF719FF4FF400700290D7
:100AB00001208DF80C0000208DF80E0002208DF82A
:100AC0000D008DF80F0002A91548FFF707FF4FF43E
:100AD0008070009000208DF8040002208DF8050041
:100AE00000208DF8070069460D48FFF7F7FE0A2041
:100AF00002F07AF800F044F80A49086000F0B8F80B
:100B00000949086000F024F90849086000F090F9EC
:100B1000074908601FBD00000008024000000240B5
:100B2000000402402C000020340000203C00002083
:100B30004400002010B500F023F80D490860084675
:100B400000680C490860084600680B490968401AAB
:100B500000EE100AB8EEC00ADFED080A80EE201A97
:100B6000BDEEC10A034880ED000A006810BD000018
:100B700024000020280000202C0000200000D74383
:100B800070B50024002500BF4FF480712448FFF7A2
:100B900010FF0028F8D1012002F042F84FF4007154
:100BA0001F48FFF70FFF00BF4FF480711C48FFF78D
:100BB00000FF0028F8D000251CE0C82002F030F823
:100BC0004FF400711648FFF7FFFE6400012002F0A9
:100BD00027F84FF400711248FFF7F4FE4FF48071CC
:100BE0000F48FFF7E6FE00B1641C012002F018F880
:100BF000681CC5B2182DE0DB4FF400710848FFF700
:100C0000E3FE84F40004012002F00AF84FF40071BE
:100C10000348FFF7D7FE012002F002F8204670BD1E
:100C20000008024010B500F023F80D49086008469E
:100C300000680C490860084600680B490968401ABA
:100C400000EE100AB8EEC00ADFED080A80EE201AA6
:100C5000BDEEC10A034880ED000A006810BD000027
:100C60002400002030000020340000200000D74382
:100C700070B50024002500BF40212148FFF799FEF0
:100C80000028F9D1012001F0CBFF80211C48FFF79B
:100C900099FE00BF40211A48FFF78BFE0028F9D0CB
:100CA000002519E0C82001F0BBFF80211448FFF7A0
:100CB0008BFE6400012001F0B3FF80211048FFF794
:100CC00081FE40210E48FFF774FE00B1641C012034
:100CD00001F0A6FF681CC5B2182DE3DB802108488F
:100CE000FFF772FE84F40004012001F099FF8021D7
:100CF0000348FFF767FE012001F092FF204670BD18
:100D00000000024010B500F023F80D4908600846C5
:100D100000680C490860084600680B490968401AD9
:100D200000EE100AB8EEC00ADFED080A80EE201AC5
:100D3000BDEEC10A034880ED000A006810BD000046
:100D400024000020380000203C0000200000D74391
:100D500070B50024002500BF40212148FFF729FE7F
:100D60000028F9D1012001F05BFF80211C48FFF72A
:100D700029FE00BF40211A48FFF71BFE0028F9D0CA
:100D8000002519E0C82001F04BFF80211448FFF72F
:100D90001BFE6400012001F043FF80211048FFF793
:100DA00011FE40210E48FFF704FE00B1641C012033
:100DB00001F036FF681CC5B2182DE3DB802108481E
:100DC000FFF702FE84F40004012001F029FF8021D6
:100DD0000348FFF7F7FD012001F022FF204670BD18
:100DE0000004024010B500F023F80D4908600846E1
:100DF00000680C490860084600680B490968401AF9
:100E000000EE100AB8EEC00ADFED080A80EE201AE4
:100E1000BDEEC10A034880ED000A006810BD000065
:100E20002400002040000020440000200000D743A0
:100E300070B50024002500BF4FF480712448FFF7EF
:100E4000B8FD0028F8D1012001F0EAFE4FF400714E
:100E50001F48FFF7B7FD00BF4FF480711C48FFF734
:100E6000A8FD0028F8D000251CE0C82001F0D8FE1D
:100E70004FF400711648FFF7A7FD6400012001F050
:100E8000CFFE4FF400711248FFF79CFD4FF48071C4
:100E90000F48FFF78EFD00B1641C012001F0C0FE79
:100EA000681CC5B2182DE0DB4FF400710848FFF74D
:100EB0008BFD84F40004012001F0B2FE4FF40071B8
:100EC0000348FFF77FFD012001F0AAFE204670BD18
:100ED0000004024000BFFEE70EB51DA0FFF7D0F9E9
:100EE0004FF4FA6001F080FE1DA0FFF7C9F94FF43E
:100EF000FA6001F079FE1AA0FFF7C2F94FF47A7098
:100F000001F072FE1A48007819490978184A1278D7
:100F1000CDE900210290164803780278017815483F
:100F2000FFF7AEF94FF47A7001F05EFE12A0FFF702
:100F3000A7F94FF47A7001F057FE0D480278017856
:100F400015A0FFF79DF94FF47A7001F04DFE0EBD2C
:100F500041542B4D495043414C4C3D300D0A00004B
:100F600041542B4D495043414C4C3D310D0A00003A
:100F7000000000206444020841542B54434D515456
:100F800054434F4E4E3D312C32303030302C3234C1
:100F9000302C312C310D0A0041542B54434D515407
:100FA000545355423D2563247468696E672F646FFE
:100FB000776E2F70726F70657274792F4342485943
:100FC0005457365147562F31313435313425632C3F
:100FD000310D0A002DE9F04104460D4616461F4624
:100FE0002A2000F07BFB201200F084FBE0B200F02E
:100FF00081FB301200F07EFBF0B200F07BFB2B2077
:1010000000F06CFB281200F075FBE8B200F072FBF8
:10101000381200F06FFBF8B200F06CFB2C2000F0EF
:101020005DFBBDE8F0810000F8B5054600200090AA
:1010300028128DF80000E8B28DF80100EF231A465F
:1010400000210846FFF7C6FF00240DE09DF80000D0
:101050000E4901F814009DF80100012101EB440143
:101060000A4A5054601C84B2B4F5107FEEDB0120B4
:1010700007490860002606E04FF49061034800F03D
:1010800062F9701C86B2642EF6DBF8BDB002002057
:10109000BC8240422DE9F05F0746884691469A4659
:1010A000DDF828B0002400250026A9EB0700401C2D
:1010B000AAEB0801491C48434500B5F5906F03D9D8
:1010C000A5F590664FF4906553464A46414638462A
:1010D000FFF780FF20E000240AE04FEA2B20104AAF
:1010E00002F814006000401C02F800B0601C84B2DA
:1010F000B4EB550FF1D301200A490860294608488E
:1011000000F021F906B908E0B6F5906F02D9A6F50E
:10111000906601E035460026DDE700BFBDE8F09FA0
:10112000B0020020BC8240421CB50121022000F028
:101130004DFB4EF20200009001208DF804000020CB
:101140008DF8060003208DF8050001208DF80700BA
:1011500069460D48FFF7C2FB4EF202010A48FFF74D
:1011600031FC0020094908600949C1F8B402074967
:1011700034310860782001F037FD01200449C1F8BE
:10118000B80200F0E7FB1CBD00040240848240422C
:101190000080404210B5FFF7C7FF782001F024FD22
:1011A000112000F09BFA782001F01EFD362000F09F
:1011B00095FA002000F09EFA3A2000F08FFA6520A0
:1011C00000F098FAB22000F089FA0C2000F092FAB0
:1011D0000C2000F08FFA002000F08CFA332000F091
:1011E00089FA332000F086FAB72000F077FA7220EF
:1011F00000F080FABB2000F071FA3D2000F07AFA8E
:10120000C02000F06BFA2C2000F074FAC22000F02D
:1012100065FA012000F06EFAC32000F05FFA192091
:1012200000F068FAC42000F059FA202000F062FAB9
:10123000C62000F053FA0F2000F05CFAD02000F036
:101240004DFAA42000F056FAA12000F053FAE02055
:1012500000F044FAD02000F04DFA042000F04AFAE1
:101260000D2000F047FA112000F044FA132000F09E
:1012700041FA2B2000F03EFA3F2000F03BFA5420C8
:1012800000F038FA4C2000F035FA182000F032FA5D
:101290000D2000F02FFA0B2000F02CFA1F2000F098
:1012A00029FA232000F026FAE12000F017FAD020D6
:1012B00000F020FA042000F01DFA0C2000F01AFAC9
:1012C000112000F017FA132000F014FA2C2000F07F
:1012D00011FA3F2000F00EFA442000F00BFA5120E2
:1012E00000F008FA2F2000F005FA1F2000F002FAA3
:1012F0001F2000F0FFF9202000F0FCF9232000F06F
:10130000F9F9212000F0EAF9292000F0E7F9EF23AC
:101310001A4600210846FFF75DFE4FF6FF70FFF703
:1013200083FE01200149086010BD0000B4824042E4
:1013300010B50246012000E050430B1EA1F101044C
:10134000E1B2F9D110BD2DE9F04105460E464FF648
:10135000FF70B6FBF0F7002416E0BC420CD14FF64C
:10136000FF70B6FBF0F100FB1168C4EB04414819B3
:10137000414600F067FB06E0C4EB044148194FF614
:10138000FF7100F05FFB641CBC42E6D9BDE8F08150
:101390002DE9FE4F82468B4616461C46A6F12000DC
:1013A000C6B204EBD4714910C1F1F001514503DB21
:1013B000C4F1F001594501DABDE8FE8F04EBD470A9
:1013C0000AEB6000401E82B20BEB0400401E83B2A9
:1013D000594650460094FFF7FDFD102C01D0202CFB
:1013E0004ED12046E31704EB5373DB1021464FEA3E
:1013F000E47C04EB5C7C4FEAEC0CA4EBCC0CBCF181
:10140000000F02D04FF0010C01E04FF0000C6344DC
:10141000224604EBD27C4FEA6C0C03FB0CF303F086
:10142000FF09002529E0102C04D1574800EB0610D5
:10143000475D07E0202C04D1544800EBC610475DFF
:1014400000E0B9E74FF0000812E007F0800018B1A3
:101450004F480088029002E04E48008802900298AF
:1014600000F054F97806070E08F1010000F0FF08BB
:10147000B8F1080FE9DB681CC5B24D45D3DB80E04D
:101480000C2C45D12046E31704EB5373DB102146A7
:101490004FEAE47C04EB5C7C4FEAEC0CA4EBCC0C54
:1014A000BCF1000F02D04FF0010C01E04FF0000C36
:1014B0006344224604EBD27C4FEA6C0C03FB0CF332
:1014C00003F0FF09002520E006EB4600324901EB5E
:1014D0008000475D4FF0000812E007F0800018B16F
:1014E0002B480088029002E02A4800880290029867
:1014F00000F00CF97806070E08F1010000F0FF0873
:10150000B8F1060FE9DB681CC5B24D45DCDB38E0FD
:10151000182C36D12001C11700EB5171C1F3C70956
:1015200000252CE006EB46001C4901EB0010475D4E
:10153000284605EBD0714910A5EB410111B90820EF
:10154000019001E0042001904FF0000812E007F044
:10155000800018B10E480088029002E00D48008813
:101560000290029800F0D2F87806070E08F1010008
:1015700000F0FF0801988045E9DB681CC5B24D45C5
:10158000D0DB00BF18E70000223B0008E252000851
:101590001C0000201E000020AE360008124100088A
:1015A0002DE9FF5F074691461E460E9D4FF0000A4B
:1015B000002435E0301B401EC1B20A20FFF7B8FE00
:1015C000B9FBF0F00A21B0FBF1F201FB1208BAF10D
:1015D000000F14D1701EA04211DDB8F1000F0CD124
:1015E000AB4605EBDB71491001FB047188B22B4659
:1015F00020220199FFF7CCFE10E04FF0010AAB4624
:1016000005EBDB71491001FB047188B208F1300170
:10161000CAB22B460199FFF7BBFE00BF601CC4B2E3
:10162000B442C7DBBDE8FF9F2DE9F04704460D46F5
:1016300090469946DDE9086704F0FF0A08EB0400CC
:101640001FFA80F809EB05001FFA80F914E0444501
:1016500002DB5446A81985B24D4500DB12E03A780A
:10166000334629462046FFF793FE304606EBD071FD
:1016700004EB61018CB27F1C38787E2802DC38785C
:101680002028E4DA00BFBDE8F08700002DE9F04132
:1016900006460F4614461D46DDF818803019F0281E
:1016A00002DC7819F02801DDBDE8F0817819401ED0
:1016B00083B23019401E82B239463046FFF78AFCA9
:1016C00001200549086004FB05F041004046FFF792
:1016D0003AFE00BFE8E70000BC82404201B50020AE
:1016E0000349086001216846FFF72DFE08BD000090
:1016F000BC82404201B501200349086001216846CF
:10170000FFF721FE08BD0000BC82404238B5044608
:101710000020009020128DF80000E0B28DF801004A
:1017200001200349086002216846FFF70CFE38BD1E
:10173000BC82404200BFFEE77047000070B5002148
:1017400000230F22C4781CB3174C246804F4E0640F
:10175000C4F5E064C4F30721C1F10404E3B20A4113
:1017600044789C40E1B28478144021430C07210E58
:101770000E4C05786155047804F01F050124AC4037
:1017800005786D11AD0005F1E025C5F8004109E0CF
:10179000047804F01F050124AC40054D067876114D
:1017A00045F8264070BD00000CED00E000E400E0CC
:1017B00080E100E002490143024A116070470000E5
:1017C0000000FA050CED00E07047000029B1064A60
:1017D00012680243044B1A6004E0034A1268824311
:1017E000014B1A60704700003038024029B1064AA8
:1017F00012680243044B1A6004E0034A12688243F1
:10180000014B1A60704700004038024029B1064A77
:1018100012680243044B1A6004E0034A12688243D0
:10182000014B1A60704700002038024029B1064A77
:1018300012680243044B1A6004E0034A12688243B0
:10184000014B1A60704700004438024029B1064A33
:1018500012680243044B1A6004E0034A1268824390
:10186000014B1A607047000024380240F0B5002197
:1018700000220024022500260223324F3F6807F091
:101880000C0121B1042905D0082937D105E02E4FDC
:10189000076036E02D4F076033E02A4F3F1F3F6857
:1018A000C7F38056274F3F1F3F6807F03F036EB1D5
:1018B000264FB7FBF3F7DFF88CC0ACF1040CDCF873
:1018C00000C0CCF3881C07FB0CF40CE01E4FB7FBE8
:1018D000F3F7DFF870C0ACF1040CDCF800C0CCF317
:1018E000881C07FB0CF4174F3F1F3F68C7F30147E5
:1018F0007F1C7D00B4FBF5F7076002E0124F076024
:1019000000BF00BF0F4F3F6807F0F0010909104FFB
:101910007A5C0768D74047600A4F3F6807F4E05198
:10192000890A0B4F7A5C4768D7408760054F3F684C
:1019300007F46041490B064F7A5C4768D740C7609F
:10194000F0BD0000083802400024F40000127A00C4
:101950004800002000B587B001210220FFF736FFC4
:1019600001210803FFF762FF2820059002208DF86F
:10197000180000208DF81A0003208DF819000120AE
:101980008DF81B0005A91F48FEF7A8FF05220321BB
:101990001C48FEF7EBFF052211461A48FEF7E6FF4A
:1019A00001210803FFF752FF00214FF48050FFF799
:1019B0004DFF0020ADF800004FF48270ADF802003A
:1019C0000020ADF804000220ADF806000120ADF8BB
:1019D00008004002ADF80A000020ADF80C00ADF898
:1019E0000E000720ADF810006946074800F066F8C1
:1019F0000121054800F048F8FF2000F007F807B083
:101A000000BD0000000402400030014010B5044653
:101A100000BF02210A4800F043F80028F9D021460F
:101A2000074800F049F800BF0121054800F038F8E8
:101A30000028F9D0024800F03CF8C0B210BD000008
:101A4000003001402DE9F04105460E4600270024F4
:101A500014E006E0781CC7B2C82F02DD0020BDE804
:101A6000F0810221074800F01BF80028F2D0295D20
:101A7000044800F021F80027601C84B2B442E8DB7F
:101A80000120ECE70030014021B1028842F0400221
:101A9000028004E002884FF6BF731A40028070474C
:101AA0000246002013890B400BB1012000E000200A
:101AB00070470146888970478181704710B50022C0
:101AC000028802F441520B884C8823438C882343BC
:101AD000CC8823430C8923434C8923438C8923439B
:101AE000CC8923431A430280838B4FF2FF74234037
:101AF00083830B8A038210BD704700002248006870
:101B000040F08050204908602048006840F4404080
:101B10001E4908601C48383800681B49383908607D
:101B20000846006808600846006840F48050086075
:101B30001748091F0860081F006840F08070091FDF
:101B4000086000BF10484038006800F000700028AE
:101B5000F8D040F202700F4908600B48383800682E
:101B600020F003000849383908600846006840F052
:101B70000200086000BF04483838006800F00C001C
:101B80000828F8D17047000040380240007000403B
:101B900010640107003C0240042808D14FF0E02106
:101BA000096941F004014FF0E022116107E04FF0B4
:101BB000E021096921F004014FF0E0221161704732
:101BC0007047000010B51548006840F470001349D4
:101BD00008601348006840F00100114908600020C7
:101BE0000F49083108600E4800680E4908400C494A
:101BF00008600D48091D0860081F006820F4802057
:101C0000091F0860002006490C310860FFF776FFC5
:101C10004FF0006001498039086010BD88ED00E098
:101C200000380240FFFFF6FE1030002408B5012006
:101C3000009001226946002000F038FA032000904D
:101C400001226946002000F031FA032000F0CCFFA9
:101C500008BD38B50446002000900222694620469F
:101C600000F0FDF99DF800009DF8011040EA012503
:101C7000284638BD38B504460025012000900122D1
:101C80006946132000F0EBF99DF8000000F0010018
:101C9000D8B11420FFF7DDFF20801620FFF7D9FF11
:101CA00060801820FFF7D5FFA0801A20FFF7D1FF32
:101CB000E0806088C012C002A188891240EA411009
:101CC000E18840EAE125284638BD0020FCE7000015
:101CD00010B520211048FEF775FE0F48006820F06F
:101CE00003000D4908600846006840F001000860E4
:101CF00001210948FEF766FE022000F091FF202135
:101D00000548FEF761FE022000F08AFF202102480C
:101D1000FEF758FE10BD0000000002401CB5012176
:101D20000846FFF753FD02208DF8050001208DF8CD
:101D300007008DF8040000208DF8060001200090B7
:101D400069460948FEF7CAFD20200090694606480A
:101D5000FEF7C4FD01210448FEF736FE20210248AB
:101D6000FEF732FE1CBD00000000024010B520212D
:101D70001048FEF727FE0F48006820F003000D49C9
:101D800008600846006840F0010008600121094829
:101D9000FEF71AFE022000F043FF20210548FEF75F
:101DA00013FE022000F03CFF20210248FEF70AFE4D
:101DB00010BD0000000002402DE9F04107460D462D
:101DC00016469846002400F091F8012101EB4701E6
:101DD000C8B200F04FF800F0D5F800BF0DE0701E5B
:101DE000A04204D1002000F011F8285503E00120A2
:101DF00000F00CF82855601CC4B2B442EFDBB8F117
:101E0000010F01D100F098F8BDE8F08170B50546EA
:101E100000241748006820F00300154908600846B0
:101E200000680860002618E020211148FEF7CAFD6E
:101E3000022000F0F5FE20210D48FEF7C5FD6006EA
:101E4000040E01210A48FEF7B4FD08B1601CC4B2BB
:101E5000012000F0E5FE701CC6B2082EE4DB15B9C7
:101E6000FFF784FF01E0FFF733FF204670BD00005D
:101E70000000024070B5044600251B48006820F0B1
:101E80000300194908600846006840F00100086036
:101E900020211548FEF796FD00BF21E00120B0EBA0
:101EA000D41F04D101211048FEF78EFD03E001216B
:101EB0000D48FEF787FD6006040E022000F0B0FE1C
:101EC00020210948FEF780FD022000F0A9FE202114
:101ED0000548FEF777FD022000F0A2FE681CC5B29F
:101EE000082DDBDB70BD00000000024010B511487A
:101EF000006820F003000F4908600846006840F0C1
:101F00000100086001210B48FEF75EFD2021094811
:101F1000FEF75AFD042000F083FE01210548FEF77C
:101F200051FD042000F07CFE20210248FEF74AFD0E
:101F300010BD00000000024010B51148006820F0FC
:101F400003000F4908600846006840F0010008607F
:101F500020210B48FEF736FD01210948FEF732FD2E
:101F6000042000F05DFE20210548FEF72DFD012133
:101F70000348FEF729FD042000F052FE10BD0000CA
:101F80000000024010B500241548006820F003004E
:101F90001349086008460068086001211048FEF7F0
:101FA00013FD012000F03CFE20210D48FEF70CFD42
:101FB000012000F035FE07E0601CC4B2FA2C03DDFE
:101FC000FFF7BAFF012010BD01210548FEF7F1FC23
:101FD0000028F1D120210248FEF7F4FC0020F2E7AE
:101FE000000002402DE9F04105460E46174698468E
:101FF0000024FFF77BFF002141EA4501C8B2FFF74B
:1020000039FFFFF7BFFF00BF06E0305DFFF732FF8B
:10201000FFF7B8FF601CC4B2BC42F6DBB8F1010F99
:1020200001D1FFF789FFBDE8F08108B500200090DD
:10203000FFF774FE01226946122000F010F89DF8A7
:102040000000442809D19C2000F027F8032000F06C
:102050001BF8FFF7EBFD012008BD0020FCE737B5BA
:102060000C4615469DF8000040F0800000900023CB
:10207000012269462920FFF7B5FF01232A462146A0
:102080002920FFF799FE3EBD38B504460094012291
:1020900069460F2000F00AF838BD38B504460094B0
:1020A00001226946104600F001F838BDFEB506462B
:1020B0000F4615460020009001900290002446F043
:1020C00080008DF80000012405E0601E385C0DF8EA
:1020D0000400601CC4B2AC42F7DD681CC2B201232C
:1020E00069462920FFF77EFFFEBD000010B50121E3
:1020F000880700F013F930B10121880700F037F8A4
:1021000001200149088010BD200000207FB5054650
:102110000C4601210846FFF769FB4FF0804000F0B4
:1021200035F80295ADF804400020ADF80C00ADF88C
:10213000060001A94FF0804000F00AF90122114683
:10214000900700F0FCF81C208DF8000000208DF8AE
:10215000010001208DF802008DF803006846FFF7AA
:10216000EDFA00214FF0804000F004F87FBDCA4333
:102170000282704721B1028842F00102028004E02D
:1021800002884FF6FE731A400280704710B504466D
:102190005548844208D101210846FFF757FB00212A
:1021A0000120FFF753FB9DE0B4F1804F08D10121DE
:1021B0000846FFF72BFB00210120FFF727FB91E0EA
:1021C0004A48844208D101210220FFF71FFB002169
:1021D0000220FFF71BFB85E04548844208D101211E
:1021E0000420FFF713FB00210420FFF70FFB79E029
:1021F0004048844208D101210820FFF707FB002155
:102200000820FFF703FB6DE03B48844208D1012121
:102210001020FFF7FBFA00211020FFF7F7FA61E02A
:102220003648844208D101212020FFF7EFFA00212F
:102230002020FFF7EBFA55E03148844208D1012114
:102240000220FFF703FB00210220FFF7FFFA49E01D
:102250002C48844209D101210804FFF7F7FA002134
:102260004FF48030FFF7F2FA3CE02748844209D16E
:1022700001214804FFF7EAFA00214FF40030FFF78C
:10228000E5FA2FE02148844209D101218804FFF7B3
:10229000DDFA00214FF48020FFF7D8FA22E01C4835
:1022A000844208D101214020FFF7B0FA00214020EC
:1022B000FFF7ACFA16E01748844208D101218020CC
:1022C000FFF7A4FA00218020FFF7A0FA0AE01248E5
:1022D000844207D101218015FFF798FA0021A0154B
:1022E000FFF794FA10BD0000000001400004004018
:1022F00000080040000C00400010004000140040A6
:1023000000040140004001400044014000480140F9
:1023100000180040001C00400020004030B502467C
:10232000002000230024158A05EA0103958905EAA7
:10233000010413B10CB1012000E0002030BD1AB13E
:1023400083890B43838102E083898B4383817047B8
:1023500000220288184B98420ED0184B98420BD09E
:10236000B0F1804F08D0164B984205D0154B9842DB
:1023700002D0154B984204D14FF68F731A404B8808
:102380001A43124B984207D0114B984204D04FF693
:10239000FF431A400B891A4302804B68C3620B88C3
:1023A0000385054B984202D0044B984201D18B7AA9
:1023B000038601238382704700000140000401402E
:1023C0000004004000080040000C004000100040E5
:1023D0000014004010B540F22551124800F08AF870
:1023E000F0B1104800F04CF9C4B22B2C07D10020FA
:1023F0000D490880C8210D48FEF751F810E00A4841
:102400000088C82809DA0948074909884454064859
:102410000088401C0449088002E00020024908802E
:1024200010BD0000001001401800002058000020DE
:1024300010B540F22551164800F069F810B3144861
:1024400000F01EF9C4B22F2C0BD112491248FDF72F
:10245000E3FF002011490880C8210E48FEF71FF84D
:1024600014E00A2C12D00D2C10D00C480088C8287B
:1024700009DA084809490988445408480088401C7A
:102480000649088002E000200449088010BD0000D1
:102490000044004020010020E80100201A00002034
:1024A00070B505460E4600240CE000BF40210A48E6
:1024B00000F020F80028F9D0295D074800F0E5F881
:1024C000601C84B2B442F0DB00BF4021024800F03F
:1024D00011F80028F9D070BD0044004021B1828974
:1024E00042F40052828104E082894DF6FF731A4063
:1024F0008281704702460020B1F5007F00D100BF05
:1025000013880B400BB1012000E00020704770B52C
:102510000246002400230025002040F66A16B1423E
:1025200000D100BFC1F3421501F01F03012606FAD6
:1025300003F3012D02D19689334006E0022D02D12A
:10254000168A334001E0968A33400C12012606FABF
:1025500004F41688344013B10CB1012000E00020CF
:1025600070BDF0B50346002400260025002040F68B
:102570006A17B94200D100BF1846C1F3421401F0F6
:102580001F06012707FA06F5012C01D10C3004E0E3
:10259000022C01D1103000E014301AB107682F432B
:1025A000076002E00768AF430760F0BD2DE9FF4711
:1025B00005460E460024A14600BFA046B08900B1E2
:1025C00000BF2C8A24F44054F08804432C82AC8948
:1025D00041F20C608443B088318908437189084313
:1025E0000443AC81AC8A24F44074B0890443AC82C7
:1025F0006846FFF73BF92048854202D01F488542D4
:1026000002D1DDF80C9001E0DDF80890A88900F413
:10261000004040B109EBC90000EB091031684900E6
:10262000B0FBF1F707E009EBC90000EB09103168D6
:102630008900B0FBF1F76420B7FBF0F0040120093A
:10264000642101FB1078A88900F4004040B13220D9
:1026500000EBC800B0FBF1F000F00700044308E015
:10266000322000EB08106421B0FBF1F000F00F0005
:1026700004432C81BDE8FF87001001400014014095
:1026800001468888C0F308007047C1F308028280C1
:10269000704700BFFEE7000010B500200F4908603A
:1026A0000F48006820F440500D4908600846006853
:1026B00040F48050086000200A49C1F898020220C6
:1026C00000F0AEFA012005490860022000F0A8FAE7
:1026D00000200449C1F8940210BD00009402414258
:1026E00000080240000041421CB501210420FFF710
:1026F0006DF86020009001208DF8040000208DF816
:10270000060003208DF8050001208DF807006946BA
:102710000448FEF7E3F80120034908600349C1F8C3
:1027200098021CBD00080240940241420000414250
:1027300010B500200F4908600F48006820F4405091
:102740000D4908600846006840F480500860012088
:102750000A49C1F89802022000F062FA01200549F6
:102760000860022000F05CFA00200449C1F89402DD
:1027700010BD0000940241420008024000004142A6
:1027800070B5054600241648006820F440501449EE
:102790000860084600680860002616E0002011491D
:1027A0000860022000F03CFA01200F49C1F89402B1
:1027B0006006040E0B487C38006808B1601CC4B287
:1027C000012000F02DFA701CC6B2082EE6DB15B908
:1027D000FFF7AEFF01E0FFF75FFF204670BD00008E
:1027E00000080240940241420000414270B5044694
:1027F0001548006820F440501349086008460068F6
:1028000040F480500860002010490860002517E05F
:10281000E0090E49091D08606006040E022000F060
:10282000FFF901200A49C1F89402022000F0F8F9EA
:10283000002006490860022000F0F2F9681CC5B2C9
:10284000082DE5DB70BD0000000802409402414203
:102850000000414210B50F48006820F440500D4977
:1028600008600846006840F48050086001200A496A
:1028700008600A49C1F89402042000F0D1F9002050
:1028800005490860042000F0CBF900200349C1F895
:10289000940210BD000802409802414200004142EB
:1028A00010B50F48006820F440500D4908600846F4
:1028B000006840F48050086000200A4908600A4916
:1028C000C1F89802042000F0ABF901200549086026
:1028D0000549C1F89802042000F0A2F910BD0000DB
:1028E00000080240940241420000414210B5002419
:1028F0001348006820F440501149086008460068F9
:10290000086001200F49086000F08AF901200E4993
:10291000C1F8940200F084F907E0601CC4B2FA2CFC
:1029200003DDFFF7BDFF012010BD064880380068B9
:102930000028F2D10349091F086000BFF4E7000036
:1029400000080240980241420000414210B5FFF7E2
:10295000CBFE012000F064F900F0D5F8B4287CD15A
:10296000012140F2072000F0F3F801214FF402703A
:1029700000F0EEF80021962000F0EAF8FD21972003
:1029800000F0E6F80021E32000F0E2F80421E42062
:1029900000F0DEF80221E52000F0DAF80121E6205F
:1029A00000F0D6F80321E72000F0D2F80221F5204C
:1029B00000F0CEF80521D92000F0CAF8CE21DB20A6
:1029C00000F0C6F80321DC2000F0C2F8F821DD2079
:1029D00000F0BEF800219F2000F0BAF83C21A320AF
:1029E00000F0B6F80021B72000F0B2F83C21BB207F
:1029F00000F0AEF80921B22000F0AAF80921CA209F
:102A000000F0A6F801214FF4CC7000F0A1F81721D6
:102A10004FF4D87000F09CF8002140F2AD1000F0A7
:102A200097F80521FF2000F093F805214FF48070FE
:102A300000F08EF8052140F2991000F089F81B2172
:102A40004FF4D37000F084F83E214FF4D67000F0BC
:102A50007FF81F2140F2A71000E02CE000F078F88A
:102A60000021302000F074F81021112000F070F8DF
:102A700030214FF4857000F06BF846213F2000F0C4
:102A800067F8FF21312000F063F86321402000F057
:102A90005FF801212E2000F05BF809211B2000F0D7
:102AA00057F831213E2000F053F82421142000F083
:102AB0004FF8002010BD0120FCE72DE9F04104464D
:102AC0002612E7B2FFF7C6FE5220FFF78FFEFFF790
:102AD0000DFF3046FFF78AFEFFF708FF3846FFF785
:102AE00085FEFFF703FFFFF7B5FE5320FFF77EFEDD
:102AF000FFF7FCFE0020FFF743FE0546FFF7D0FE80
:102B00002846BDE8F08110B50020FFF7D6FF10BDC4
:102B100010B5002400BF4D20FFF7CFFF00F00100EB
:102B20000028F8D00121182000F012F800BF4F2033
:102B3000FFF7C3FF00F004000028F8D06220FFF781
:102B4000BCFF04460721152000F002F8204610BD06
:102B50002DE9F04104460D462612E7B2FFF77AFE52
:102B60005220FFF743FEFFF7C1FE20B1FFF798FEAA
:102B70000120BDE8F0813046FFF738FEFFF7B6FED2
:102B80003846FFF733FEFFF7B1FE2846FFF72EFE6B
:102B9000FFF7ACFE18B1FFF783FE0120E9E7FFF76E
:102BA0007FFE0020E5E700BF7047000010B5044637
:102BB0006FF00400FEF7F0FFE11704EB5171C1F371
:102BC000C701074A11701046007800EB4001C1EBC5
:102BD000C0104FF6FF7101EAC0000249088010BD25
:102BE000100000201200002070B504464FF407705A
:102BF00094FBF0F0C6B24FF4077094FBF0F100FBC9
:102C0000114085B205E04FF4077000F02FF8701EF8
:102C1000C6B2002EF7D115B1284600F027F870BDD6
:102C20000146114A12784A434FF0E0235A610022CC
:102C30009A611A46126942F001021A6100BF4FF010
:102C4000E022106900F001021AB100F48032002A7B
:102C5000F5D04FF0E022126922F001024FF0E0239C
:102C60001A6100229A617047100000200146114A43
:102C700012884A434FF0E0235A6100229A611A46B3
:102C8000126942F001021A6100BF4FF0E0221069A0
:102C900000F001021AB100F48032002AF5D04FF0A2
:102CA000E022126922F001024FF0E0231A610022B3
:102CB0009A6170471200002000BF054A128802F096
:102CC0004002002AF9D0C2B2014B9A80704700003E
:102CD00000100140ADF5047D00208390829081902A
:102CE00080907F907E907D907C907B904FF4A06050
:102CF000FEF760FDA820FFF759FF4FF4E13000F028
:102D000025FC4FF4E13000F077FC40F2A31141F2D2
:102D10008830FFF7FBF9FEF73DFAFFF786F9FFF77A
:102D200015FEFDF769FDFDF751FE1F20FEF77CF94A
:102D300000210846FDF704FDFEF7CEF8CFE3FFF7CC
:102D4000E7FE8190FDF7F6FE7E90FDF76BFF7D902C
:102D5000FDF7D8FF7C90FEF745F87B90FE480078A1
:102D60006D2802D10120839005E0FB4800786E2891
:102D700001D102208390839801287DD1F748017802
:102D8000F64A1278F64B1B787B98CDE92A32CDE9CA
:102D90002C01F2480278F2480178F04B1B787C98BD
:102DA000CDE92630CDE92812ED480178EB480278CC
:102DB000EB4803787D98CDE9233225912290E748AE
:102DC0000278E7480078E5490978E54B1B78CDE9BA
:102DD0001E31CDE92002E1490978E14A1278DF4B42
:102DE0001B787E98CDE91A32CDE91C10DC480178B9
:102DF000DA4A1278DA4B1B788298CDE91632CDE99F
:102E00001801D6480078D6490A78D4490978D44BB5
:102E10001B78CDE91231CDE91420D0480078D04993
:102E20000A78CE490978CE4B1B78CDE90E31CDE931
:102E30001020CA480078CA490A78C8490978C84B9E
:102E40001B78CDE90A31CDE90C20C4480278C4488A
:102E50000078C2490978C24B1B78CDE90631CDE92B
:102E60000802BE480278BE480078BC490978BC4BCD
:102E70001B78CDE9023100E026E1CDE90402B74834
:102E80000078B7490978CDE90010B4480378027892
:102E90000178B448FDF7F4F9AF49B3A0FDF7AAFAF9
:102EA000B8B1B2A162A87E9AFDF7F6F962A8FDF763
:102EB000D7FA80B201462E9062A8FFF7F1FA62A815
:102EC000FDF7CEFA80B201462E9062A8FFF7E8FA2D
:102ED00055E0A149A6A0FDF78DFAB8B1A3A162A85B
:102EE0007D9AFDF7D9F962A8FDF7BAFA80B20146DA
:102EF0002E9062A8FFF7D4FA62A8FDF7B1FA80B26B
:102F000001462E9062A8FFF7CBFA38E0924999A0CB
:102F1000FDF770FAB8B195A162A87C9AFDF7BCF9EB
:102F200062A8FDF79DFA80B201462E9062A8FFF7D5
:102F3000B7FA62A8FDF794FA80B201462E9062A813
:102F4000FFF7AEFA1BE084498BA0FDF753FAB0B14E
:102F500086A162A87B9AFDF79FF962A8FDF780FA27
:102F600080B201462E9062A8FFF79AFA62A8FDF798
:102F700077FA80B201462E9062A8FFF791FA819805
:102F8000642874DCFDF732FC01208290FDF78EFC92
:102F90004FF47A70FFF728FEFDF794FC4FF4487069
:102FA000FFF722FE7548FEF765FE80904FF4FA7039
:102FB000FFF71AFE714840887049C988401A41F6E7
:102FC0005831884215DD6D4880886C49C988401A9F
:102FD00041F6583188420CDDFDF7F2FB40F2DC503F
:102FE000FFF702FEFDF756FC4FF47A70FFF7FCFD89
:102FF000CAE16248808861494988401A41F65831DF
:10300000884215DD5D4880885C49C988401A41F6D0
:10301000583188420CDDFDF7B1FB40F2DC50FFF780
:10302000E3FDFDF737FC4FF47A70FFF7DDFDABE110
:103030005248C08851494988401A41F6583188425F
:1030400016DD4E48C0884D498988401A41F65831EE
:1030500088420DDDFDF7A2FB40F2DC50FFF7C4FD16
:10306000FDF718FC4FF47A70FFF7BEFD8CE11EE00F
:103070004248408841498988401A41F6583188427F
:10308000B6DD3E4840883D49C988401A41F658316E
:103090008842ADDDFDF762FB40F2DC50FFF7A4FD96
:1030A000FDF7F8FB4FF47A70FFF79EFD6CE100200E
:1030B0008290FDF795FB3148FEF7DCFD80904FF4E0
:1030C0007A70FFF791FD5FE1839802286BD12B485E
:1030D000FEF7D0FD8090204929A0FDF78BF970B153
:1030E00022A162A87E9AFDF7D7F862A8FDF7B8F989
:1030F00080B201462E9062A8FFF7D2F9A1E01649EE
:1031000020A0FDF777F970B11FA162A8819AFDF7A1
:10311000C3F862A8FDF7A4F980B201462E9062A818
:10312000FFF7BEF98DE00C4919A0FDF763F9C8B3AC
:103130001248C0880090114880882E900F4840881F
:103140002D90024613A162A82E9BFDF7A5F862A858
:10315000FDF786F980B227E0E80100200200002098
:1031600003000020B04402086800000025646700E6
:10317000690000006A0000006B00000004000020ED
:10318000610000006200000025646D6D0000000019
:1031900063000000723A256420673A256420623A91
:1031A0002564000006E051E001462E9062A8FFF77A
:1031B00077F946E0CA49CBA0FDF71CF960B1FDF7ED
:1031C00015FB4FF44870FFF70FFDFDF709FBC448EE
:1031D000C5A10988018034E0C149C4A0FDF70AF9FE
:1031E00090B1FDF763FB4FF44870FFF7FDFCFDF76E
:1031F00069FB4FF44870FFF7F7FCFDF74BFBB8484D
:10320000B9A1098801801CE0B549B9A0FDF7F2F821
:10321000B8B1FDF7A3FA4FF47A70FFF7E5FCFDF7BC
:10322000ADFA4FF47A70FFF7DFFCFDF7B7FA4FF411
:103230007A70FFF7D9FCFDF7C3FAA948AAA109885B
:1032400001804FF42F70FFF7CFFC9DE07F980A2894
:1032500004DA7F98401CC0B27F908DE000207F9000
:10326000A4480278A3490978A34B1B787B98CDE941
:103270002A31CDE92C029F4802789F4801789D4B66
:103280001B787C98CDE92630CDE928129A4802783F
:1032900098480178984803787D98CDE923312592A4
:1032A0002290944802789448017892480078924B92
:1032B0001B78CDE91E30CDE920128E4909788E4A5F
:1032C00012788C4B1B787E98CDE91A32CDE91C1010
:1032D00089480178874A1278874B1B788298CDE914
:1032E0001632CDE918018348027883480178814875
:1032F0000078814B1B78CDE91230CDE914127D485E
:1033000000787D4909787B4A12787B4B1B78CDE9A0
:103310000E32CDE910107748027877480078754969
:103320000978754B1B78CDE90A31CDE90C0271485B
:10333000007871490A786F4909786F4B1B78CDE99D
:103340000631CDE908206B4802786B48017869485E
:103350000078694B1B78CDE90230CDE9041265484D
:10336000007865490978CDE9001062480378027851
:1033700001786248FCF784FF6148FEF77BFC80908F
:103380004FF42F70FFF730FCC8225E4930A8FDF7DC
:10339000CFF85DA130A8FDF72DF82F902F9820B918
:1033A000C82130A8FDF79DF80CE02F98807B3128CC
:1033B00002D1FDF71BFA05E02F98807B302801D160
:1033C000FDF70EFA54A010210B465A22CDE9001049
:1033D00000210846FEF728F9102000904848408850
:1033E0000523024600212E906420FEF7D9F8102014
:1033F0000090434880880523024600212E909620A5
:10340000FEF7CEF8102000903D48C0880523024604
:1034100000212E90C820FEF7C3F842A110200346D9
:103420006E22CDE9000114210020FEF7FDF88098FE
:1034300028238C22142100907820FDF72BFE3DA03C
:1034400010210B467822CDE9001032210020FEF732
:10345000EBF810200523009032215A20819AFEF7C4
:103460009FF837A010210B467822CDE900104621A5
:103470000020FEF7D9F810200423009046210846CA
:103480007E9AFEF78DF810200423009046216E20CE
:103490007D9AFEF785F81020042300905A214620DB
:1034A0007C9AFEF77DF81020042300905A216E20AC
:1034B0007B9AFEF775F810212F980B46C822CDE9AC
:1034C0000010A0210020FEF7AFF8054810210B46A0
:1034D000C822CDE9001011460020FEF7A5F82EE421
:1034E000E8010020650000006E000000660000009A
:1034F000670000000200002003000020B044020822
:103500000400002058000020706F7765725F7377A9
:103510006974636800000000436F6C6F72446174EB
:10352000613A000043757272656E7420436F6C6F70
:10353000723A200044697374616E63653A2000003A
:103540005765696768743A200000000010B588B0BC
:10355000044601210846FEF739F901211020FEF743
:1035600065F9072209212248FDF700FA07220A21FE
:103570001F48FDF7FBF94FF4C060069002208DF85C
:103580001C008DF81D0000208DF81E0001208DF814
:103590001F0006A91648FDF7A1F902940020ADF816
:1035A0000C00ADF80E00ADF81000ADF814000C20C2
:1035B000ADF8120002A90F48FEF7F8FF01210D48EF
:1035C000FEF78CFF012240F225510A48FEF7C9FFA1
:1035D00025208DF8040003208DF805008DF80600E5
:1035E00001208DF8070001A8FEF7A8F808B010BD6B
:1035F000000002400010014010B588B004460121CF
:103600000846FEF7E3F801214804FEF7EFF8072229
:1036100002212248FDF7AAF9072203211F48FDF7DE
:10362000A5F90C20069002208DF81C008DF81D00D5
:1036300000208DF81E0001208DF81F0006A91748F4
:10364000FDF74CF902940020ADF80C00ADF80E0027
:10365000ADF81000ADF814000C20ADF8120002A96E
:103660000F48FEF7A3FF01210D48FEF737FF0122A7
:1036700040F225510A48FEF774FF26208DF8040019
:1036800003208DF805008DF8060001208DF8070055
:1036900001A8FEF753F808B010BD0000000002407A
:1036A000004400404FF04070E1EE100A7047000007
:1036B000000000000000000000000000202020208A
:1036C000200000200000282850000000000000001A
:1036D000000000005050F85050F8505000000020FA
:1036E00070A8A0603028A8702000000048A8B0A8EA
:1036F00074345448000000002050506CA8A894680E
:1037000000004040800000000000000000000810A1
:103710001020202020201010080040202010101021
:1037200010102020400000000020A87070A8200089
:10373000000000000010107C1010000000000000CD
:10374000000000000000404080000000000000FC7D
:103750000000000000000000000000000000004029
:1037600000000004080810102020404080000000E5
:103770007088888888888870000000002060202079
:10378000202020700000000070888810204080F801
:1037900000000000708808300808887000000000F1
:1037A0001030305090F8103800000000F88080F0A1
:1037B0008808887000000000304880B0C888887091
:1037C00000000000780810102020202000000000D9
:1037D00070888870888888700000000070888898D9
:1037E0006808906000000000000020000000002039
:1037F0000000000000000020000000202000000069
:103800000810204040201008000000000000FC00CC
:10381000FC000000000000004020100808102040BC
:1038200000000000708888102020002000000000A8
:10383000384494B4B4B8443800000000202030501C
:10384000507848CC00000000F0484870484848F0E4
:103850000000000078888080808088700000000070
:10386000F0484848484848F000000000F8485070C8
:10387000504048F800000000F8485070504040E0C8
:1038800000000000384880809C884830000000001C
:10389000CC484878484848CC00000000F820202058
:1038A000202020F8000000007C10101010101010D4
:1038B00090E00000EC485060504848EC00000000E8
:1038C000E0404040404044FC00000000DCD8D8D834
:1038D000A8A8A8AC00000000DC486868585848E870
:1038E00000000000708888888888887000000000C8
:1038F000F0484870404040E0000000007088888830
:1039000088E8987018000000F0484870504848EC6B
:103910000000000078888060100888F00000000037
:10392000F8A820202020207000000000CC48484843
:103930004848483000000000CC4848505030202013
:1039400000000000A8A8A8A8705050500000000077
:10395000D8505020205050D800000000D85050506F
:103960002020207000000000F8901020204048F82F
:103970000000382020202020202020203800004077
:103980004020202010101008080070101010101097
:103990001010101070002050000000000000000007
:1039A00000000000000000000000000000FC4020BB
:1039B00000000000000000000000000000000030D7
:1039C0004838483C000000C04040407048484870BB
:1039D0000000000000000038484048300000001897
:1039E000080808384848483C000000000000003043
:1039F00048784038000000182420207820202078C3
:103A0000000000000000003C48304038443800C04E
:103A100040404070484848EC000000202000006012
:103A20002020207000000010100000301010101036
:103A300010E000C040404058506050C8000000E016
:103A400020202020202020F800000000000000F0AE
:103A5000A8A8A8A800000000000000F0484848EC12
:103A6000000000000000003048484830000000001E
:103A7000000000F04848487040E0000000000038B6
:103A800048484838081C0000000000D8604040E06A
:103A900000000000000000784030087800000000BE
:103AA000002020782020203800000000000000D8EE
:103AB0004848483C00000000000000D8505020203A
:103AC00000000000000000A8A87050500000000096
:103AD000000000D8502050D800000000000000CCAA
:103AE0004848301020C000000000007810202078E6
:103AF00000001810101010301010101018001010C6
:103B00001010101010101010101060202020201025
:103B100020202020600068900000000000000000CD
:103B20000000000000000000000000000000000095
:103B300000000000001010101010101000001010F5
:103B400000000012242448000000000000000000D3
:103B500000000000001212127E2424247E2424245B
:103B600000000000083C4A4A48380C0A0A4A4A3C0D
:103B7000080800000044A4A8A8B0541A2A2A4A44FD
:103B8000000000000030484848506EA494988976A0
:103B90000000006020204000000000000000000045
:103BA000000000020408081010101010100808048B
:103BB0000200004020101008080808080810102013
:103BC0004000000000001010D63838D61010000059
:103BD000000000000000000808087F080808000036
:103BE0000000000000000000000000000000602055
:103BF000204000000000000000007E0000000000E7
:103C000000000000000000000000000000006060F4
:103C100000000000020404040808101010202040D6
:103C2000400000000018244242424242424224180E
:103C30000000000000083808080808080808083EC6
:103C400000000000003C4242420204081020427E74
:103C500000000000003C4242020418040242423CC0
:103C60000000000000040C0C142424447F04041FF2
:103C700000000000007E4040407844020242443888
:103C80000000000000182440405C62424242221CB6
:103C900000000000007E42040408081010101010FC
:103CA00000000000003C4242422418244242423CB0
:103CB00000000000003844424242463A0202241802
:103CC0000000000000000000181800000000181894
:103CD00000000000000000000010000000000010C4
:103CE00010100000000204081020402010080402F8
:103CF00000000000000000007E00007E00000000C8
:103D000000000000004020100804020408102040B9
:103D100000000000003C4242620408080800181835
:103D2000000000000038445AAAAAAAAAAA5C423C91
:103D300000000000001010182828243C444242E7EC
:103D40000000000000F8444444784442424244F8F1
:103D500000000000003E4242808080808042443863
:103D60000000000000F8444242424242424244F80D
:103D70000000000000FC424848784848404242FCAD
:103D80000000000000FC424848784848404040E0BD
:103D900000000000003C44448080808E844444380D
:103DA0000000000000E7424242427E42424242E7B7
:103DB00000000000007C1010101010101010107C7B
:103DC00000000000003E0808080808080808080865
:103DD00088F0000000EE444850705048484444EEDB
:103DE0000000000000E0404040404040404042FEB3
:103DF0000000000000EE6C6C6C6C6C54545454D693
:103E00000000000000C7626252524A4A4A4646E237
:103E1000000000000038448282828282828244381C
:103E20000000000000FC424242427C40404040E032
:103E300000000000003844828282828282B24C38C4
:103E40000600000000FC4242427C4848444442E3F1
:103E500000000000003E4242402018040242427C22
:103E60000000000000FE921010101010101010380A
:103E70000000000000E74242424242424242423CCD
:103E80000000000000E742424424242828181010B3
:103E90000000000000D654545454546C282828289C
:103EA0000000000000E7422424181818242442E7E8
:103EB0000000000000EE44442828101010101038B4
:103EC00000000000007E840408081020204242FC0C
:103ED0000000001E10101010101010101010101004
:103EE0001E000000402020201010100808040404C8
:103EF00002020078080808080808080808080808E6
:103F000078000018240000000000000000000000FD
:103F100000000000000000000000000000000000A1
:103F200000FF006010000000000000000000000022
:103F300000000000000000000038440C34444C36FF
:103F4000000000000000C0404058644242426458F3
:103F50000000000000000000001C22404040221C25
:103F60000000000000000602023E42424242463B80
:103F70000000000000000000003C42427E40423C45
:103F80000000000000000C12107C10101010107CBB
:103F90000000000000000000003E444438403C4265
:103FA000423C00000000C040405C6242424242E7A6
:103FB0000000000000303000007010101010107C65
:103FC00000000000000C0C00001C040404040404A5
:103FD000447800000000C040404E4850704844EE15
:103FE0000000000000107010101010101010107C55
:103FF000000000000000000000FE4949494949ED69
:10400000000000000000000000DC6242424242E783
:104010000000000000000000003C42424242423CDE
:10402000000000000000000000D8644242426458D2
:1040300040E0000000000000001A26424242261A1A
:10404000020700000000000000EE3220202020F8CF
:104050000000000000000000003E42403C02427CA4
:104060000000000000000010107C10101010120C56
:10407000000000000000000000C642424242463BF1
:10408000000000000000000000EE4444282810104A
:10409000000000000000000000DB894A5A5424247C
:1040A0000000000000000000007624181818246E9C
:1040B000000000000000000000E74224241818104F
:1040C0001060000000000000007E44081010227EF6
:1040D00000000003040404040404080404040404A9
:1040E000030008080808080808080808080808085D
:1040F000080800C020202020202010202020202080
:10410000C000205A04000000000000000000000071
:10411000000000000000000000000000000000009F
:10412000000000000000000000000000000000008F
:10413000000000000000000000000000000000007F
:10414000000000000000000000000600060006005D
:104150000600060006000600020004000400040039
:10416000000000000000060006000600000000003D
:10417000000000000000066006600CC019801100FD
:10418000220000000000000000000000000000000D
:10419000000000000000000000000000000000001F
:1041A0000000000000000000000008400840084037
:1041B00008407FE07FE01040108010801080108069
:1041C0007FE07FE0208020802080208000000000B1
:1041D0000000000000000000020002000F801AC072
:1041E00032C033C032001A000E0007000380038083
:1041F00002C032C03AC032C012800F00020002007A
:104200000000000000000000000070805080890065
:10421000890089008A008A005C0075C005400A2078
:104220000A20122012201220214021C0000000008C
:10423000000000000000000000001C0036003600F6
:10424000360036003600340019E038805880CC80C3
:10425000CC80C680C700C31063903CE00000000023
:1042600000000000000030003800080008001000C6
:10427000200000000000000000000000000000001E
:10428000000000000000000000000000000000002E
:10429000000000000000002000400080010001003C
:1042A00002000200040004000400040004000400F2
:1042B0000400020002000100010000800040002014
:1042C000000000000000400020001000080008006E
:1042D00004000400020002000200020002000200CA
:1042E0000200040004000800080010002000400044
:1042F00000000000000000000000000000000200BC
:1043000003000200623072F00B800F807AF062309E
:104310000200020002000000000000000000000097
:10432000000000000000000000000000000000008D
:10433000020002000200020002007FF00200020000
:104340000200020002000000000000000000000067
:10435000000000000000000000000000000000005D
:10436000000000000000000000000000000000004D
:1043700000000000000030003800080008001000B5
:10438000200000000000000000000000000000000D
:10439000000000000000000000007FE000000000BE
:1043A000000000000000000000000000000000000D
:1043B00000000000000000000000000000000000FD
:1043C00000000000000000000000000000000000ED
:1043D0000000000000003800380038000000000035
:1043E00000000000000000200060004000C00080CD
:1043F0000080010001000200020006000400040029
:10440000080008001000100030002000600040008C
:104410000000000000000000000000000F001980F4
:1044200030C030C06060606060606060606060602C
:104430006060606030C030C019800F000000000074
:1044400000000000000000000000000002003E002C
:10445000060006000600060006000600060006002C
:10446000060006000600060006003FC0000000002F
:104470000000000000000000000000001F0021807C
:1044800040C060C060C000C0008001800300060022
:10449000040008001040204060407FC00000000081
:1044A0000000000000000000000000001E0063008B
:1044B000618061800180018003000E000180008026
:1044C00000C000C060C060C061801F00000000002C
:1044D00000000000000000000000000001800180DA
:1044E0000380058005800980118011802180418032
:1044F0007FF0018001800180018007E00000000062
:104500000000000000000000000000003FC020008C
:1045100020002000200020002F00318020C000C09B
:1045200000C060C060C0418021801F00000000000A
:10453000000000000000000000000000078018C01C
:1045400030C0300020006000678068C0706060602C
:10455000606060602060304018C00F000000000004
:104560000000000000000000000000001FE03060BC
:104570002040208000800080010001000200020035
:10458000020006000600060006000600000000000B
:104590000000000000000000000000001F8030C08C
:1045A000606060606060304038C00F00138030C0D1
:1045B000606060606060606030C00F80000000007C
:1045C0000000000000000000000000000F0030802C
:1045D00030C0604060606060606060E031601E60BC
:1045E000006000C000C0308031801E00000000006C
:1045F00000000000000000000000000000000000BB
:104600000000000000000700070007000000000095
:104610000000000000000700070007000000000085
:10462000000000000000000000000000000000008A
:10463000000000000000060006000000000000006E
:104640000000000000000000060006000200040058
:104650000400000000000000000000200040008076
:1046600001000200040008001000200010000800F3
:104670000400020001000080004000200000000053
:10468000000000000000000000000000000000002A
:104690000000000000007FE00000000000007FE05C
:1046A000000000000000000000000000000000000A
:1046B00000000000000000000000200010000800C2
:1046C0000400020001000080004000200040008043
:1046D000010002000400080010002000000000009B
:1046E00000000000000000000000000007C018608B
:1046F000203020303030303000E0018002000200F5
:104700000200000000000700070007000000000092
:1047100000000000000000000000070018C030404A
:1047200033A026A066A065A06D206D206D206D20B1
:104730006D4027803020304018C00F00000000007E
:10474000000000000000000000000000060006005D
:104750000A000B00090009001100118010801F8061
:1047600020C020C0204040404060F0F00000000029
:104770000000000000000000000000007F0031C0C9
:1047800030C030C030C030C031803F0030C0304019
:10479000306030603060306030C07F8000000000EA
:1047A00000000000000000000000000007C018C06A
:1047B00030603020202060006000600060006000F9
:1047C000600060203020304018C00F000000000062
:1047D000000000000000000000000000FE0031802A
:1047E00030C030C030603060306030603060306089
:1047F0003060306030C030C03180FE00000000000A
:10480000000000000000000000000000FFC060C0C9
:10481000602060206000610061007F006100610035
:1048200061006000602060206040FFC00000000068
:10483000000000000000000000000000FFC060C099
:10484000602060206000610061007F006100610005
:1048500061006000600060006000F800000000007F
:104860000000000000000000000000000F001880A1
:10487000304030402040600060006000600063F025
:1048800060C060C030C030C018C00F000000000021
:10489000000000000000000000000000F0F0606078
:1048A000606060606060606060607FE06060606069
:1048B00060606060606060606060F0F00000000058
:1048C0000000000000000000000000003FC00600E3
:1048D00006000600060006000600060006000600A8
:1048E000060006000600060006003FC000000000AB
:1048F0000000000000000000000000001FE00300B6
:10490000030003000300030003000300030003008F
:1049100003000300030003000300030063006600BC
:104920003C0000000000000000000000F3C06180B7
:1049300063006200640068006C007400760062002E
:10494000630061006180608060C0F1E000000000F1
:10495000000000000000000000000000F8006000FF
:104960006000600060006000600060006000600047
:1049700060006000602060206040FFC00000000018
:10498000000000000000000000000000E0E061C046
:1049900061C071C071C072C072C052C05AC05AC0EA
:1049A0005CC04CC04CC04CC048C0E1E000000000FE
:1049B00000000000000000000000000071F0304026
:1049C000384038402C402C4026402640224023408E
:1049D000214021C021C020C020C0F84000000000BC
:1049E0000000000000000000000000000F0019801F
:1049F00030C03040606060606060606060606060D7
:104A000060606060304030C019800F00000000001E
:104A1000000000000000000000000000FF0060C077
:104A20006060606060606060606061C07F006000C6
:104A300060006000600060006000F800000000009E
:104A40000000000000000000000000000F001980BE
:104A500030C0304060606060606060606060606076
:104A600060606E60324033C019800F0001E000C00A
:104A7000000000000000000000000000FF8060C097
:104A8000606060606060606060C07F0062006300C2
:104A90006100618060C060C06060F0700000000074
:104AA0000000000000000000000000001F4030C0B7
:104AB00060406040600070003C001F0007C001C003
:104AC00000E040604060606030C00F800000000087
:104AD0000000000000000000000000007FE0462011
:104AE0008610861006000600060006000600060076
:104AF000060006000600060006001F8000000000F9
:104B000000000000000000000000000078E03040DD
:104B10003040304030403040304030403040304015
:104B2000304030403040304018800F00000000001E
:104B3000000000000000000000000000F0E0604005
:104B40002080208030803080110011001900190071
:104B50000A000A000E000C0004000400000000001F
:104B6000000000000000000000000000EF70462080
:104B700042206220622026402640274027403940BC
:104B80003980198019801180110011000000000087
:104B900000000000000000000000000079E030800C
:104BA0001080188009000D000600040006000600B1
:104BB0000B0009001180108020C071E0000000008F
:104BC000000000000000000000000000F0F0602085
:104BD00020403040108018801D000D000E0006009F
:104BE000060006000600060006001F800000000008
:104BF0000000000000000000000000003FE0304026
:104C000060C0408001800100020002000400040036
:104C1000080018001020302020407FC00000000055
:104C200000000000000007C00400040004000400AD
:104C30000400040004000400040004000400040054
:104C4000040004000400040004000400040007C081
:104C50000000000000000000000020002000100004
:104C60001000080008000800040004000200020010
:104C7000030001000100008000800040004000406F
:104C80000020000000003E000200020002000200BE
:104C90000200020002000200020002000200020004
:104CA00002000200020002000200020002003E00B8
:104CB0000000000006000900108000000000000055
:104CC00000000000000000000000000000000000E4
:104CD00000000000000000000000000000000000D4
:104CE00000000000000000000000000000000000C4
:104CF00000000000000000000000000000000000B4
:104D000000000000000000000000000000000000A3
:104D1000FFF0000000001800060000000000000086
:104D20000000000000000000000000000000000083
:104D30000000000000000000000000000000000073
:104D40000000000000000000000000000000000063
:104D50000000000000000F8030C030C000C007C05D
:104D600038C070C060C060C071D03E7000000000EC
:104D70000000000000000000000010007000300083
:104D800030003000300033803CC03860306030602C
:104D9000306030603060304038C027800000000054
:104DA0000000000000000000000000000000000003
:104DB0000000000000000F00318031806180600041
:104DC000600060006040304030800F000000000054
:104DD00000000000000000000000004003C000C010
:104DE00000C000C000C01EC031C030C060C060C084
:104DF00060C060C060C020C031E01E8000000000C4
:104E000000000000000000000000000000000000A2
:104E1000000000000000078018C0104030603060C3
:104E20003FE03000300018201840078000000000EC
:104E300000000000000000000000000003C0066049
:104E40000C600C000C007F800C000C000C000C00AF
:104E50000C000C000C000C000C003F800000000057
:104E60000000000000000000000000000000000042
:104E70000000000000000FE01B60318031803180B5
:104E800019801F0030003F0033C060C060C071C097
:104E90001F00000000000000000010007000300043
:104EA000300030003000378038C030C030C030C0F3
:104EB00030C030C030C030C030C079E000000000E9
:104EC00000000000000000000000000006000600D6
:104ED0000000000002003E0006000600060006007A
:104EE000060006000600060006003FC000000000A5
:104EF00000000000000000000000000003800380AC
:104F00000000000000800F8001800180018001808E
:104F100001800180018001800180018001803300D7
:104F20003E00000000000000000010007000300093
:104F300030003000300031C0310031003200360026
:104F40003A0031003180308030C079E0000000004C
:104F50000000000000000000000002003E0006000B
:104F60000600060006000600060006000600060011
:104F7000060006000600060006003FC00000000014
:104F80000000000000000000000000000000000021
:104F9000000000000000ECE077606660666066601C
:104FA00066606660666066606660FFF00000000034
:104FB00000000000000000000000000000000000F1
:104FC000000000000000778038C030C030C030C022
:104FD00030C030C030C030C030C079E000000000C8
:104FE00000000000000000000000000000000000C1
:104FF0000000000000000F00198030C06060606099
:1050000060606060606030C030C00F000000000071
:105010000000000000000000000000000000000090
:10502000000000000000778038C0306030603060E1
:1050300030603060306030C038C0378030003000C1
:105040007C000000000000000000000000000000E4
:105050000000000000001E4031C030C060C060C0D1
:1050600060C060C060C020C031C01EC000C000C0B1
:1050700003E000000000000000000000000000004D
:10508000000000000000F9C01A601C601800180041
:1050900018001800180018001800FF000000000099
:1050A0000000000000000000000000000000000000
:1050B0000000000000000FC038C0304030401C002D
:1050C0000F0003C020C020C031C03F80000000009E
:1050D00000000000000000000000000000000400CC
:1050E00004000C000C007F800C000C000C000C0075
:1050F0000C000C000C000C400C400780000000006D
:10510000000000000000000000000000000000009F
:1051100000000000104071C030C030C030C030C04E
:1051200030C030C030C030C039E01E800000000008
:10513000000000000000000000000000000000006F
:1051400000000000000078E03040108010801880DF
:1051500009000D000D00060006000400000000001C
:10516000000000000000000000000000000000003F
:10517000000000000000EF7046206220264026401C
:105180003740398019801980198010000000000014
:10519000000000000000000000000000000000000F
:1051A0000000000000003DE0188008800D000600AF
:1051B000060007000900108010C079E00000000020
:1051C00000000000000000000000000000000000DF
:1051D00000000000000079E01080108010800900BD
:1051E00009000D000600060006000400040024006B
:1051F0003800000000000000000000000000000077
:105200000000000000003F802180230022000600F3
:1052100004000C001840104030C03F800000000027
:1052200000000000000000C00100010001000100BA
:105230000100010001000100020004000200010061
:10524000010001000100010001000100010000C097
:105250000000020002000200020002000200020040
:10526000020002000200020002000200020002002E
:10527000020002000200020002000200020002001E
:1052800002000000000030000800080008000800CC
:1052900008000800080008000400020004000800DC
:1052A0000800080008000800080008000800300096
:1052B0000000000038004420432001C0000000002E
:1052C00000000000000000000000000000000000DE
:1052D00000000000000000000000000000000000CE
:1052E00000000000000000000000000000000000BE
:1052F00000000000000000000000000000000000AE
:10530000000000000000000000000000000000009D
:10531000000000000000000000000000000000008D
:10532000000000000000000000000000000000007D
:10533000000000000000000000000000000000006D
:10534000000000000000000000000000000000005D
:10535000000000000000000000000000000000004D
:10536000000000000000000000000000000003C07A
:1053700003C003C003C003C003C001C0018001809B
:105380000180018001800180018001800000000017
:105390000000018003C003C0018000000000000085
:1053A00000000000000000000000000000000000FD
:1053B00000000000000000000000000000000000ED
:1053C00000000000000000000000000000000000DD
:1053D00000000000000000000000000000000000CD
:1053E0000000000000000318073807380E700C603A
:1053F00018C0318021000000000000000000000003
:10540000000000000000000000000000000000009C
:10541000000000000000000000000000000000008C
:10542000000000000000000000000000000000007C
:10543000000000000000000000000000000000006C
:10544000000000000000000000000000000000005C
:10545000000000000000000000000000000000004C
:105460000000000000000000000000000000040830
:1054700004080408040804087FFE7FFE7FFE08106D
:10548000081008100810081008107FFE7FFE7FFE2D
:105490001830102010201020102000000000000004
:1054A00000000000000000000000000000000000FC
:1054B00000000000000000000000000000000000EC
:1054C00000000000000000000000000000000000DC
:1054D00000000000000000000000000000000000CC
:1054E000000000000000000000000100010003C0F7
:1054F0000D3009181918193819381D000D000F0042
:10550000070003C001E001F001300138011839182B
:10551000391831183130196007C00100010001004D
:10552000000000000000000000000000000000007B
:10553000000000000000000000000000000000006B
:10554000000000000000000000000000000000005B
:10555000000000000000000000000000000000004B
:1055600000000000000000000000000000003810F3
:105570006C104420C620C640C640C640C680C680C7
:1055800044806D38396C024402C602C604C604C6A3
:1055900008C608C60844106C10380000000000005F
:1055A00000000000000000000000000000000000FB
:1055B00000000000000000000000000000000000EB
:1055C00000000000000000000000000000000000DB
:1055D00000000000000000000000000000000000CB
:1055E00000000000000000000000000000000F00AC
:1055F00019003180318031803180310033003A0030
:105600001C00387C3C104C10CE10C620C720C32094
:10561000C1C0C1C260E6317C1E380000000000003D
:10562000000000000000000000000000000000007A
:10563000000000000000000000000000000000006A
:10564000000000000000000000000000000000005A
:10565000000000000000000000000000000000004A
:1056600000000000000038003C003C000C000C0072
:105670000800300060000000000000000000000092
:10568000000000000000000000000000000000001A
:10569000000000000000000000000000000000000A
:1056A00000000000000000000000000000000000FA
:1056B00000000000000000000000000000000000EA
:1056C00000000000000000000000000000000000DA
:1056D00000000000000000000000000000000000CA
:1056E0000000000000000002000400080018003064
:1056F00000200060004000C000C0018001800180E7
:1057000001800180018001800180018000C000C013
:105710000040006000200030001800080004000273
:105720000000000000000000000000000000000079
:105730000000000000000000000000000000000069
:105740000000000000000000000000000000000059
:105750000000000000000000000000000000000049
:1057600000000000000040002000100018000C00A5
:105770000400060002000300030001800180018094
:10578000018001800180018001800180030003000D
:105790000300060004000C00180010002000400068
:1057A00000000000000000000000000000000000F9
:1057B00000000000000000000000000000000000E9
:1057C00000000000000000000000000000000000D9
:1057D00000000000000000000000000000000000C9
:1057E00000000000000000000000000000000000B9
:1057F000000000C001C001C030C6388E1C9C06B03D
:1058000001C001C006B01C9C388E318601C001C0A9
:1058100001C00000000000000000000000000000C7
:105820000000000000000000000000000000000078
:105830000000000000000000000000000000000068
:105840000000000000000000000000000000000058
:105850000000000000000000000000000000000048
:105860000000000000000000000000000000000038
:105870000000000000800080008000800080008028
:1058800000803FFE0080008000800080008000805B
:105890000080000000000000000000000000000088
:1058A00000000000000000000000000000000000F8
:1058B00000000000000000000000000000000000E8
:1058C00000000000000000000000000000000000D8
:1058D00000000000000000000000000000000000C8
:1058E00000000000000000000000000000000000B8
:1058F00000000000000000000000000000000000A8
:105900000000000000000000000000000000000097
:10591000000038003C003C000C000C000800300087
:105920006000000000000000000000000000000017
:105930000000000000000000000000000000000067
:105940000000000000000000000000000000000057
:105950000000000000000000000000000000000047
:105960000000000000000000000000000000000037
:105970000000000000000000000000000000000027
:1059800000007FFE0000000000000000000000009A
:105990000000000000000000000000000000000007
:1059A00000000000000000000000000000000000F7
:1059B00000000000000000000000000000000000E7
:1059C00000000000000000000000000000000000D7
:1059D00000000000000000000000000000000000C7
:1059E00000000000000000000000000000000000B7
:1059F00000000000000000000000000000000000A7
:105A00000000000000000000000000000000000096
:105A1000000018003C003C001800000000000000DE
:105A20000000000000000000000000000000000076
:105A30000000000000000000000000000000000066
:105A40000000000000000000000000000000000056
:105A50000000000000000000000000000000000046
:105A60000000000000000000000200060004000C1E
:105A7000000800180010003000200060004000C046
:105A800000800180010003000200060004000C00F9
:105A900008001800100030002000600040000000E6
:105AA00000000000000000000000000000000000F6
:105AB00000000000000000000000000000000000E6
:105AC00000000000000000000000000000000000D6
:105AD00000000000000000000000000000000000C6
