:020000040800F2
:10000000E00B0020911300083103000833030008BF
:10001000370300083B0300083F030008000000000E
:100020000000000000000000000000004303000882
:1000300045030008000000004703000849030008CA
:10004000AB130008AB130008AB130008AB13000898
:10005000AB130008AB130008AB130008AB13000888
:10006000AB130008AB130008AB130008AB13000878
:10007000AB130008AB130008AB130008AB13000868
:10008000AB130008AB130008AB130008AB13000858
:10009000AB130008AB130008AB130008AB13000848
:1000A000AB130008AB130008AB130008AB13000838
:1000B000AB130008AB130008AB130008AB13000828
:1000C000AB130008AB130008AB130008AB13000818
:1000D000AB13000807130008AB130008AB130008AC
:1000E000AB130008AB130008AB130008AB130008F8
:1000F000AB130008AB130008AB130008AB130008E8
:10010000AB130008AB130008AB130008AB130008D7
:10011000AB130008AB130008AB130008AB130008C7
:10012000AB130008AB130008AB130008AB130008B7
:10013000AB130008AB130008AB130008AB130008A7
:10014000AB130008AB130008AB130008AB13000897
:10015000AB130008AB130008AB130008AB13000887
:10016000AB130008AB130008AB130008AB13000877
:10017000AB130008AB130008AB130008AB13000867
:10018000AB130008AB13000800F002F800F03CF8D5
:100190000AA090E8000C82448344AAF10107DA45E2
:1001A00001D100F031F8AFF2090EBAE80F0013F0F8
:1001B000010F18BFFB1A43F001031847A80A0100FA
:1001C000C80A0100103A24BF78C878C1FAD852078B
:1001D00024BF30C830C144BF04680C6070470000C1
:1001E0000023002400250026103A28BF78C1FBD840
:1001F000520728BF30C148BF0B6070471FB502F0DF
:1002000071FA1FBD10B510BD02F039FA1146FFF7A3
:10021000F5FF00F009F802F057FA03B4FFF7F2FF18
:1002200003BC01F011F800001CB54FF4A06001F010
:10023000CFF8A82000F086FF4FF4E13001F011F86C
:1002400000F08CF900F09EFE4FF61F0000F0F8FA67
:100250000021084600F08AFE4FF4784020490880CB
:100260004FF6FF701F4908801FA020210B46F02287
:10027000CDE900106421002000F022FE1EA018210C
:100280000B46F022CDE900108C21002000F018FE72
:100290004FF6FF70124908801F20124908801BA0EA
:1002A00010210B46F022CDE90010AA21002000F019
:1002B00007FE1AA00C210B46F022CDE90010C82140
:1002C000002000F0FDFD09E017480068C043174911
:1002D000C1F8A4024FF47A7000F096FFF4E7000032
:1002E00014000020160000205761725368697020C6
:1002F00053544D33324631005446544C43442054F9
:10030000455354203234302A3234300041544F4D5A
:1003100040414C49454E54454B0000003230313984
:100320002F312F3700000000A48242420080424259
:10033000704700BFFEE700BFFEE700BFFEE700BF5B
:10034000FEE7704770477047704700000CB500200B
:10035000019000907648006840F48030744908604D
:1003600000BF7348006800F4003000900198401C02
:100370000190009818B90198B0F5A04FF1D16C48E0
:10038000006800F4003010B10120009001E000206E
:1003900000900098012846D165484030006840F040
:1003A00080506349403108606248006840F4404032
:1003B000604908605E48083000685D49083108609F
:1003C0000846006840F4004008600846006840F4B1
:1003D000A05008605848091F0860081F006840F0D6
:1003E0008070091F086000BF5148006800F000706D
:1003F0000028F9D040F20570504908604C48083098
:10040000006820F003004A49083108600846006887
:1004100040F00200086000BF45480830006800F066
:100420000C000828F8D10CBD10B54548006840F410
:100430007000434908603E48006840F001003C49B4
:10044000086000203A4908310860394800683D4991
:100450000840374908603C48091D0860081F0068CB
:1004600020F48020091F0860002031490C31086009
:10047000FFF76CFF4FF0006031498039086010BD14
:1004800070B500200022022300240221284D0835E7
:100490002D6805F00C0020B1042806D0082834D1BE
:1004A00007E02A4D2A4E356033E02A4D284E35604C
:1004B0002FE01F4D2D1D2D68C5F380541C4D2D1DA3
:1004C0002D6805F03F0154B1224DB5FBF1F5184EF2
:1004D000361D3668C6F3881605FB06F209E01B4D8B
:1004E000B5FBF1F5124E361D3668C6F3881605FBCE
:1004F00006F20F4D2D1D2D68C5F301456D1C6B00D7
:10050000B2FBF3F5124E356003E0104D104E35602E
:1005100000BF00BF064D08352D68C5F303150E4E0C
:10052000705D0B4D2D68C540094E356070BD0000F3
:10053000003802400070004008544007003C024070
:1005400088ED00E0FFFFF6FE103000240024F400E8
:100550000000002000127A00040000201CB50121D8
:10056000202001F0C9FA4FF4C060009001208DF8FE
:10057000040000208DF8060003208DF805000120FE
:100580008DF807006946044801F018F84FF4C0617F
:10059000014801F08FF81CBD0014024010B504465C
:1005A00000BF02214E4801F00BFE0028F9D0214681
:1005B0004B4801F0BCFD00BF0121494801F000FE9D
:1005C0000028F9D0464801F0AFFDC0B210BD00B51B
:1005D00087B00121022001F08FFA0121080301F008
:1005E000E5FA2820059002208DF8180000208DF8EB
:1005F0001A0003208DF8190001208DF81B0005A9B1
:10060000384800F0DBFF05220321364801F061F88D
:1006100005221146334801F05CF80121080301F07E
:100620001AFB00214FF4805001F015FB0020ADF8BB
:1006300000004FF48270ADF802000020ADF8040015
:100640000220ADF806000120ADF808004002ADF828
:100650000A000020ADF80C00ADF80E000720ADF840
:10066000100069461E4801F0E7FB01211C4801F01B
:10067000DDFCFF20FFF792FF07B000BD10B5044678
:10068000174800884FF6C77108401549088008468A
:100690000088204308800121114801F0C7FC10BDEB
:1006A0002DE9F04105460E460027002414E006E03F
:1006B000781CC7B2C82F02DD0020BDE8F0810221FE
:1006C000074801F07DFD0028F2D0295D044801F0C3
:1006D0002EFD0027601C84B2B442E8DB0120ECE769
:1006E00000300140000402401CB50121422001F00D
:1006F00003FA4EF20200009001208DF80400002061
:100700008DF8060003208DF8050001208DF8070004
:100710006946FE4800F052FF4EF20201FB4800F02D
:10072000CBFF0020FA490860FA49C1F89802F8495D
:10073000091D0860782000F067FD0120F549C1F827
:10074000A002FFF744FF1CBD2DE9F04105460E460F
:100750004FF6FF70B6FBF0F7002416E0BC420CD158
:100760004FF6FF70B6FBF0F100FB1168C4EB0441DB
:1007700048194146FFF794FF06E0C4EB04414819CD
:100780004FF6FF71FFF78CFF641CBC42E6D9BDE851
:10079000F08101B50020E049086001216846FFF7BB
:1007A000D3FF08BD01B50120DB490860012168467F
:1007B000FFF7CAFF08BD38B504460020009020129C
:1007C0008DF80000E0B28DF801000120D2490860E8
:1007D00002216846FFF7B8FF38BD2DE9F041044615
:1007E0000D4616461F462A20FFF7D3FF2012FFF7BB
:1007F000D9FFE0B2FFF7D6FF3012FFF7D3FFF0B218
:10080000FFF7D0FF2B20FFF7C4FF2812FFF7CAFF26
:10081000E8B2FFF7C7FF3812FFF7C4FFF8B2FFF7DF
:10082000C1FF2C20FFF7B5FFBDE8F0810120B849DA
:10083000091F086070470020B549091F086070470C
:10084000F8B505460020009028128DF80000E8B2A7
:100850008DF80100EF231A4600210846FFF7BDFF7F
:1008600000240DE09DF80000AC4901F814009DF84B
:100870000100012101EB4401A84A5054601C84B2DC
:10088000B4F5107FEEDB0120A3490860002606E0E6
:100890004FF49061A148FFF757FF701C86B2642E99
:1008A000F6DBF8BD2DE9F05F0746884691469A468B
:1008B000DDF828B0002400250026A9EB0700401C25
:1008C000AAEB0801491C48434500B5F5906F03D9D0
:1008D000A5F590664FF4906553464A464146384622
:1008E000FFF77BFF20E000240AE04FEA2B208B4A31
:1008F00002F814006000401C02F800B0601C84B2D2
:10090000B4EB550FF1D30120834908602946834891
:10091000FFF71AFF06B908E0B6F5906F02D9A6F501
:10092000906601E035460026DDE700BFBDE8F09F98
:1009300070B504460D462B46224629462046FFF751
:100940004CFF77480088FFF736FF70BD70B504464E
:100950000D4616462B46224629462046FFF73DFF08
:100960003046FFF728FF70BD2DE9FF4F87B00746DF
:100970008846914600200590049001900A98804591
:1009800029D14A46414638460A9BFFF726FF0020F8
:1009900001900FE0624800880112604A019802F855
:1009A00010105F48017801984000401C11540198D4
:1009B000401C0190A9EB070101988142EAD801206F
:1009C00055490860A9EB070041005448FFF7BCFEF9
:1009D0000BB0BDE8F08FA9EB07040A98A0EB08055F
:1009E0000397CDF80880002C02DD4FF0010A06E0E5
:1009F00014B94FF0000A02E04FF0FF3A6442002DB4
:100A000002DD4FF0010B06E015B94FF0000B02E0DC
:100A10004FF0FF3B6D42AC4201DD264600E02E4622
:100A20000020069021E0029A91B2039A90B2FFF75B
:100A30007FFF059820440590049828440490059869
:100A4000B04205DD0598801B059003985044039043
:100A50000498B04205DD0498801B04900298584425
:100A600002900698401C80B20690711C069888423D
:100A7000D9DD00BFACE72DE9F04104460D4616462E
:100A80001F462B46324629462046FFF76DFF3B4660
:100A9000224629462046FFF767FF3B463246394645
:100AA0002046FFF761FF3B46324629463046FFF7B6
:100AB0005BFFBDE8F0812DE9F04706460F46904602
:100AC000002445460320A0EB480955E03A1B91B2AB
:100AD000721B90B2FFF72CFF3A1B91B2721990B2C1
:100AE000FFF726FF7A1991B2321B90B2FFF720FF71
:100AF0003A1B91B2721B90B2FFF71AFF7A1B91B2A8
:100B0000321B90B2FFF714FF3A190BE000040240C9
:100B10009C02434200004342908240423400002045
:100B20001400002091B2721990B2FFF701FF7A1BF6
:100B300091B2321990B2FFF7FBFE7A1991B23219D5
:100B400090B2FFF7F5FE3A1991B2721B90B2FFF71F
:100B5000EFFE641CB9F1000F03DAA000801D814490
:100B600004E0601B80000A3081446D1E7A1991B246
:100B7000321990B2FFF7DCFEAC42A7DDBDE8F0878A
:100B80002DE9FE4F82468B4616461C46A6F12000F4
:100B9000C6B204EBD4714910C1F1F001514503DB39
:100BA000C4F1F001594501DABDE8FE8F04EBD470C1
:100BB0000AEB6000401E82B20BEB0400401E83B2C1
:100BC000594650460094FFF708FE102C01D0202C07
:100BD0004ED12046E31704EB5373DB1021464FEA56
:100BE000E47C04EB5C7C4FEAEC0CA4EBCC0CBCF199
:100BF000000F02D04FF0010C01E04FF0000C6344F5
:100C0000224604EBD27C4FEA6C0C03FB0CF303F09E
:100C1000FF09002529E0102C04D1FE4800EB061046
:100C2000475D07E0202C04D1FB4800EBC610475D70
:100C300000E0B9E74FF0000812E007F0800018B1BB
:100C4000F6480088029002E0F54800880290029879
:100C5000FFF7B1FD7806070E08F1010000F0FF086C
:100C6000B8F1080FE9DB681CC5B24D45D3DB80E065
:100C70000C2C45D12046E31704EB5373DB102146BF
:100C80004FEAE47C04EB5C7C4FEAEC0CA4EBCC0C6C
:100C9000BCF1000F02D04FF0010C01E04FF0000C4E
:100CA0006344224604EBD27C4FEA6C0C03FB0CF34A
:100CB00003F0FF09002520E006EB4600D94901EBCF
:100CC0008000475D4FF0000812E007F0800018B187
:100CD000D2480088029002E0D14800880290029831
:100CE000FFF769FD7806070E08F1010000F0FF0824
:100CF000B8F1060FE9DB681CC5B24D45DCDB38E016
:100D0000182C36D12001C11700EB5171C1F3C7096E
:100D100000252CE006EB4600C34901EB0010475DBF
:100D2000284605EBD0714910A5EB410111B9082007
:100D3000019001E0042001904FF0000812E007F05C
:100D4000800018B1B5480088029002E0B4480088DD
:100D500002900298FFF72FFD7806070E08F10100B8
:100D600000F0FF0801988045E9DB681CC5B24D45DD
:100D7000D0DB00BF18E710B50246012000E0504369
:100D80000B1EA1F10104E1B2F9D110BD2DE9FF5F05
:100D9000074691461E460E9D4FF0000A002435E09E
:100DA000301B401EC1B20A20FFF7E5FFB9FBF0F08F
:100DB0000A21B0FBF1F201FB1208BAF1000F14D1C5
:100DC000701EA04211DDB8F1000F0CD1AB4605EB4F
:100DD000DB71491001FB047188B22B462022019976
:100DE000FFF7CEFE10E04FF0010AAB4605EBDB71DA
:100DF000491001FB047188B208F13001CAB22B46D8
:100E00000199FFF7BDFE00BF601CC4B2B442C7DB4E
:100E1000BDE8FF9F2DE9FF4F81B0064691461F4672
:100E2000DDE90E4A00200090002544E0781B401EBA
:100E3000C1B20A20FFF79FFFB9FBF0F00A21B0FB17
:100E4000F1F201FB1208009820BB781EA84221DDB8
:100E5000B8F1000F1CD1BAF1000F0CD0A34604EB7F
:100E6000DB71491001FB056188B2234630220299EB
:100E7000FFF786FE0BE0A34604EBDB71491001FB94
:100E8000056188B2234620220299FFF779FE10E01F
:100E900001200090A34604EBDB71491001FB0561C2
:100EA00088B208F13001CAB223460299FFF768FE02
:100EB00000BF681CC5B2BD42B8DB05B0BDE8F08F0D
:100EC0002DE9F04704460D4690469946DDE908674E
:100ED00004F0FF0A08EB04001FFA80F809EB050094
:100EE0001FFA80F914E0444502DB5446A81985B284
:100EF0004D4500DB12E03A78334629462046FFF79D
:100F00003FFE304606EBD07104EB61018CB27F1CD2
:100F100038787E2802DC38782028E4DA00BFBDE883
:100F2000F0872DE9F04106460F4614461D46DDF8D0
:100F300018803019F02802DC7819F02801DDBDE8AE
:100F4000F0817819401E83B23019401E82B23946B2
:100F50003046FFF742FC01203449086004FB05F0ED
:100F600041004046FFF7F0FB00BFE8E738B5044614
:100F70000D462F485223F022294600902046FFF7C5
:100F8000D0FF38BD10B5FFF7AFFB782000F03CF97B
:100F90001120FFF7FEFB782000F036F93620FFF72E
:100FA000F8FB0020FFF7FEFB3A20FFF7F2FB65207D
:100FB000FFF7F8FBB220FFF7ECFB0C20FFF7F2FB8A
:100FC0000C20FFF7EFFB0020FFF7ECFB3320FFF7CF
:100FD000E9FB3320FFF7E6FBB720FFF7DAFB7220CF
:100FE000FFF7E0FBBB20FFF7D4FB3D20FFF7DAFB68
:100FF000C020FFF7CEFB2C20FFF7D4FBC220FFF769
:10100000C8FB0120FFF7CEFBC320FFF7C2FB19206E
:1010100010E00000622B00082243000814000020AA
:1010200016000020EE26000852310008908240424F
:10103000A2720008FFF7B6FBC420FFF7AAFB20202E
:10104000FFF7B0FBC620FFF7A4FB0F20FFF7AAFBBA
:10105000D020FFF79EFBA420FFF7A4FBA120FFF701
:10106000A1FBE020FFF795FBD020FFF79BFB0420BE
:10107000FFF798FB0D20FFF795FB1120FFF792FB80
:101080001320FFF78FFB2B20FFF78CFB3F20FFF790
:1010900089FB5420FFF786FB4C20FFF783FB1820C9
:1010A000FFF780FB0D20FFF77DFB0B20FFF77AFB9E
:1010B0001F20FFF777FB2320FFF774FBE120FFF7EA
:1010C00068FBD020FFF76EFB0420FFF76BFB0C20C2
:1010D000FFF768FB1120FFF765FB1320FFF762FBAA
:1010E0002C20FFF75FFB3F20FFF75CFB4420FFF75E
:1010F00059FB5120FFF756FB2F20FFF753FB1F2012
:10110000FFF750FB1F20FFF74DFB2020FFF74AFBA6
:101110002320FFF747FB2120FFF73BFB2920FFF7A8
:1011200038FBEF231A4600210846FFF756FB4FF61F
:10113000FF70FFF785FB01200149086010BD00002A
:101140009802434210B504466FF0040000F092F993
:10115000E11704EB5171C1F3C701394A1170104610
:10116000007800EB4001C1EBC0104FF6FF7101EABF
:10117000C0003449088010BD0146314A12784A4304
:101180004FF0E0235A6100229A611A46126942F038
:1011900001021A6100BF4FF0E022106900F0010265
:1011A0001AB100F48032002AF5D04FF0E022126923
:1011B00022F001024FF0E0231A6100229A61704789
:1011C0000146204A12884A434FF0E0235A61002228
:1011D0009A611A46126942F001021A6100BF4FF08B
:1011E000E022106900F001021AB100F48032002AF6
:1011F000F5D04FF0E022126922F001024FF0E02317
:101200001A6100229A61704770B504464FF4077066
:1012100094FBF0F0C6B24FF4077094FBF0F100FBC2
:10122000114085B205E04FF40770FFF7C9FF701E4B
:10123000C6B2002EF7D115B12846FFF7C1FF70BD29
:10124000180000201A00002000BF704700BF4C4A61
:10125000128802F04002002AF9D0C2B2484B9A80AC
:10126000704710B588B004460121084600F044FCE0
:101270000121102000F09AFC07220921414800F0CA
:1012800028FA07220A213F4800F023FA4FF4C060F1
:10129000069002208DF81C008DF81D0000208DF8AE
:1012A0001E0001208DF81F0006A9364800F086F9BF
:1012B00002940020ADF80C00ADF80E00ADF810005F
:1012C000ADF814000C20ADF8120002A92C4801F072
:1012D0000EF801212A4801F092F8012240F225512E
:1012E000274801F042F925208DF8040003208DF8ED
:1012F00005008DF8060001208DF8070001A800F018
:101300006CF808B010BD10B540F225511C4801F032
:1013100067F910B31A4801F0A1F8C4B21A4800885E
:1013200000F40040C8B91848008800F4804060B15B
:101330000A2C03D000201449088020E012480088BD
:1013400040F400401049088019E00D2C06D10E48E9
:10135000008840F480400C49088010E00A4800886A
:10136000C0F30D0009490C5407480088401C064989
:10137000088008460088C72801DD0020088010BDCD
:10138000001001400000024020000020B4040020B2
:101390000948804709480047FEE7FEE7FEE7FEE709
:1013A000FEE7FEE7FEE7FEE7FEE7FEE70448054945
:1013B000054A064B7047000029040008890100080F
:1013C000E0050020E00B0020E0070020E0070020FF
:1013D00032490143324A1160704770B50021002341
:1013E0000F22C4781CB32E4C246804F4E064C4F5C6
:1013F000E064C4F30721C1F10404E3B20A41447874
:101400009C40E1B28478144021430C07210E254C06
:1014100005786155047804F01F050124AC40057877
:101420006D11AD0005F1E025C5F8004109E0047833
:1014300004F01F050124AC401B4D0678761145F8D9
:10144000264070BD194A0A400243154B1B1F1A6003
:10145000704739B1124A121D12680243104B1B1D0E
:101460001A6006E00E4A121D126882430C4B1B1DC7
:101470001A607047042808D14FF0E021096941F053
:1014800004014FF0E022116107E04FF0E02109690B
:1014900021F004014FF0E022116170470000FA05CD
:1014A0000CED00E000E400E080E100E080FFFF1FC1
:1014B00010B504469848844208D10121084600F03E
:1014C00086FB0021012000F082FB76E093488442F5
:1014D00008D10121022000F07AFB0021022000F057
:1014E00076FB6AE08E48844208D10121042000F096
:1014F0006EFB0021042000F06AFB5EE08948844214
:1015000008D10121082000F062FB0021082000F032
:101510005EFB52E08448844208D10121102000F093
:1015200056FB0021102000F052FB46E07F48844229
:1015300008D10121202000F04AFB0021202000F0EA
:1015400046FB3AE07A48844208D10121402000F06D
:101550003EFB0021402000F03AFB2EE0754884421B
:1015600008D10121802000F032FB0021802000F012
:101570002EFB22E07048844208D10121801500F042
:1015800026FB0021A01500F022FB16E06B488442E8
:1015900008D10121401500F01AFB0021601500F070
:1015A00016FB0AE06648844207D10121001500F0CD
:1015B0000EFB0021201500F00AFB10BDF0B50A4615
:1015C00000210023002400BF3DE0012505FA01F3BE
:1015D000156805EA03049C4234D105684F000326D0
:1015E000BE40B543056015794E00B54006683543E9
:1015F00005601579012D02D01579022D16D1856867
:101600004F000326BE40B543856055794E00B54076
:10161000866835438560456801268E40B543456040
:10162000456896798E40B6B235434560C5684F002F
:101630000326BE40B543C560D5794E00B540C668A7
:101640003543C560491C1029BFD3F0BD4FF6FF716B
:1016500001600021017141718171C171704708B54C
:101660004FF480320092009A0A430092009AC261BD
:10167000C161009AC261C2690092C269009208BD4C
:101680000246002013690B400BB1012000E000204E
:1016900070470146086980B27047024600205369CE
:1016A0000B400BB1012000E0002070470146486963
:1016B00080B2704701837047418370470AB101834C
:1016C00000E0418370474161704742694A4042618E
:1016D0007047F0B5002300244D07ED0E02FA05F324
:1016E000CE1000F1200555F826504E07F70E0F26B4
:1016F000BE40B543CF1000F1200646F82750CE106B
:1017000000F1200555F8265045EA0304CE1000F1FB
:10171000200545F82640F0BD0000024000040240CC
:1017200000080240000C0240001002400014024079
:1017300000180240001C0240002002400024024029
:1017400000280240F948006840F00100F7490860AD
:101750000020F64908310860F4480068F449084060
:10176000F2490860F348091D0860F348EF498431E5
:101770000860F0481038091D0860EC48006820F443
:101780008020EA4908600020E8490C310860E749F8
:101790008C31086070470021E44A921C1170114698
:1017A0000870704710B501460022002300204A113E
:1017B000012A02D1DD4C236808E0022A03D1DB4C68
:1017C0007034236802E0D94C7434236801F01F029E
:1017D000012494401C400CB1012000E0002010BD09
:1017E00038B5002000900024002500BF3120FFF70D
:1017F000D9FF05460098401C00900098B0F5A04F16
:1018000001D0002DF2D03120FFF7CCFF08B1012428
:1018100000E00024204638BD01460020C34A10687D
:1018200020F0F80040EAC10010607047C34908602A
:1018300070470021BD4A703211701170012802D02A
:1018400004280AD104E00121B84A7032117005E081
:101850000521B64A7032117000E000BF00BF70472A
:10186000B7490860704770B5049C41EA82150126AB
:10187000C6EB530645EA0645054345EA0465AB4E0B
:10188000361D356070BDAD4908667047820142EA79
:101890000172A64B84331A607047A8498866704766
:1018A00010B5830143EA016343EA02739F4C883415
:1018B000236010BDA14908677047A049C8647047FC
:1018C00002460020994B0833186820F0EC6042EA89
:1018D00001031843954B08331860704702460020F7
:1018E000924B0833186820F0784042EA010318430D
:1018F0008E4B083318607047014600208B4A08322F
:10190000106820F0030008431060704787480830D3
:10191000006800F00C00704701460020834A08323E
:10192000106820F0F0000843106070470146002066
:101930007E4A0832106820F4E05008431060704777
:1019400001460020794A0832106820F4604040EADD
:10195000C10010607047F0B500210022002402256C
:1019600000260223714F08373F6807F00C0121B1B0
:10197000042905D0082937D105E0724F076036E009
:10198000714F076033E0694F3F1D3F68C7F38056D2
:10199000664F3F1D3F6807F03F036EB16A4FB7FBCC
:1019A000F3F7DFF888C10CF1040CDCF800C0CCF3CD
:1019B000881C07FB0CF40CE0624FB7FBF3F7DFF871
:1019C0006CC10CF1040CDCF800C0CCF3881C07FBE4
:1019D0000CF4564F3F1D3F68C7F301477F1C7D0045
:1019E000B4FBF5F7076002E0564F076000BF00BF89
:1019F0004E4F08373F6807F0F0010909534F7A5CF2
:101A00000768D7404760494F08373F6807F4E051FF
:101A1000890A4E4F7A5C4768D7408760434F083742
:101A20003F6807F46041490B484F7A5C4768D740EC
:101A3000C760F0BD002100F44072B2F5407F0AD1CA
:101A40003A4A0832116821F4F811414A0240114320
:101A5000364A08321160354A70321268C0F30B03FF
:101A60001A43324B70331A60704735494439086065
:101A700070473349403908607047364908607047FD
:101A800001460020294A8C32106820F01F004A1EAF
:101A90001043264A8C321060704701460020234ACA
:101AA0008C32106820F4F8504A1E40EA02201F4A87
:101AB0008C3210607047014600201C4A8C3210683E
:101AC00020F4401008431060704701460020174A78
:101AD0008C32106820F440000843106070470146C3
:101AE0000020124A8C32106820F440300843106005
:101AF000704719490860704739B10C4A3032126892
:101B000002430A4B30331A6006E0084A303212684A
:101B10008243064B30331A607047F9B1034A3432BE
:101B200012680243014B34331A601CE00038024053
:101B3000FFFFF6EA1030002400300020000047428A
:101B4000800E47420024F40000127A002200002098
:101B5000FFFCFF0F5C014742E01147428F4A1268C9
:101B600082438E4B1A60704739B18C4A121D12683D
:101B700002438A4B1B1D1A6006E0884A121D126838
:101B80008243864B1B1D1A60704739B1834A0C3261
:101B900012680243814B0C331A6006E07F4A0C3214
:101BA000126882437D4B0C331A60704739B17B4A0F
:101BB000103212680243794B10331A6006E0774AFC
:101BC000103212688243754B10331A60704739B176
:101BD000724A243A12680243704B243B1A6006E0B2
:101BE0006E4A243A126882436C4B243B1A60704759
:101BF00039B16A4A203A12680243684B203B1A60A6
:101C000006E0664A203A12688243644B203B1A6021
:101C1000704739B1614A1C3A126802435F4B1C3B62
:101C20001A6006E05D4A1C3A126882435B4B1C3B1B
:101C30001A60704739B1594A143A12680243574B37
:101C4000143B1A6006E0554A143A12688243534B1B
:101C5000143B1A60704739B1504A103A1268024377
:101C60004E4B103B1A6006E04C4A103A1268824311
:101C70004A4B103B1A60704739B1484A1C3212680F
:101C80000243464B1C331A6006E0444A1C32126879
:101C90008243424B1C331A60704739B13F4A2032AD
:101CA000126802433D4B20331A6006E03B4A203263
:101CB00012688243394B20331A60704739B1374A72
:101CC000243212680243354B24331A6006E0334A4B
:101CD000243212688243314B24331A60704739B181
:101CE0002E4A2C32126802432C4B2C331A6006E029
:101CF0002A4A2C3212688243284B2C331A607047D0
:101D000039B1264A303212680243244B30331A600C
:101D100006E0224A303212688243204B30331A6088
:101D20007047012808D11D493C31096841F008017C
:101D30001A4A3C32116007E018493C31096821F029
:101D40000801164A3C321160704739B1134A273AEC
:101D500012780243114B273B1A7006E00F4A273ACC
:101D6000127882430D4B273B1A7070470B48403066
:101D7000006840F0807009494031086070470146B2
:101D80000020064A283A12680A400AB1012000E001
:101D900000207047014926390870704734380240E6
:101DA00010B50446FB48844208D101218014FFF796
:101DB00052FF0021A014FFF74EFF3CE0F64884429A
:101DC00008D101210014FFF735FF00212014FFF78F
:101DD00031FF30E0F148844208D10121C013FFF700
:101DE00029FF0021E013FFF725FF24E0EC4884429F
:101DF00008D101214014FFF72EFF00216014FFF7E6
:101E00002AFF18E0E748844209D101210805FFF7BD
:101E100022FF00214FF48010FFF71DFF0BE0E24886
:101E2000844208D101214805FFF715FF00214FF436
:101E30000010FFF710FF10BD10B50022028802F459
:101E400041520B884C8823438C882343CC882343FE
:101E50000C8923434C8923438C892343CC89234316
:101E60001A430280838B4FF2FF74234083830B8AD3
:101E7000038210BD2DE9F04F0025022300244FF00E
:101E8000010900220026002794469046B0F81CA0C5
:101E90004FF2400B0AEA0B0AA0F81CA04FF0020A0E
:101EA000A0F820A0858BD1F808A0BAF1020F01D1CB
:101EB00000BF82E0B1F804A0BAF1000F02D14FF0E8
:101EC000010901E04FF00209DFF8E0A2DAF800A012
:101ED0000AF4000ABAF1000F09D0DFF8D0A2DAF84C
:101EE00000A02AF4000ADFF8C4B2CBF800A0DFF8A3
:101EF000BCA20AF17C0ADAF800A0CAF3881CDFF859
:101F0000ACA20AF17C0ADAF800A0CAF30278DFF882
:101F10009CA2AAF1040ADAF800A00AF03F07DFF851
:101F20008CA2AAF1040ADAF800A00AF4800ABAF531
:101F3000800F08D1DFF878A2BAFBF7FA0AFB0CFA97
:101F4000BAFBF8F607E0DFF86CA2BAFBF7FA0AFB77
:101F50000CFABAFBF8F6B1F806A0BAF5007F0ED17C
:101F60004FEA162A0AEB8A0A4FEA4A0AD1F808B061
:101F7000BAFBFBFA0AF1050A1FFA8AF20FE04FEAF0
:101F8000491AB6FBFAFA0AEB8A0A4FEA4A0AD1F86A
:101F900008B0BAFBFBFA0AF1050A1FFA8AF24FF001
:101FA0000A0AB2FBFAF202F00104A2EB040ACAF335
:101FB0004F034FF6FF7A0AEA0424022B01DBFF2BC2
:101FC00001DD02230024B1F806A04AEA040A4AEA25
:101FD000030AA0F820A0B1F804A0B1F80CB04AEAB6
:101FE0000B0AB1F802B04AEA0B0AB1F800B04AEAAB
:101FF0000B0A4AF4006A4AEA05058583BDE8F08FBA
:102000000021018041808180C180018141818181E5
:10201000C1810721018270470021018041808180B8
:10202000C1800221816000218181704721B1028835
:1020300042F04002028004E002884FF6BF731A406B
:102040000280704721B1828B42F48062828304E077
:10205000828B4FF6FF331A408283704702884FF21B
:10206000FF731A40028002880A4302807047B1F56C
:10207000804F04D1028842F48042028004E002884A
:102080004BF6FF731A40028070474FF6FF62914291
:1020900004D0028842F48072028004E002884FF685
:1020A000FF631A400280704721B1828842F0040227
:1020B000828004E082884FF6FB731A40828070476A
:1020C00021B1828842F01002828004E082884FF6BB
:1020D000EF731A408280704730B500220023848B52
:1020E0004FF240052C40848302240484828B0C88A8
:1020F000B4F5007F01D00C8814B94FF4807308E068
:102100000C88B4F5407F03D00C88B4F5807F00D1F3
:1021100000238C888D892C434D882C431C4344F428
:1021200000642243828330BD0146888970478181E3
:10213000704721B1028842F40052028004E0028814
:102140004DF6FF731A4002807047018841F48051B8
:102150000180704702460020012901D0108B00E069
:10216000908A70470146088A70471AB183880B43EA
:10217000838002E083888B438380704730B50024DE
:1021800000230C110125A540ABB2AAB185881D43DF
:10219000858014E00030014000380040003C0040E1
:1021A0000034014000500140005401400838024012
:1021B00000127A000024F40085889D43858030BD9C
:1021C0000246002013890B400BB1012000E00020E3
:1021D0007047CA4302817047F0B5024600200024D0
:1021E0000023002501F00F070126BE40B4B20B11F9
:1021F00001269E40B3B2968806EA0305168926405A
:1022000016B10DB1012000E00020F0BD10B5002294
:1022100001F00F040123A3409AB2D343038110BD00
:1022200010B50446FA48844208D101211020FFF776
:1022300012FD00211020FFF70EFD57E0F548844203
:1022400009D101214804FFF7F5FC00214FF40030CB
:10225000FFF7F0FC4AE0F048844209D101218804EC
:10226000FFF7E8FC00214FF48020FFF7E3FC3DE09E
:10227000EA48844209D10121C804FFF7DBFC0021B0
:102280004FF40020FFF7D6FC30E0E548844209D146
:1022900001210805FFF7CEFC00214FF48010FFF765
:1022A000C9FC23E0DF48844208D101212020FFF748
:1022B000D2FC00212020FFF7CEFC17E0DA48844250
:1022C00009D101218807FFF7B5FC00214FF08040BC
:1022D000FFF7B0FC0AE0D548844207D10121400550
:1022E000FFF7A8FC00216005FFF7A4FC10BD2DE955
:1022F000FF4705460E460024A14600BFA046B08910
:1023000000B100BF2C8A24F44054F08804432C828E
:10231000AC8941F20C608443B088318908437189EB
:1023200008430443AC81AC8A24F44074B08904436C
:10233000AC826846FFF70FFBB548854202D0B9482A
:10234000854202D1DDF80C9001E0DDF80890A88903
:1023500000F4004040B109EBC90000EB09103168FE
:102360004900B0FBF1F707E009EBC90000EB0910E9
:1023700031688900B0FBF1F76420B7FBF0F004018D
:102380002009642101FB1078A88900F4004040B1C5
:10239000322000EBC800B0FBF1F000F0070004436E
:1023A00008E0322000EB08106421B0FBF1F000F0EF
:1023B0000F0004432C81BDE8FF874FF416510160E4
:1023C00000218180C18001810C2141810021818116
:1023D000704710B502460020108A20F470600B8808
:1023E0004C8823438C882343CC8823431843108292
:1023F00010BD0021018041808180C180704721B1E2
:10240000828942F40052828104E082894DF6FF7392
:102410001A4082817047028B02F47F420283028B52
:102420000A430283704721B1828942F400428281CB
:1024300003E08289C2F30E028281704721B1828A51
:1024400042F40062828204E0828A4FF2FF731A40F3
:1024500082827047C1F308028280704701468888F3
:10246000C0F308007047028A4FF6F0731A400282E8
:10247000028A0A430282704721B1828942F0020235
:10248000828104E082894FF6FD731A408281704791
:1024900082894FF2FF731A40828182890A438281C6
:1024A0007047028A4FF6DF731A400282028A0A439B
:1024B0000282704721B1028A42F48042028204E023
:1024C000028A4BF6FF731A4002827047818941F0FD
:1024D00001018181704721B1828A42F00802828223
:1024E00004E0828A4FF6F7731A4082827047028BAB
:1024F000D2B20283028B42EA01220283704721B1E9
:10250000828A42F02002828204E0828A4FF6DF73E0
:102510001A408282704721B1828A42F01002828280
:1025200004E0828A4FF6EF731A4082827047828AF3
:102530004FF6FB731A408282828A0A438282704776
:1025400021B1828A42F00202828204E0828A4FF63E
:10255000FD731A40828270471AB1838A0B438382CB
:1025600002E0838A8B4383827047F0B503460024E0
:1025700000260025002040F66A17B94200D100BFAE
:102580001846C1F3421401F01F06012707FA06F5A9
:10259000012C01D10C3004E0022C01D1103000E0FC
:1025A00014301AB107682F43076002E00768AF4391
:1025B0000760F0BD02460020B1F5007F00D100BFEA
:1025C00013880B400BB1012000E00020704701F49C
:1025D0000072B2F5007F00D100BFCA43028070478D
:1025E00070B50246002400230025002040F66A163C
:1025F000B14200D100BFC1F3421501F01F03012613
:1026000006FA03F3012D13D19689334017E0000039
:10261000001001400044004000480040004C0040D1
:10262000005000400014014000780040007C004051
:10263000022D02D1168A334001E0968A33400C12F3
:10264000012606FA04F41688344013B10CB10120B7
:1026500000E0002070BD10B50022002340F66A148F
:10266000A14200D100BF0A1201249440A3B2DC436E
:10267000048010BD704770477047704770477546BB
:1026800000F02CF8AE4605006946534620F00700DE
:10269000854618B020B5FEF789FEBDE820404FF012
:1026A00000064FF000074FF000084FF0000B21F03C
:1026B0000701AC46ACE8C009ACE8C009ACE8C00909
:1026C000ACE8C0098D46704710B50446AFF30080F2
:1026D0002046BDE81040FDF7A0BD0000004870474F
:1026E0007C0500204FF04070E1EE100A70470000BA
:1026F000000000000000000000000000202020205A
:1027000020000020000028285000000000000000E9
:10271000000000005050F85050F8505000000020C9
:1027200070A8A0603028A8702000000048A8B0A8B9
:1027300074345448000000002050506CA8A89468DD
:102740000000404080000000000000000000081071
:1027500010202020202010100800402020101010F1
:1027600010102020400000000020A87070A8200059
:10277000000000000010107C10100000000000009D
:10278000000000000000404080000000000000FC4D
:1027900000000000000000000000000000000040F9
:1027A00000000004080810102020404080000000B5
:1027B0007088888888888870000000002060202049
:1027C000202020700000000070888810204080F8D1
:1027D00000000000708808300808887000000000C1
:1027E0001030305090F8103800000000F88080F071
:1027F0008808887000000000304880B0C888887061
:1028000000000000780810102020202000000000A8
:1028100070888870888888700000000070888898A8
:102820006808906000000000000020000000002008
:102830000000000000000020000000202000000038
:102840000810204040201008000000000000FC009C
:10285000FC0000000000000040201008081020408C
:102860000000000070888810202000200000000078
:10287000384494B4B4B844380000000020203050EC
:10288000507848CC00000000F0484870484848F0B4
:102890000000000078888080808088700000000040
:1028A000F0484848484848F000000000F848507098
:1028B000504048F800000000F8485070504040E098
:1028C00000000000384880809C88483000000000EC
:1028D000CC484878484848CC00000000F820202028
:1028E000202020F8000000007C10101010101010A4
:1028F00090E00000EC485060504848EC00000000B8
:10290000E0404040404044FC00000000DCD8D8D803
:10291000A8A8A8AC00000000DC486868585848E83F
:102920000000000070888888888888700000000097
:10293000F0484870404040E00000000070888888FF
:1029400088E8987018000000F0484870504848EC3B
:102950000000000078888060100888F00000000007
:10296000F8A820202020207000000000CC48484813
:102970004848483000000000CC48485050302020E3
:1029800000000000A8A8A8A8705050500000000047
:10299000D8505020205050D800000000D85050503F
:1029A0002020207000000000F8901020204048F8FF
:1029B0000000382020202020202020203800004047
:1029C0004020202010101008080070101010101067
:1029D00010101010700020500000000000000000D7
:1029E00000000000000000000000000000FC40208B
:1029F00000000000000000000000000000000030A7
:102A00004838483C000000C040404070484848708A
:102A10000000000000000038484048300000001866
:102A2000080808384848483C000000000000003012
:102A30004878403800000018242020782020207892
:102A4000000000000000003C48304038443800C01E
:102A500040404070484848EC0000002020000060E2
:102A60002020207000000010100000301010101006
:102A700010E000C040404058506050C8000000E0E6
:102A800020202020202020F800000000000000F07E
:102A9000A8A8A8A800000000000000F0484848ECE2
:102AA00000000000000000304848483000000000EE
:102AB000000000F04848487040E000000000003886
:102AC00048484838081C0000000000D8604040E03A
:102AD000000000000000007840300878000000008E
:102AE000002020782020203800000000000000D8BE
:102AF0004848483C00000000000000D8505020200A
:102B000000000000000000A8A87050500000000065
:102B1000000000D8502050D800000000000000CC79
:102B20004848301020C000000000007810202078B5
:102B30000000181010101030101010101800101095
:102B400010101010101010101010602020202010F5
:102B5000202020206000689000000000000000009D
:102B60000000000000000000000000000000000065
:102B700000000000001010101010101000001010C5
:102B800000000012242448000000000000000000A3
:102B900000000000001212127E2424247E2424242B
:102BA00000000000083C4A4A48380C0A0A4A4A3CDD
:102BB000080800000044A4A8A8B0541A2A2A4A44CD
:102BC000000000000030484848506EA49498897670
:102BD0000000006020204000000000000000000015
:102BE000000000020408081010101010100808045B
:102BF00002000040201010080808080808101020E3
:102C00004000000000001010D63838D61010000028
:102C1000000000000000000808087F080808000005
:102C20000000000000000000000000000000602024
:102C3000204000000000000000007E0000000000B6
:102C400000000000000000000000000000006060C4
:102C500000000000020404040808101010202040A6
:102C600040000000001824424242424242422418DE
:102C70000000000000083808080808080808083E96
:102C800000000000003C4242420204081020427E44
:102C900000000000003C4242020418040242423C90
:102CA0000000000000040C0C142424447F04041FC2
:102CB00000000000007E4040407844020242443858
:102CC0000000000000182440405C62424242221C86
:102CD00000000000007E42040408081010101010CC
:102CE00000000000003C4242422418244242423C80
:102CF00000000000003844424242463A02022418D2
:102D00000000000000000000181800000000181863
:102D10000000000000000000001000000000001093
:102D200010100000000204081020402010080402C7
:102D300000000000000000007E00007E0000000097
:102D40000000000000402010080402040810204089
:102D500000000000003C4242620408080800181805
:102D6000000000000038445AAAAAAAAAAA5C423C61
:102D700000000000001010182828243C444242E7BC
:102D80000000000000F8444444784442424244F8C1
:102D900000000000003E4242808080808042443833
:102DA0000000000000F8444242424242424244F8DD
:102DB0000000000000FC424848784848404242FC7D
:102DC0000000000000FC424848784848404040E08D
:102DD00000000000003C44448080808E84444438DD
:102DE0000000000000E7424242427E42424242E787
:102DF00000000000007C1010101010101010107C4B
:102E000000000000003E0808080808080808080834
:102E100088F0000000EE444850705048484444EEAA
:102E20000000000000E0404040404040404042FE82
:102E30000000000000EE6C6C6C6C6C54545454D662
:102E40000000000000C7626252524A4A4A4646E207
:102E500000000000003844828282828282824438EC
:102E60000000000000FC424242427C40404040E002
:102E700000000000003844828282828282B24C3894
:102E80000600000000FC4242427C4848444442E3C1
:102E900000000000003E4242402018040242427CF2
:102EA0000000000000FE92101010101010101038DA
:102EB0000000000000E74242424242424242423C9D
:102EC0000000000000E74242442424282818101083
:102ED0000000000000D654545454546C282828286C
:102EE0000000000000E7422424181818242442E7B8
:102EF0000000000000EE4444282810101010103884
:102F000000000000007E840408081020204242FCDB
:102F10000000001E101010101010101010101010D3
:102F20001E00000040202020101010080804040497
:102F300002020078080808080808080808080808B5
:102F400078000018240000000000000000000000CD
:102F50000000000000000000000000000000000071
:102F600000FF0060100000000000000000000000F2
:102F700000000000000000000038440C34444C36CF
:102F8000000000000000C0404058644242426458C3
:102F90000000000000000000001C22404040221CF5
:102FA0000000000000000602023E42424242463B50
:102FB0000000000000000000003C42427E40423C15
:102FC0000000000000000C12107C10101010107C8B
:102FD0000000000000000000003E444438403C4235
:102FE000423C00000000C040405C6242424242E776
:102FF0000000000000303000007010101010107C35
:1030000000000000000C0C00001C04040404040474
:10301000447800000000C040404E4850704844EEE4
:103020000000000000107010101010101010107C24
:10303000000000000000000000FE4949494949ED38
:10304000000000000000000000DC6242424242E753
:103050000000000000000000003C42424242423CAE
:10306000000000000000000000D8644242426458A2
:1030700040E0000000000000001A26424242261AEA
:10308000020700000000000000EE3220202020F89F
:103090000000000000000000003E42403C02427C74
:1030A0000000000000000010107C10101010120C26
:1030B000000000000000000000C642424242463BC1
:1030C000000000000000000000EE4444282810101A
:1030D000000000000000000000DB894A5A5424244C
:1030E0000000000000000000007624181818246E6C
:1030F000000000000000000000E74224241818101F
:103100001060000000000000007E44081010227EC5
:103110000000000304040404040408040404040478
:10312000030008080808080808080808080808082C
:10313000080800C02020202020201020202020204F
:10314000C000205A04000000000000000000000041
:10315000000000000000000000000000000000006F
:10316000000000000000000000000000000000005F
:10317000000000000000000000000000000000004F
:10318000000000000000000000000600060006002D
:103190000600060006000600020004000400040009
:1031A000000000000000060006000600000000000D
:1031B000000000000000066006600CC019801100CD
:1031C00022000000000000000000000000000000DD
:1031D00000000000000000000000000000000000EF
:1031E0000000000000000000000008400840084007
:1031F00008407FE07FE01040108010801080108039
:103200007FE07FE020802080208020800000000080
:103210000000000000000000020002000F801AC041
:1032200032C033C032001A000E0007000380038052
:1032300002C032C03AC032C012800F000200020049
:103240000000000000000000000070805080890035
:10325000890089008A008A005C0075C005400A2048
:103260000A20122012201220214021C0000000005C
:10327000000000000000000000001C0036003600C6
:10328000360036003600340019E038805880CC8093
:10329000CC80C680C700C31063903CE000000000F3
:1032A0000000000000003000380008000800100096
:1032B00020000000000000000000000000000000EE
:1032C00000000000000000000000000000000000FE
:1032D000000000000000002000400080010001000C
:1032E00002000200040004000400040004000400C2
:1032F00004000200020001000100008000400020E4
:10330000000000000000400020001000080008003D
:103310000400040002000200020002000200020099
:103320000200040004000800080010002000400013
:10333000000000000000000000000000000002008B
:1033400003000200623072F00B800F807AF062306E
:103350000200020002000000000000000000000067
:10336000000000000000000000000000000000005D
:10337000020002000200020002007FF002000200D0
:103380000200020002000000000000000000000037
:10339000000000000000000000000000000000002D
:1033A000000000000000000000000000000000001D
:1033B0000000000000003000380008000800100085
:1033C00020000000000000000000000000000000DD
:1033D000000000000000000000007FE0000000008E
:1033E00000000000000000000000000000000000DD
:1033F00000000000000000000000000000000000CD
:1034000000000000000000000000000000000000BC
:103410000000000000003800380038000000000004
:1034200000000000000000200060004000C000809C
:1034300000800100010002000200060004000400F8
:10344000080008001000100030002000600040005C
:103450000000000000000000000000000F001980C4
:1034600030C030C0606060606060606060606060FC
:103470006060606030C030C019800F000000000044
:1034800000000000000000000000000002003E00FC
:1034900006000600060006000600060006000600FC
:1034A000060006000600060006003FC000000000FF
:1034B0000000000000000000000000001F0021804C
:1034C00040C060C060C000C00080018003000600F2
:1034D000040008001040204060407FC00000000051
:1034E0000000000000000000000000001E0063005B
:1034F000618061800180018003000E0001800080F6
:1035000000C000C060C060C061801F0000000000FB
:1035100000000000000000000000000001800180A9
:103520000380058005800980118011802180418001
:103530007FF0018001800180018007E00000000031
:103540000000000000000000000000003FC020005C
:1035500020002000200020002F00318020C000C06B
:1035600000C060C060C0418021801F0000000000DA
:10357000000000000000000000000000078018C0EC
:1035800030C0300020006000678068C070606060FC
:10359000606060602060304018C00F0000000000D4
:1035A0000000000000000000000000001FE030608C
:1035B0002040208000800080010001000200020005
:1035C00002000600060006000600060000000000DB
:1035D0000000000000000000000000001F8030C05C
:1035E000606060606060304038C00F00138030C0A1
:1035F000606060606060606030C00F80000000004C
:103600000000000000000000000000000F003080FB
:1036100030C0604060606060606060E031601E608B
:10362000006000C000C0308031801E00000000003B
:10363000000000000000000000000000000000008A
:103640000000000000000700070007000000000065
:103650000000000000000700070007000000000055
:10366000000000000000000000000000000000005A
:10367000000000000000060006000000000000003E
:103680000000000000000000060006000200040028
:103690000400000000000000000000200040008046
:1036A00001000200040008001000200010000800C3
:1036B0000400020001000080004000200000000023
:1036C00000000000000000000000000000000000FA
:1036D0000000000000007FE00000000000007FE02C
:1036E00000000000000000000000000000000000DA
:1036F0000000000000000000000020001000080092
:103700000400020001000080004000200040008012
:10371000010002000400080010002000000000006A
:1037200000000000000000000000000007C018605A
:10373000203020303030303000E0018002000200C4
:103740000200000000000700070007000000000062
:1037500000000000000000000000070018C030401A
:1037600033A026A066A065A06D206D206D206D2081
:103770006D4027803020304018C00F00000000004E
:10378000000000000000000000000000060006002D
:103790000A000B00090009001100118010801F8031
:1037A00020C020C0204040404060F0F000000000F9
:1037B0000000000000000000000000007F0031C099
:1037C00030C030C030C030C031803F0030C03040E9
:1037D000306030603060306030C07F8000000000BA
:1037E00000000000000000000000000007C018C03A
:1037F00030603020202060006000600060006000C9
:10380000600060203020304018C00F000000000031
:10381000000000000000000000000000FE003180F9
:1038200030C030C030603060306030603060306058
:103830003060306030C030C03180FE0000000000D9
:10384000000000000000000000000000FFC060C099
:10385000602060206000610061007F006100610005
:1038600061006000602060206040FFC00000000038
:10387000000000000000000000000000FFC060C069
:10388000602060206000610061007F0061006100D5
:1038900061006000600060006000F800000000004F
:1038A0000000000000000000000000000F00188071
:1038B000304030402040600060006000600063F0F5
:1038C00060C060C030C030C018C00F0000000000F1
:1038D000000000000000000000000000F0F0606048
:1038E000606060606060606060607FE06060606039
:1038F00060606060606060606060F0F00000000028
:103900000000000000000000000000003FC00600B2
:103910000600060006000600060006000600060077
:10392000060006000600060006003FC0000000007A
:103930000000000000000000000000001FE0030085
:10394000030003000300030003000300030003005F
:10395000030003000300030003000300630066008C
:103960003C0000000000000000000000F3C0618087
:1039700063006200640068006C00740076006200FE
:10398000630061006180608060C0F1E000000000C1
:10399000000000000000000000000000F8006000CF
:1039A0006000600060006000600060006000600017
:1039B00060006000602060206040FFC000000000E8
:1039C000000000000000000000000000E0E061C016
:1039D00061C071C071C072C072C052C05AC05AC0BA
:1039E0005CC04CC04CC04CC048C0E1E000000000CE
:1039F00000000000000000000000000071F03040F6
:103A0000384038402C402C4026402640224023405D
:103A1000214021C021C020C020C0F840000000008B
:103A20000000000000000000000000000F001980EE
:103A300030C03040606060606060606060606060A6
:103A400060606060304030C019800F0000000000EE
:103A5000000000000000000000000000FF0060C047
:103A60006060606060606060606061C07F00600096
:103A700060006000600060006000F800000000006E
:103A80000000000000000000000000000F0019808E
:103A900030C0304060606060606060606060606046
:103AA00060606E60324033C019800F0001E000C0DA
:103AB000000000000000000000000000FF8060C067
:103AC000606060606060606060C07F006200630092
:103AD0006100618060C060C06060F0700000000044
:103AE0000000000000000000000000001F4030C087
:103AF00060406040600070003C001F0007C001C0D3
:103B000000E040604060606030C00F800000000056
:103B10000000000000000000000000007FE04620E0
:103B20008610861006000600060006000600060045
:103B3000060006000600060006001F8000000000C8
:103B400000000000000000000000000078E03040AD
:103B500030403040304030403040304030403040E5
:103B6000304030403040304018800F0000000000EE
:103B7000000000000000000000000000F0E06040D5
:103B80002080208030803080110011001900190041
:103B90000A000A000E000C000400040000000000EF
:103BA000000000000000000000000000EF70462050
:103BB000422062206220264026402740274039408C
:103BC0003980198019801180110011000000000057
:103BD00000000000000000000000000079E03080DC
:103BE0001080188009000D00060004000600060081
:103BF0000B0009001180108020C071E0000000005F
:103C0000000000000000000000000000F0F0602054
:103C100020403040108018801D000D000E0006006E
:103C2000060006000600060006001F8000000000D7
:103C30000000000000000000000000003FE03040F5
:103C400060C0408001800100020002000400040006
:103C5000080018001020302020407FC00000000025
:103C600000000000000007C004000400040004007D
:103C70000400040004000400040004000400040024
:103C8000040004000400040004000400040007C051
:103C900000000000000000000000200020001000D4
:103CA00010000800080008000400040002000200E0
:103CB000030001000100008000800040004000403F
:103CC0000020000000003E0002000200020002008E
:103CD00002000200020002000200020002000200D4
:103CE00002000200020002000200020002003E0088
:103CF0000000000006000900108000000000000025
:103D000000000000000000000000000000000000B3
:103D100000000000000000000000000000000000A3
:103D20000000000000000000000000000000000093
:103D30000000000000000000000000000000000083
:103D40000000000000000000000000000000000073
:103D5000FFF0000000001800060000000000000056
:103D60000000000000000000000000000000000053
:103D70000000000000000000000000000000000043
:103D80000000000000000000000000000000000033
:103D90000000000000000F8030C030C000C007C02D
:103DA00038C070C060C060C071D03E7000000000BC
:103DB0000000000000000000000010007000300053
:103DC00030003000300033803CC0386030603060FC
:103DD000306030603060304038C027800000000024
:103DE00000000000000000000000000000000000D3
:103DF0000000000000000F00318031806180600011
:103E0000600060006040304030800F000000000023
:103E100000000000000000000000004003C000C0DF
:103E200000C000C000C01EC031C030C060C060C053
:103E300060C060C060C020C031E01E800000000093
:103E40000000000000000000000000000000000072
:103E5000000000000000078018C010403060306093
:103E60003FE03000300018201840078000000000BC
:103E700000000000000000000000000003C0066019
:103E80000C600C000C007F800C000C000C000C007F
:103E90000C000C000C000C000C003F800000000027
:103EA0000000000000000000000000000000000012
:103EB0000000000000000FE01B6031803180318085
:103EC00019801F0030003F0033C060C060C071C067
:103ED0001F00000000000000000010007000300013
:103EE000300030003000378038C030C030C030C0C3
:103EF00030C030C030C030C030C079E000000000B9
:103F000000000000000000000000000006000600A5
:103F10000000000002003E00060006000600060049
:103F2000060006000600060006003FC00000000074
:103F3000000000000000000000000000038003807B
:103F40000000000000800F8001800180018001805E
:103F500001800180018001800180018001803300A7
:103F60003E00000000000000000010007000300063
:103F700030003000300031C03100310032003600F6
:103F80003A0031003180308030C079E0000000001C
:103F90000000000000000000000002003E000600DB
:103FA00006000600060006000600060006000600E1
:103FB000060006000600060006003FC000000000E4
:103FC00000000000000000000000000000000000F1
:103FD000000000000000ECE07760666066606660EC
:103FE00066606660666066606660FFF00000000004
:103FF00000000000000000000000000000000000C1
:10400000000000000000778038C030C030C030C0F1
:1040100030C030C030C030C030C079E00000000097
:104020000000000000000000000000000000000090
:104030000000000000000F00198030C06060606068
:1040400060606060606030C030C00F000000000041
:104050000000000000000000000000000000000060
:10406000000000000000778038C0306030603060B1
:1040700030603060306030C038C037803000300091
:104080007C000000000000000000000000000000B4
:104090000000000000001E4031C030C060C060C0A1
:1040A00060C060C060C020C031C01EC000C000C081
:1040B00003E000000000000000000000000000001D
:1040C000000000000000F9C01A601C601800180011
:1040D00018001800180018001800FF000000000069
:1040E00000000000000000000000000000000000D0
:1040F0000000000000000FC038C0304030401C00FD
:104100000F0003C020C020C031C03F80000000006D
:10411000000000000000000000000000000004009B
:1041200004000C000C007F800C000C000C000C0044
:104130000C000C000C000C400C400780000000003C
:10414000000000000000000000000000000000006F
:1041500000000000104071C030C030C030C030C01E
:1041600030C030C030C030C039E01E8000000000D8
:10417000000000000000000000000000000000003F
:1041800000000000000078E03040108010801880AF
:1041900009000D000D0006000600040000000000EC
:1041A000000000000000000000000000000000000F
:1041B000000000000000EF704620622026402640EC
:1041C00037403980198019801980100000000000E4
:1041D00000000000000000000000000000000000DF
:1041E0000000000000003DE0188008800D0006007F
:1041F000060007000900108010C079E000000000F0
:1042000000000000000000000000000000000000AE
:1042100000000000000079E010801080108009008C
:1042200009000D000600060006000400040024003A
:104230003800000000000000000000000000000046
:104240000000000000003F802180230022000600C3
:1042500004000C001840104030C03F8000000000F7
:1042600000000000000000C001000100010001008A
:104270000100010001000100020004000200010031
:10428000010001000100010001000100010000C067
:104290000000020002000200020002000200020010
:1042A00002000200020002000200020002000200FE
:1042B00002000200020002000200020002000200EE
:1042C000020000000000300008000800080008009C
:1042D00008000800080008000400020004000800AC
:1042E0000800080008000800080008000800300066
:1042F0000000000038004420432001C000000000FE
:1043000000000000000000000000000000000000AD
:10431000000000000000000000000000000000009D
:10432000000000000000000000000000000000008D
:10433000000000000000000000000000000000007D
:10434000000000000000000000000000000000006D
:10435000000000000000000000000000000000005D
:10436000000000000000000000000000000000004D
:10437000000000000000000000000000000000003D
:10438000000000000000000000000000000000002D
:10439000000000000000000000000000000000001D
:1043A000000000000000000000000000000003C04A
:1043B00003C003C003C003C003C001C0018001806B
:1043C00001800180018001800180018000000000E7
:1043D0000000018003C003C0018000000000000055
:1043E00000000000000000000000000000000000CD
:1043F00000000000000000000000000000000000BD
:1044000000000000000000000000000000000000AC
:10441000000000000000000000000000000000009C
:104420000000000000000318073807380E700C6009
:1044300018C03180210000000000000000000000D2
:10444000000000000000000000000000000000006C
:10445000000000000000000000000000000000005C
:10446000000000000000000000000000000000004C
:10447000000000000000000000000000000000003C
:10448000000000000000000000000000000000002C
:10449000000000000000000000000000000000001C
:1044A0000000000000000000000000000000040800
:1044B00004080408040804087FFE7FFE7FFE08103D
:1044C000081008100810081008107FFE7FFE7FFEFD
:1044D00018301020102010201020000000000000D4
:1044E00000000000000000000000000000000000CC
:1044F00000000000000000000000000000000000BC
:1045000000000000000000000000000000000000AB
:10451000000000000000000000000000000000009B
:10452000000000000000000000000100010003C0C6
:104530000D3009181918193819381D000D000F0011
:10454000070003C001E001F00130013801183918FB
:10455000391831183130196007C00100010001001D
:10456000000000000000000000000000000000004B
:10457000000000000000000000000000000000003B
:10458000000000000000000000000000000000002B
:10459000000000000000000000000000000000001B
:1045A00000000000000000000000000000003810C3
:1045B0006C104420C620C640C640C640C680C68097
:1045C00044806D38396C024402C602C604C604C673
:1045D00008C608C60844106C10380000000000002F
:1045E00000000000000000000000000000000000CB
:1045F00000000000000000000000000000000000BB
:1046000000000000000000000000000000000000AA
:10461000000000000000000000000000000000009A
:1046200000000000000000000000000000000F007B
:1046300019003180318031803180310033003A00FF
:104640001C00387C3C104C10CE10C620C720C32064
:10465000C1C0C1C260E6317C1E380000000000000D
:10466000000000000000000000000000000000004A
:10467000000000000000000000000000000000003A
:10468000000000000000000000000000000000002A
:10469000000000000000000000000000000000001A
:1046A00000000000000038003C003C000C000C0042
:1046B0000800300060000000000000000000000062
:1046C00000000000000000000000000000000000EA
:1046D00000000000000000000000000000000000DA
:1046E00000000000000000000000000000000000CA
:1046F00000000000000000000000000000000000BA
:1047000000000000000000000000000000000000A9
:104710000000000000000000000000000000000099
:104720000000000000000002000400080018003033
:1047300000200060004000C000C0018001800180B6
:1047400001800180018001800180018000C000C0E3
:104750000040006000200030001800080004000243
:104760000000000000000000000000000000000049
:104770000000000000000000000000000000000039
:104780000000000000000000000000000000000029
:104790000000000000000000000000000000000019
:1047A00000000000000040002000100018000C0075
:1047B0000400060002000300030001800180018064
:1047C00001800180018001800180018003000300DD
:1047D0000300060004000C00180010002000400038
:1047E00000000000000000000000000000000000C9
:1047F00000000000000000000000000000000000B9
:1048000000000000000000000000000000000000A8
:104810000000000000000000000000000000000098
:104820000000000000000000000000000000000088
:10483000000000C001C001C030C6388E1C9C06B00C
:1048400001C001C006B01C9C388E318601C001C079
:1048500001C0000000000000000000000000000097
:104860000000000000000000000000000000000048
:104870000000000000000000000000000000000038
:104880000000000000000000000000000000000028
:104890000000000000000000000000000000000018
:1048A0000000000000000000000000000000000008
:1048B00000000000008000800080008000800080F8
:1048C00000803FFE0080008000800080008000802B
:1048D0000080000000000000000000000000000058
:1048E00000000000000000000000000000000000C8
:1048F00000000000000000000000000000000000B8
:1049000000000000000000000000000000000000A7
:104910000000000000000000000000000000000097
:104920000000000000000000000000000000000087
:104930000000000000000000000000000000000077
:104940000000000000000000000000000000000067
:10495000000038003C003C000C000C000800300057
:1049600060000000000000000000000000000000E7
:104970000000000000000000000000000000000037
:104980000000000000000000000000000000000027
:104990000000000000000000000000000000000017
:1049A0000000000000000000000000000000000007
:1049B00000000000000000000000000000000000F7
:1049C00000007FFE0000000000000000000000006A
:1049D00000000000000000000000000000000000D7
:1049E00000000000000000000000000000000000C7
:1049F00000000000000000000000000000000000B7
:104A000000000000000000000000000000000000A6
:104A10000000000000000000000000000000000096
:104A20000000000000000000000000000000000086
:104A30000000000000000000000000000000000076
:104A40000000000000000000000000000000000066
:104A5000000018003C003C001800000000000000AE
:104A60000000000000000000000000000000000046
:104A70000000000000000000000000000000000036
:104A80000000000000000000000000000000000026
:104A90000000000000000000000000000000000016
:104AA0000000000000000000000200060004000CEE
:104AB000000800180010003000200060004000C016
:104AC00000800180010003000200060004000C00C9
:104AD00008001800100030002000600040000000B6
:104AE00000000000000000000000000000000000C6
:104AF00000000000000000000000000000000000B6
:104B000000000000000000000000000000000000A5
:104B10000000000000000000000000000000000095
:104B2000000000000000000000000000000003C0C2
:104B300006200C30181818181808300C300C300CDF
:104B4000300C300C300C300C300C300C300C1808A1
:104B5000181818180C30062003C0000000000000D0
:104B60000000000000000000000000000000000045
:104B70000000000000000000000000000000000035
:104B80000000000000000000000000000000000025
:104B90000000000000000000000000000000000015
:104BA0000000000000000000000000000000008085
:104BB00001801F80018001800180018001800180CF
:104BC00001800180018001800180018001800180DD
:104BD00001800180018003C01FF800000000000078
:104BE00000000000000000000000000000000000C5
:104BF00000000000000000000000000000000000B5
:104C000000000000000000000000000000000000A4
:104C10000000000000000000000000000000000094
:104C2000000000000000000000000000000007E09D
:104C300008381018200C200C300C300C000C001818
:104C400000180030006000C001800300020004046E
:104C500008041004200C3FF83FF80000000000009A
:104C60000000000000000000000000000000000044
:104C70000000000000000000000000000000000034
:104C80000000000000000000000000000000000024
:104C90000000000000000000000000000000000014
:104CA000000000000000000000000000000007C03D
:104CB00018603030301830183018001800180030E4
:104CC000006003C0007000180008000C000C300CDD
:104CD000300C30083018183007C000000000000009
:104CE00000000000000000000000000000000000C4
:104CF00000000000000000000000000000000000B4
:104D000000000000000000000000000000000000A3
:104D10000000000000000000000000000000000093
:104D20000000000000000000000000000000006023
:104D3000006000E000E00160016002600460046067
:104D40000860086010603060206040607FFC006098
:104D5000006000600060006003FC000000000000D4
:104D60000000000000000000000000000000000043
:104D70000000000000000000000000000000000033
:104D80000000000000000000000000000000000023
:104D90000000000000000000000000000000000013
:104DA00000000000000000000000000000000FFCF8
:104DB0000FFC10001000100010001000100013E095
:104DC000143018181008000C000C000C000C300CEB
:104DD000300C20182018183007C000000000000018
:104DE00000000000000000000000000000000000C3
:104DF00000000000000000000000000000000000B3
:104E000000000000000000000000000000000000A2
:104E10000000000000000000000000000000000092
:104E2000000000000000000000000000000001E0A1
:104E300006180C180818180010001000300033E095
:104E4000363038183808300C300C300C300C300C40
:104E5000180C18080C180E3003E0000000000000C9
:104E60000000000000000000000000000000000042
:104E70000000000000000000000000000000000032
:104E80000000000000000000000000000000000022
:104E90000000000000000000000000000000000012
:104EA00000000000000000000000000000001FFCE7
:104EB0001FFC10083010201020200020004000406F
:104EC000004000800080010001000100010003009B
:104ED00003000300030003000300000000000000C3
:104EE00000000000000000000000000000000000C2
:104EF00000000000000000000000000000000000B2
:104F000000000000000000000000000000000000A1
:104F10000000000000000000000000000000000091
:104F2000000000000000000000000000000007E09A
:104F30000C301818300C300C300C380C38081E1897
:104F40000F2007C018F030783038601C600C600CFF
:104F5000600C600C3018183007C000000000000022
:104F60000000000000000000000000000000000041
:104F70000000000000000000000000000000000031
:104F80000000000000000000000000000000000021
:104F90000000000000000000000000000000000011
:104FA000000000000000000000000000000007C03A
:104FB0001820301030186008600C600C600C600C19
:104FC000600C701C302C186C0F8C000C0018001832
:104FD00000103030306030C00F8000000000000052
:104FE00000000000000000000000000000000000C1
:104FF00000000000000000000000000000000000B1
:1050000000000000000000000000000000000000A0
:105010000000000000000000000000000000000090
:105020000000000000000000000000000000000080
:10503000000000000000000000000000018003C02C
:1050400003C001800000000000000000000000001C
:105050000000018003C003C00180000000000000C8
:105060000000000000000000000000000000000040
:105070000000000000000000000000000000000030
:105080000000000000000000000000000000000020
:105090000000000000000000000000000000000010
:1050A0000000000000000000000000000000000000
:1050B000000000000000000000000000000003806D
:1050C00003800380000000000000000000000000DA
:1050D00000000000038003800380018003000300C0
:1050E00000000000000000000000000000000000C0
:1050F00000000000000000000000000000000000B0
:10510000000000000000000000000000000000009F
:10511000000000000000000000000000000000008F
:10512000000000000000000000000000000000047B
:105130000008001000200040008001000200040070
:1051400008001000100008000400020001000080A8
:1051500000400020001000080004000000000000D3
:10516000000000000000000000000000000000003F
:10517000000000000000000000000000000000002F
:10518000000000000000000000000000000000001F
:10519000000000000000000000000000000000000F
:1051A00000000000000000000000000000000000FF
:1051B0000000000000000000000000007FFE000072
:1051C00000000000000000007FFE00000000000062
:1051D00000000000000000000000000000000000CF
:1051E00000000000000000000000000000000000BF
:1051F00000000000000000000000000000000000AF
:10520000000000000000000000000000000000009E
:10521000000000000000000000000000000000008E
:10522000000000000000000000000000000020005E
:10523000100008000400020001000080004000206F
:10524000001000080008001000200040008001004D
:105250000200040008001000200000000000000010
:10526000000000000000000000000000000000003E
:10527000000000000000000000000000000000002E
:10528000000000000000000000000000000000001E
:10529000000000000000000000000000000000000E
:1052A000000000000000000000000000000003E01B
:1052B0000C18180C10063006380638063806000C94
:1052C0000018007000C00080008000800080000096
:1052D0000000018003C003C0018000000000000046
:1052E00000000000000000000000000000000000BE
:1052F00000000000000000000000000000000000AE
:10530000000000000000000000000000000000009D
:10531000000000000000000000000000000000008D
:10532000000000000000000000000000000003E09A
:1053300006100C08180430D431B2213263326322D3
:1053400066226622662266626664666426E83330F8
:1053500030021004180C0C1803E0000000000000DC
:10536000000000000000000000000000000000003D
:10537000000000000000000000000000000000002D
:10538000000000000000000000000000000000001D
:10539000000000000000000000000000000000000D
:1053A000000000000000000000000000000003807A
:1053B00003800380038004C004C004C004C00C4008
:1053C00008600860086008201FF0103010301030AE
:1053D000201820182018601CF83E00000000000073
:1053E00000000000000000000000000000000000BD
:1053F00000000000000000000000000000000000AD
:10540000000000000000000000000000000000009C
:10541000000000000000000000000000000000008C
:1054200000000000000000000000000000007FE01D
:1054300018381818180C180C180C180C180C181808
:1054400018301FE01818180C18041806180618064B
:1054500018061806180C18187FF00000000000004D
:10546000000000000000000000000000000000003C
:10547000000000000000000000000000000000002C
:10548000000000000000000000000000000000001C
:10549000000000000000000000000000000000000C
:1054A000000000000000000000000000000003E019
:1054B000061C080C18063002300230006000600044
:1054C000600060006000600060006000600030020A
:1054D0003002100418080C1003E000000000000067
:1054E00000000000000000000000000000000000BC
:1054F00000000000000000000000000000000000AC
:10550000000000000000000000000000000000009B
:10551000000000000000000000000000000000008B
:1055200000000000000000000000000000007FC03C
:10553000187018181808180C180C180618061806F1
:105540001806180618061806180618061804180C67
:10555000180C1818181818607FC000000000000010
:10556000000000000000000000000000000000003B
:10557000000000000000000000000000000000002B
:10558000000000000000000000000000000000001B
:10559000000000000000000000000000000000000B
:1055A00000000000000000000000000000007FFC80
:1055B000180C1804180218021800180018101810F7
:1055C00018301FF0183018101810180018001800A4
:1055D000180218021804180C7FFC000000000000DC
:1055E00000000000000000000000000000000000BB
:1055F00000000000000000000000000000000000AB
:10560000000000000000000000000000000000009A
:10561000000000000000000000000000000000008A
:1056200000000000000000000000000000007FFCFF
:10563000181C180418021802180018001810181066
:1056400018301FF018301810181018101800180013
:1056500018001800180018007E000000000000006C
:10566000000000000000000000000000000000003A
:10567000000000000000000000000000000000002A
:10568000000000000000000000000000000000001A
:10569000000000000000000000000000000000000A
:1056A000000000000000000000000000000003C037
:1056B0000C30081018183008300820006000600016
:1056C000600060006000607E60186018201830186C
:1056D0003018101818180C2007C000000000000037
:1056E00000000000000000000000000000000000BA
:1056F00000000000000000000000000000000000AA
:105700000000000000000000000000000000000099
:105710000000000000000000000000000000000089
:105720000000000000000000000000000000FC3F3E
:10573000300C300C300C300C300C300C300C300C89
:10574000300C3FFC300C300C300C300C300C300C7A
:10575000300C300C300C300CFC3F0000000000001E
:105760000000000000000000000000000000000039
:105770000000000000000000000000000000000029
:105780000000000000000000000000000000000019
:105790000000000000000000000000000000000009
:1057A00000000000000000000000000000001FF8E2
:1057B00001800180018001800180018001800180E1
:1057C00001800180018001800180018001800180D1
:1057D00001800180018001801FF8000000000000AE
:1057E00000000000000000000000000000000000B9
:1057F00000000000000000000000000000000000A9
:105800000000000000000000000000000000000098
:105810000000000000000000000000000000000088
:10582000000000000000000000000000000007FE73
:105830000060006000600060006000600060006068
:105840000060006000600060006000600060006058
:1058500000600060006000600060706070C0718077
:105860003F000000000000000000000000000000F9
:105870000000000000000000000000000000000028
:105880000000000000000000000000000000000018
:105890000000000000000000000000000000000008
:1058A00000000000000000000000000000007E7CFE
:1058B0001830182018601840188018801900190036
:1058C0001B001D801D8018C018C01860186018309B
:1058D00018301830181818187E3E0000000000001C
:1058E00000000000000000000000000000000000B8
:1058F00000000000000000000000000000000000A8
:105900000000000000000000000000000000000097
:105910000000000000000000000000000000000087
:1059200000000000000000000000000000007E00F9
:1059300018001800180018001800180018001800A7
:105940001800180018001800180018001800180097
:10595000180218021804180C7FFC00000000000058
:105960000000000000000000000000000000000037
:105970000000000000000000000000000000000027
:105980000000000000000000000000000000000017
:105990000000000000000000000000000000000007
:1059A0000000000000000000000000000000F00FF8
:1059B000381C381C381C381C382C2C2C2C2C2C2C2B
:1059C0002C4C2C4C264C264C264C268C228C238C82
:1059D000238C230C230C210CF13F0000000000005D
:1059E00000000000000000000000000000000000B7
:1059F00000000000000000000000000000000000A7
:105A00000000000000000000000000000000000096
:105A10000000000000000000000000000000000086
:105A20000000000000000000000000000000F01F67
:105A3000380438042C042C042604260423042304EC
:105A40002184218420C420C4206420642034203494
:105A5000201C201C200C200CF8040000000000007A
:105A60000000000000000000000000000000000036
:105A70000000000000000000000000000000000026
:105A80000000000000000000000000000000000016
:105A90000000000000000000000000000000000006
:105AA000000000000000000000000000000003C033
:105AB0000C3018181008300C300C600460066006BA
:105AC0006006600660066006600660062006300C10
:105AD000300C100818180C3003C000000000000043
